:100000000C94C7000C94E4000C94E4000C94E400FD
:100010000C94E4000C94E4000C94E4000C94E400D0
:100020000C94E4000C94E4000C94E4000C94E400C0
:100030000C94E4000C94E4000C94E4000C94E400B0
:100040000C949E020C94E4000C9457050C94E4006C
:100050000C94E4000C94E6020C94E4000C94E4008C
:100060000C94E4000C94E40065016D0172017701C9
:100070007E018B01B401D00156657273696F6E3ACF
:10008000002020204D41582D4C616465723136208E
:100090002000202D3E2000203C2D20202045696E90
:1000A00073742E00537461727420202D3E2000560C
:1000B000200020202D202020204F4B202020202BEE
:1000C0002020005374726F6D3D0020647574743D80
:1000D000006475743D0043200056200055696E3D54
:1000E0000041680050726F6772616D6D3D0041683C
:1000F000202020004D61782043203D005A656C6C23
:10010000656E3D005620005370616E6E756E673DE2
:10011000005A656C6C004120002020202055696E3B
:10012000202020200054656D706572617475722006
:1001300000204C6164657A6569742020004B7572FB
:100140007A7363686C7573730020205A656C6C65F4
:100150006E20202000202057616E646C6572202084
:10016000004C69506F004C694876004C6946650048
:100170004E694D68004E6943610050422020005591
:1001800049202000454E444500455252200011248C
:100190001FBECFEFD4E0DEBFCDBF11E0A0E0B1E0E5
:1001A000E0E2F7E202C005900D92A232B107D9F762
:1001B00024E0A2E2B1E001C01D92AF34B207E1F742
:1001C0000E9452100C948E130C940000209A8FEC15
:1001D0008093C4001092C50082E08093C00088E93B
:1001E0008093C1008EEF80930A02109206020E9453
:1001F000D7031092F6011092F7011092F8011092B5
:10020000F90185E086BD80916E00816080936E006B
:1002100084E085BD10927C008EED80937A0081EBA6
:100220008093800089E0809381002A98229A7894B4
:10023000459A5A9A5B9A0E943C0A289A80E00E944A
:10024000E80381E890E00E94EF0381E00E94E80368
:1002500088E790E00E94EF0341E062E082E190E0F5
:100260000E94090468EE73E080E090E00E947E0442
:10027000289868EE73E080E090E00E947E0484E2BB
:1002800090E00E94271390E0873091052CF4909322
:1002900031048093300404C0109231041092300471
:1002A000809130040C94050D0F931F93CF93DF932F
:1002B000EB01E8814E2F50E04830510508F07CC03A
:1002C000FA01EC5CFF4F0C94C3118A3009F075C041
:1002D00081E0888319821A8270C0853F09F06CC062
:1002E00082E05CC08C3009F067C083E057C088238F
:1002F00009F462C094E0988388875FC0882309F47A
:100300005BC095E0988390ED980F998781538E306C
:1003100008F052C052C0882309F44EC09981FB01F5
:10032000E90FF11D8383148281E0890F8983843072
:1003300008F443C00A8110E040E150E060E070E062
:10034000CE0103960E94FA11F8013596EE0FFF1FB9
:10035000EC0FFD1F718360838A818F5F8A8319820E
:100360009985891750F118C0882331F19981FB01D3
:10037000E90FF11D8383148281E0890F8983843022
:10038000E0F040E150E060E070E0CE0103960E94B2
:10039000FA117FA36EA3198288818F5F88830DC0B5
:1003A000188221E030E08D3011F020E030E0882725
:1003B0009927821B930B03C0188280E090E0DF91A5
:1003C000CF911F910F91089580910A028F3FD9F428
:1003D0008091240190912501892BA9F4809122011B
:1003E00090912301892B79F48FEF0E949E048FEA6C
:1003F0000E949E048FEB0E949E0481E090E0909307
:100400002301809322018091220190912301892B65
:10041000B9F08091240190912501883E21E0920756
:1004200078F4FC01EC5FFD4F80810E949E04809176
:100430002401909125010196909325018093240138
:100440008091240190912501883E914089F480910A
:10045000220190912301019759F4109223011092E7
:1004600022018EEF80930A0210922501109224013E
:1004700008958091220190912301892B09F05DC09C
:1004800040E065E080911004909111040E94A50461
:1004900042E064E080913204909133040E94A5040C
:1004A00043E064E080912404909125040E94A50417
:1004B00042E064E080911C0490911D040E94A50418
:1004C00040E060E080911804909119040E94A50416
:1004D00040E060E080911A0490911B040E94A50402
:1004E0008091F0039091F10397FDCF9640E060E09A
:1004F00026E0959587952A95E1F70E94A50442E0AC
:1005000064E08091F2039091F3030E94A50440E01F
:1005100060E08091F8039091F9030E94A50442E005
:1005200064E080912004909121040E94A5048DE054
:100530000E949E048AE00C949E0408951F920F92DC
:100540000FB60F9211248F939F93AF93BF9385E0C3
:1005500086BD8091F6019091F701A091F801B091CC
:10056000F9010496A11DB11D8093F6019093F70146
:10057000A093F801B093F901BF91AF919F918F9132
:100580000F900FBE0F901F90189590E2899FB001B9
:10059000112420E030E080E090E0DC01F901E60F7A
:1005A000F71FEA5AFE4F40815181840F951FA11D0C
:1005B000B11D2E5F3F4F2032310581F722E0B69505
:1005C000A795979587952A95D1F708951F920F9231
:1005D0000FB60F9211242F933F934F935F936F9316
:1005E0007F938F939F93AF93BF93EF93FF938091EC
:1005F000260120917800909179003091270140E107
:10060000849FF0011124E30FF11DEE0FFF1FEA5A42
:10061000FE4F30E0392B318320838F5F65E00E94ED
:100620004E119093260180917C00807E982B9093B0
:100630007C0080917A00806480937A00809126010A
:1006400081110BC0809127018F5F982F9F7090932D
:100650002701837011F40E943A06FF91EF91BF9138
:10066000AF919F918F917F916F915F914F913F914A
:100670002F910F900FBE0F901F901895239A249AD8
:10068000259A8AB18F708AB98BB1806F8BB9089522
:100690002B988AB18F708AB98BB1806F8BB92C9AE5
:1006A0002D9A000000000000000000000000000083
:1006B0004F9B16C080E080FD15C02D980000000003
:1006C000000000000000000000000000000000002A
:1006D00000000000000000008F5F843061F7E8CF69
:1006E0002D9808952D9AEACFCF93DF9300D0CDB700
:1006F000DEB76A8389830E94480389816A818130D9
:1007000011F42B9A01C02B982C982D9A8AB1806FE6
:100710008AB98BB1962F907F8F70892B8BB900008F
:1007200000000000000000000000000000000000C9
:10073000000000000000000000002D9800000000F4
:1007400000000000000000000000000000000000A9
:1007500000000000000000002D9A8BB190E1699F1D
:10076000B00111248F70682B6BB9000000000000ED
:100770000000000000000000000000000000000079
:100780000000000000002D988AB18F708AB98BB1EB
:10079000806F8BB90F900F90DF91CF910895682FE4
:1007A00081E00C947403682F80E00C9474030E9421
:1007B0003E0388E20E94D30381E00E94D30386E0D7
:1007C0000E94D3038CE00E94D30382E00C94D303F5
:1007D0008295880F880F807C80680C94D303CF9318
:1007E000DF93FC018491EF012196882321F00E9480
:1007F000CF03FE01F7CFDF91CF910895CF93C82F9C
:10080000CC2329F080E20E94CF03C150F9CFCF91D1
:100810000895BF92CF92DF92EF92FF920F931F93B2
:10082000CF93DF937C01162FB42E97FF08C0F1946D
:10083000E194F1088DE20E94CF0301E001C000E0E5
:10084000812FC1E0D0E09AE0823040F09E01929F7B
:10085000E001939FD00D11248150F6CF8AE0C82E7D
:10086000D12CB11203C08EE20E94CF031150C701F8
:10087000BE010E945A11CB01B6010E945A11009785
:1008800041F4B11630F4011104C080E20E94CF039C
:1008900004C0805D0E94CF0301E0CE01B6010E943A
:1008A0005A11EB012097E9F6DF91CF911F910F913B
:1008B000FF90EF90DF90CF90BF9008958F3F91050C
:1008C00081F07CF0229A219A2FEF20938800833BBD
:1008D00021E0920714F082EB91E08F5F80938A0011
:1008E000089510928A001816190624F02198109283
:1008F00088000895219A8093880008950F931F938C
:100900000091F6011091F7012091F8013091F90161
:10091000DC01CB01800F911FA21FB31F0091F601D4
:100920001091F7012091F8013091F901801791079A
:10093000A207B30798F71F910F9108959091C000F7
:1009400095FFFCCF8093C6000895BF92CF92DF92AF
:10095000EF92FF920F931F93CF93DF937C01162F9B
:10096000B42E97FF05C0F194E194F10801E001C0B5
:1009700000E0112329F0812FC1E0D0E09AE015C0FA
:1009800011E0C1E0D0E02AE0C701BE010E945A1187
:100990006A307105A0F0153091F0CE01289FE0017A
:1009A000299FD00D11241F5FEFCF813041F09E01B0
:1009B000929FE001939FD00D11248150F6CF80E2E9
:1009C0000E949E04002311F08DE201C080E20E948B
:1009D0009E048AE0C82ED12CB11203C08EE20E9480
:1009E0009E041150C701BE010E945A11CB01B601ED
:1009F0000E945A11805D0E949E04CE01B6010E94A1
:100A00005A11EB01209741F7DF91CF911F910F9180
:100A1000FF90EF90DF90CF90BF900895CF93DF933A
:100A2000FC018491EF012196882321F00E949E040D
:100A3000FE01F7CFDF91CF910895809128018111B8
:100A400006C090912A01809129019817D1F3109244
:100A5000280180912A018F5F80932A018A3010F04B
:100A600010922A01E0912A01F0E0E650FE4F8081C9
:100A7000089580912801811118C020912901909139
:100A80002A01921728F48091290190912A010BC024
:100A90002091290190912A01291740F48091290180
:100AA00090912A01865F891B08958AE008951F921C
:100AB0000F920FB60F9211248F939F93EF93FF9392
:100AC000809129018F5F809329018A3010F0109264
:100AD000290190912A0180912901981305C08091E4
:100AE00028018F5F80932801E09129018091C60041
:100AF000F0E0E650FE4F8083FF91EF919F918F9140
:100B00000F900FBE0F901F901895509309024093BD
:100B10000802882319F060930B0204C084E08093DC
:100B20000B0281E080930A023093050220930402B5
:100B30000895FF920F931F93CF93DF938C01D62FCD
:100B4000C72F20910A028FEF820F823008F05BC01E
:100B50008091040290910502892B09F454C022303F
:100B600019F4E62FF72F01C0F80130910B0230FF86
:100B700020C0809108029091090250910602622FD4
:100B800070E061507109A8E7FA2EF69ED001F79E39
:100B9000B00D1124A50FB11DAA0FBB1FA45FBD4F3F
:100BA0006D917C918617970724F051E08E179F076F
:100BB0000CF050E031FF1DC08091080290910902B5
:100BC0006091060230E02150310978E7729FD00130
:100BD000739FB00D1124A60FB11DAA0FBB1FA45FF8
:100BE000BD4F2D913C91281739071CF0E817F907E4
:100BF00024F0411102C0552331F080910602809308
:100C0000070210920A0290910A029F3F69F18091B7
:100C100006028F5F883718F48093060202C0109294
:100C20000602E0910602911110C02091070230E007
:100C30008E2F90E0CC9668E770E00E946E11281726
:100C4000390719F48FEF80930A02F0E0DF01AA0F51
:100C5000BB1FA45FBD4F0C9311961C93EE0FFF1F9B
:100C6000E450FD4FD083C183DF91CF911F910F914D
:100C7000FF900895CF93DF9382E00E94C502909386
:100C8000F7038093F60381E00E94C502FC01C09146
:100C9000F603D091F703CE0167E87FEF0E946E1153
:100CA000E60FF71FF093F503E093F4031092FB03B4
:100CB0001092FA0380910204813009F0DDC0809126
:100CC0004D018111D9C06091EC037091ED03611564
:100CD000710531F0A091EE03B091EF03109729F464
:100CE0001092F1031092F003CFC0CC382EE0D2075F
:100CF00064F0E539F1054CF484E080934D011092E5
:100D0000F1031092F00341E001C040E0CD01B7FDD6
:100D10000F9624E0959587952A95E1F701968C0F1B
:100D20009D1F9B012E1B3F0B8A179B0794F0809100
:100D30000304853070F48F5F80930304853049F499
:100D400081E0809304046E177F070CF0C9C041E076
:100D500003C06E177F0764F480910304882341F079
:100D6000815080930304811103C01092040441E078
:100D7000809104048823E1F1AC1BBD0B37FD05C055
:100D8000B093FB03A093FA0308C0220F331F2A0F6E
:100D90003B1F3093FB032093FA032091FA03309119
:100DA000FB03C90137FDCF9656E0959587955A9577
:100DB000E1F76091F0037091F103680F791F605CB7
:100DC0007F4F613C7C4650F46091FC037091FD03C1
:100DD000860F971F9093FD038093FC0337FF02C09B
:100DE000215E3F4FB5E035952795BA95E1F739C0BB
:100DF0003093FB032093FA03C90137FD0F96A4E05B
:100E000095958795AA95E1F7A091F003B091F1032C
:100E1000A80FB91FA05CBF4FA13CBC4650F4A091E5
:100E2000FC03B091FD038A0F9B1F9093FD038093F9
:100E3000FC0331976E177F0764F48091FC03909157
:100E4000FD03181619062CF401979093FD03809367
:100E5000FC0337FF02C02D5F3F4F35952795359531
:100E600027958091FC039091FD03280F391F309343
:100E7000F1032093F00309C01092F1031092F003E4
:100E80001092FD031092FC0340E0BE018091F40338
:100E90009091F5030E9499058091F0039091F103E0
:100EA00081382CE692073CF080E89CE69093F103B1
:100EB0008093F00306C097FF04C01092F1031092D4
:100EC000F0038091F0039091F10397FDCF9626E017
:100ED000959587952A95E1F7DF91CF910C945E0463
:100EE00041E04ACFCF92DF92EF92FF92CF93DF9310
:100EF00084E00E94C502EC01D595C795D595C795AC
:100F00009E01DE010E94C91128E437E040E050E074
:100F10000E94A41169017A0124E630E0DE010E94FA
:100F2000E01126EE3EEF4FEF5FEF0E94A411C601E5
:100F3000820F931F9C012D5A3F4F3093F90320934A
:100F4000F80380914D01811196C00E94C5022FE5E2
:100F500035E0DC010E94E011DC01CB012BE0B5950E
:100F6000A795979587952A95D1F79093F30380934A
:100F7000F203BC01675B734081E06D3E724008F490
:100F800080E046E054E065E00E943210882319F0CA
:100F900081E080934D0181E02091F8033091F903C5
:100FA000253431050CF480E047E054E06AE00E940B
:100FB0003210882319F082E080934D018091FA036A
:100FC0009091FB0381509E4F8F3F934000F580919D
:100FD000F0039091F10380389C46CCF44091F603E5
:100FE0005091F703052E000C660B770B8091EE03F2
:100FF0009091EF03092E000CAA0BBB0B845D9E4F52
:10100000AF4FBF4F84179507A607B7072CF481E0B1
:1010100090910204913009F080E045E054E06AE0EC
:101020000E943210882319F086E080934D01809150
:101030000A028E3F01F52091EE033091EF0349E063
:10104000429FC001439F900D11246AE070E00E940E
:101050006E11665F7F4F709309026093080283E010
:1010600080930B0282E080930A0280E590E09093E7
:10107000050280930402DF91CF91FF90EF90DF9003
:10108000CF90089580910804882321F080914D012C
:10109000882319F010920204A9C1809109048111DA
:1010A00079C1E0911004F0911104E03820E7F207D3
:1010B00018F083E080934D01209130043091310489
:1010C0002630310569F480913F049091400490935B
:1010D0002B0480932A0480914104909142046AC1B8
:1010E000233031050CF06CC0E034F84318F084E094
:1010F0008093090440913F0450914004220F331F14
:10110000F901EA5FFE4F80819181489FF001499F7C
:10111000F00D589FF00D1124F0932B04E0932A0456
:101120006091320470913304D901A050BF4F2D91CA
:101130003C91429FC001439F900D529F900D1124FE
:10114000681779077CF02AE0249FC001259F900D45
:1011500011249F01280F391F81E0261737071CF043
:1011600080E001C081E045E154E064E10E9432107A
:10117000882319F085E080934D018091410490917E
:10118000420490932D0480932C049C01B3E0359588
:101190002795BA95E1F781E0409124045091250408
:1011A000241735070CF480E044E154E064E60E9423
:1011B0003210882309F41AC181E08093090416C112
:1011C000C9010397029708F0BCC0CF016CE370E03F
:1011D0000E945A110A9719F481E080930F048CE859
:1011E0009AE090932B0480932A0480913F0490917D
:1011F00040046AE0689FA001699F500D112460912E
:101200001C0470911D046417750734F01816190634
:101210001CF485E0809309044091410450914204FC
:10122000EF31F105E0F49F0173E0369527957A954B
:10123000E1F72F5F3F4F249FC001259F900D349F02
:10124000900D1124969587959695879590932D04EA
:1012500080932C04F0931304E0931204C7C05093BE
:101260002D0440932C048091120490911304AF013B
:10127000481B590B453B510508F4B8C08091180430
:10128000909119042430310569F4853C5FEF95078E
:101290007CF520911A0430911B042817390744F17A
:1012A00082E024C0893D2FEF92075CF420911A045C
:1012B00030911B04281739074CF082E08093090411
:1012C00005C01816190614F480E008C080911A04AD
:1012D00090911B0418161906BCF381E044E154E018
:1012E0006EEF0E943210882319F083E08093090486
:1012F0002091320430913304409126045091270408
:10130000241735077CF0C901841B950B97FD0396C4
:101310009595879595958795840F951F90932704AC
:10132000809326048091260490912704281B390B72
:1013300081E0293F3F4F0CF080E046E154E065EB4F
:1013400036CF2530310519F520913F043091400406
:1013500040EF429FC001439F900D112490932B04B6
:1013600080932A04809141049091420490932D042B
:1013700080932C0481E02091240430912504283CA2
:1013800031050CF080E044E154E068EC10CF10929D
:1013900008042CC080910204882341F1809130041C
:1013A000909131049C01235031092230310538F4E9
:1013B00081E290E090932D0480932C0417C0059750
:1013C00009F068CE86E990E090932D0480932C0478
:1013D00020913F043091400446EE429FC001439F5C
:1013E000900D112490932B0480932A0460912A0479
:1013F00070912B04CB01A0E0B0E0BC01CD012BE04B
:10140000660F771F881F991F2A95D1F72FE535E0C2
:1014100040E050E00E94A4113093ED032093EC03D0
:101420000895289A88E2E8E0F4E0DF011D928A95A9
:10143000E9F781E0809308048091320490913304AD
:1014400090932104809320041092FE031092FF03D6
:10145000109200041092010480913604882331F028
:1014600010923604809130040E94240D10923404AE
:1014700081E08093020408950E94110A10920804EA
:1014800010920204089580913204909133048436BE
:1014900091051CF421E020930E04209108042111F1
:1014A0000FC08039914064F080910E04882341F090
:1014B0008091300490913104069711F00E94110A36
:1014C000809108048823D1F180910E04882351F083
:1014D00080910904882331F080910C048A3011F442
:1014E0000E943C0A8091F8039091F9038A34910597
:1014F00064F08091410490914204833391052CF073
:101500000A9790934204809341048091240490911F
:1015100025049C01220F331F820F931F2091220468
:1015200030912304820F931F97FD0396959587951D
:101530009595879590932304809322040E944208F6
:101540008091090481112DC0809130049091310463
:101550008630910511F0039744F480913204909104
:10156000330490932104809320048091100490917F
:101570001104019690931104809310046091FE036E
:101580007091FF03809100049091010420E83CEFEA
:101590004AE050E00E94821130931D0420931C0405
:1015A000089580910C048A3038F4909108049923AE
:1015B00019F08F5F80930C040895CF93A091F603E8
:1015C000B091F70328EF34E241E050E00E94E711C8
:1015D00020E030EB40E050E00E94A4118091240410
:1015E00090912504BC01660F771F860F971F092E67
:1015F000000CAA0BBB0BBC01CD01620F731F841F33
:10160000951F24E030E040E050E00E94A4113093A8
:10161000250420932404A091F403B091F5032FE551
:1016200035E00E94E011DC01CB01FBE0B595A79508
:1016300097958795FA95D1F7909333048093320468
:1016400083E00E94C50221E935E0DC010E94E0113F
:10165000DC01CB01CCE0B595A79597958795CA9508
:10166000D1F790932F0480932E048091080488234F
:1016700009F49CC080912404909125040797CCF430
:101680008091EE039091EF031816190694F480915F
:10169000300490913104069761F080910F0481111C
:1016A00008C081E0209110043091110425313105EA
:1016B00008F480E047E154E068E20E943210882399
:1016C00049F080910904811103C086E080930904E8
:1016D00010920204C0910F04CC2359F08091300481
:1016E0009091310406972CF41092EF031092EE03C0
:1016F00015C020912C0430912D04A0E0B0EB0E9485
:10170000D11128EF34E241E050E00E94A41130935F
:10171000EF032093EE03CC2309F448C08091F60335
:101720009091F70303970CF041C08091320490919F
:10173000330490932104809320048431954044F431
:1017400080912E0490912F04909321048093200483
:1017500040911804509119042091200430912104E3
:1017600080911E0490911F040097D1F0B901681B6D
:10177000790BEAE0E69FC001E79F900D1124840FEA
:10178000951F97FD019695958795BC01641B750B78
:1017900070931B0460931A049093190480931804A7
:1017A00010920F0430931F0420931E04CF910895CC
:1017B000CF93DF93EC01862F9A8191709A836623F1
:1017C00039F0911102C092E09A839A81916006C02B
:1017D000992311F095E09A839A819E7F9A83AE01B6
:1017E00064E10E944010882319F08A8188608A830E
:1017F000DF91CF910895FC01DA01509146045A70AF
:1018000080819181552329F0AC01421B530B9A0131
:1018100006C0509149045A7021F0280F391F3183B6
:10182000208380819181861797071CF471836083E0
:101830000895A817B90714F4B183A0830895CF932E
:10184000DF936CE370E00E946E119B01EC0143E0BA
:1018500062E0C9010E9409048AE30E94CF0343E0C9
:1018600062E0CE01DF91CF910C94090425E0829FC4
:10187000C00111248F599E4F0C94EF03CF93DF9337
:101880008091300425E0829FC00111248F599E4F22
:101890000E94EF038091410490914204CAE0D0E09D
:1018A000BE010E946E11CB0142E064E00E94090477
:1018B00086E191E00E94EF03809130049091310421
:1018C0008630910559F480913F0490914004BE0107
:1018D0000E946E11CB0141E063E026C08330910588
:1018E00074F440E062E080913F04909140040E94D3
:1018F000090481E191E0DF91CF910C94EF039C0109
:10190000235031092230310528F485E0DF91CF9151
:101910000C94FE03059779F480913F049091400464
:1019200040E063E0880F991F0E94090486E5DF917B
:10193000CF910C94CF03DF91CF9108958091300423
:10194000909131048630910579F487E091E00E940E
:10195000EF0342E064E080913F04909140040E94D4
:10196000090484E091E04EC0833091051CF085307D
:10197000910581F58CEF90E00E94EF0340E061E07B
:1019800080913F04909140040E94090482E00E94EB
:10199000FE03E0913004F0913104EE0FFF1FEA5F87
:1019A000FE4F40913F045091400420813181429F7D
:1019B000C001439F900D529F900D11246AE070E08A
:1019C0000E946E11CB0141E064E00E94090486E5AB
:1019D0000C94CF0303970297B8F484EF90E00E9431
:1019E000EF0380913F049091400442E064E02AE0DC
:1019F000FC012E9FC0012F9F900D11240E9409040D
:101A00008EEE90E00C94EF03089525E0829FC001D4
:101A10001124BC016F5F7F4F45E050E08FE394E0FD
:101A20000E94171390913F0480914104890F909177
:101A30004304891741F0109242041092410410921D
:101A4000400410923F040895CF93C82F682F84E27A
:101A500090E00E943913EFE3F4E092818081890FD6
:101A6000848385E0C89FB00111246F5F7F4F45E0FC
:101A700050E0CF01CF910C942F1384EE90E00E94A0
:101A8000EF038091300425E0829FC00111248F591B
:101A90009E4F0E94EF0383E00C94FE0320914D01C2
:101AA00030E0215031094CE0429FC001439F900D2E
:101AB0001124875E9E4F0E94EF0385E00C94FE0385
:101AC000EF92FF921F93CF93DF9380914C0481FF9D
:101AD00007C081E090913404911180E08093340438
:101AE00080913404882349F022E330E040E757E155
:101AF00060E070E081E494E008C021E030E045E07F
:101B000050E060E070E087E394E00E94FB0B80917E
:101B1000300490914D0191110AC0909109049923CC
:101B200039F090913504992319F087E001C088E0DD
:101B300025E0829FC00111248F599E4F0E94EF0320
:101B400042E064E080912004909121040E94090405
:101B500086E50E94CF0380913404882329F0809188
:101B600041049091420414C080913004909131045A
:101B70000397029748F480912C0490912D046AE019
:101B800070E00E945A1108C08091220490912304B1
:101B90006AE070E00E946E11CB0142E064E00E94B6
:101BA000090480913404882341F08091350488230E
:101BB00021F081E00E94FE0303C081E40E94CF0374
:101BC00081E00E94E80380914D01882359F08091C3
:101BD0003504882339F0DF91CF911F91FF90EF906A
:101BE0000C944E0D80913704909138040097C9F4FD
:101BF00080911004909111046CE370E00E945A11DE
:101C0000CB010E941F0C83E00E94FE0342E065E0CE
:101C100080911C0490911D040E94090481EE90E0C3
:101C200020C08130910521F58CED90E00E94EF03FA
:101C300042E064E08091F2039091F3030E94090472
:101C400089ED90E00E94EF0340E062E08091F803AC
:101C50009091F9030E9409048FED0E94CF0386ED55
:101C600090E0DF91CF911F91FF90EF900C94EF03E4
:101C70008230910509F03FC0A091F403B091F503C3
:101C80002FE535E00E94E011DC01CB013BE0B5958A
:101C9000A795979587953A95D1F742E064E00E9421
:101CA000090486E50E94CF03A091F603B091F703E3
:101CB00028EF34E241E050E00E94E71120E030EBF1
:101CC00040E050E00E94A411DA01C90143E064E061
:101CD0000E94090481E40E94CF038091F003909157
:101CE000F10397FDCF9640E064E026E09595879557
:101CF0002A95E1F719C083309105E9F481ED90E070
:101D00000E94EF0340E063E0809118049091190471
:101D10000E9409048AEC90E00E94EF0340E063E037
:101D200080911A0490911B04DF91CF911F91FF9035
:101D3000EF900C94090484309105C1F543E064E010
:101D400080912B0190912C010E94090486E50E944C
:101D5000CF0381E30E94CF039FE2E92E91E0F92EA9
:101D600010E0C0912B01D0912C01F701819191914C
:101D70007F0120912E01121758F4C81BD90BD7FFF1
:101D800009C08DE20E94CF03D195C195D10905C04C
:101D9000C0E0D0E08BE20E94CF0340E062E0CE01E1
:101DA0000E9409041F5F1330E1F639C00597B9F5A9
:101DB00043E064E080912B0190912C010E94090482
:101DC00086E50E94CF0384E30E94CF0385E3E82EDB
:101DD00081E0F82E13E0C0912B01D0912C01F70186
:101DE000819191917F0120912E01121758F4C81B07
:101DF000D90BD7FF09C08DE20E94CF03D195C195C1
:101E0000D10905C0C0E0D0E08BE20E94CF0340E0E2
:101E100062E0CE010E9409041F5F1630E1F6DF91F7
:101E2000CF911F91FF90EF90089580E00E94E8030A
:101E300080914C0483FF12C0877F80934C041092E2
:101E40004B0410924A0410924D018091080488239B
:101E500019F00E943C0A02C00E94110A80913404C9
:101E6000882399F09091460490FD04C09091490414
:101E700090FF0BC091E090933604209110043091B4
:101E800011043093130420931204909108049111CB
:101E90000C94600D81110AC021E030E043E050E075
:101EA00060E070E089E394E00E94FB0B80914C04B9
:101EB00082FF1DC08091390490913A040097B9F0D7
:101EC00020913404222361F0039751F48091360469
:101ED000882331F0809130040E94050D1092360461
:101EE00081E090913404911180E0809334048091DA
:101EF000390490913A04009719F40E943E0C62C094
:101F00008130910531F580913404882351F022E32A
:101F100030E040E757E160E070E081E494E00E9447
:101F2000FB0B83EC90E00E94EF03809141049091C1
:101F300042046AE070E00E946E11CB0142E063E06F
:101F40000E94090481E40E94CF0385E00E94FE0301
:101F500039C08230910521F5809134048823E9F05D
:101F600080913004909131048630910539F42AE053
:101F700030E044EC59E06AE070E00BC0880F991F34
:101F8000FC01EC5EFE4F4081518121E030E060E0D9
:101F900070E08FE394E00E94FB0B0E949E0C12C045
:101FA000039781F480913404882351F021E030E0DC
:101FB00046E050E060E070E080E394E00E94FB0BBC
:101FC0000E943D0D81E00E94E80380914D0188232D
:101FD00029F08091350481110C944E0D80913404C8
:101FE000882319F082EB90E027C08091390490910A
:101FF0003A04892BA1F48091F2039091F3036AE0F3
:1020000070E00E946E11CB0141E063E00E94090480
:102010008FEA90E00E94EF0384EA90E002C087E933
:1020200090E00E94EF038091390490913A04019767
:10203000029720F482E990E00C94EF0384E00C9482
:10204000FE03181619065CF021E030E0892B11F42C
:1020500020E030E088279927821B930B089581E0C8
:1020600090E00895FA01811101C010828081681703
:1020700018F4108281E008958F5F808380E00895D6
:10208000FA01811102C0118210828081918170E079
:10209000681779072CF001969183808380E008957A
:1020A00081E00895CF93DF93CDB7DEB7A8970FB641
:1020B000F894DEBF0FBECDBF0E94E6009EE088E12F
:1020C0000FB6F894A895809360000FBE90936000BF
:1020D00000E211E0A8950E94E4010E9439058823DE
:1020E00069F10E941D05BE016F5F7F4F0E94540180
:1020F000892B21F1FE013996ADE2B1E0802F0190EC
:102100000D928A95E1F760912E016623B9F0EFE216
:10211000F1E080E090E020E030E070E02617370743
:102120003CF4419151912F5F3F4F840F951FF6CFA3
:102130000E946E1170932C0160932B018091F60127
:102140009091F701A091F801B091F90140915201ED
:102150005091530160915401709155018417950776
:10216000A607B70708F466C00E94DD0A8091020442
:102170008130E1F48091240490912504092E000C13
:10218000AA0BBB0B4091FE035091FF03609100042A
:1021900070910104840F951FA61FB71F8093FE0343
:1021A0009093FF03A0930004B093010466B165FB14
:1021B000662760F9612784E494E00E94D80B69B136
:1021C00062FB662760F961278AE494E00E94D80BDD
:1021D00069B163FB662760F9612787E494E00E9498
:1021E000D80B80910C0480FF06C0909108049923BD
:1021F00011F0289A01C0289890914D01992329F057
:10220000803F18F48F5F80930C040E94150F80911B
:10221000520190915301A0915401B0915501C29681
:10222000A11DB11D8093520190935301A0935401BD
:10223000B093550180914E0190914F01A0915001B2
:10224000B09151014091F6015091F7016091F80170
:102250007091F901481759076A077B0708F43ACFCC
:1022600088519C4FAF4FBF4F80934E0190934F01C9
:10227000A0935001B093510181E0909135049111E8
:1022800080E08093350480910204813011F40E9433
:1022900039020E94430A0E9472071CCF991B79E001
:1022A00004C0991F961708F0961B881F7A95C9F7E6
:1022B00080950895AA1BBB1B51E107C0AA1FBB1F35
:1022C000A617B70710F0A61BB70B881F991F5A95C2
:1022D000A9F780959095BC01CD01089597FB072E35
:1022E00016F4009407D077FD09D00E945A1107FC1C
:1022F00005D03EF4909581959F4F08957095619516
:102300007F4F0895A1E21A2EAA1BBB1BFD010DC031
:10231000AA1FBB1FEE1FFF1FA217B307E407F50795
:1023200020F0A21BB30BE40BF50B661F771F881F71
:10233000991F1A9469F760957095809590959B0107
:10234000AC01BD01CF010895052E97FB1EF400944A
:102350000E94BB1157FD07D00E94821107FC03D0D9
:102360004EF40C94BB1150954095309521953F4FFC
:102370004F4F5F4F089590958095709561957F4F71
:102380008F4F9F4F0895EE0FFF1F0590F491E02DA2
:1023900009940E94D111332312F48A1B9B0B0C94D5
:1023A000E211A29FB001B39FC001A39F700D811DD8
:1023B0001124911DB29F700D811D1124911D08954E
:1023C0000E94D111B7FF0895821B930B0895B7FFA8
:1023D0000C94EF110E94EF11821B930B08950E9441
:1023E000D111A59F900DB49F900DA49F800D911DBC
:1023F00011240895A0E0B0E0E0E0F2E10C9457135E
:102400005C016B017A016115710519F0FB01918383
:102410008083E114F10429F0C7010297839708F043
:10242000F1C0E5012196F5011081812F90E00E9415
:102430000B13892B11F05E01F4CF1D3229F4219684
:10244000F501118101E007C01B3221F4E50122965C
:10245000F501118100E0E114F10459F1F0E1EF160A
:10246000F10461F41033E1F488818F7D883569F5DA
:1024700019812296026070E1E72EF12C88E0E816BF
:10248000F10439F12CF4F2E0EF16F104C9F12AC09D
:102490008AE0E816F10479F0E0E1EE16F10411F5B6
:1024A00050E1E52EF12C812C912CA12C68E0B62E68
:1024B0002CC01033C9F23AE0E32EF12C4CEC842E00
:1024C000982CA82C4CE0B42E20C010E3E114F104A9
:1024D000A9F698E0E92EF12C812C912CA12C20E179
:1024E000B22E13C060E070E080E090E897010F2CFE
:1024F000000C440B550B0E94821149015A0105C082
:10250000812C912CA12C80E4B82E60E020E030E0FA
:10251000A90127010F2C000C660877081E01E0EDC9
:10252000E10FEA3060F08FEB810F8A3110F4E9ECB3
:1025300005C08FE9810F8A3128F5E9EAE10F8E2F76
:1025400090E08E159F05F4F467FD18C0821693067F
:10255000A406B50690F0C301B2010E9447139B0187
:10256000AC012E0F311D411D511D2130310541059A
:10257000F0E85F0710F461E001C06FEF2196F10110
:102580001081CCCF802F8170C114D10471F06623EB
:1025900029F02197F601D183C08307C001FF19C03C
:1025A0002297F601D183C08314C067FF12C0811146
:1025B00005C02FEF3FEF4FEF5FE704C020E030E0B2
:1025C00040E050E882E290E090934E0480934D0406
:1025D00016C0882341F050954095309521953F4F86
:1025E0004F4F5F4F0CC057FF0AC082E290E09093BC
:1025F0004E0480934D042FEF3FEF4FEF5FE7B9019B
:10260000CA0104C060E070E080E090E0CDB7DEB7C2
:10261000E2E10C94731391110C941413803219F0AD
:1026200089508550C8F70895992788270895DC01B7
:10263000CB01FC01F999FECF06C0F2BDE1BDF89ACD
:10264000319600B40D9241505040B8F70895F99971
:10265000FECF92BD81BDF89A992780B50895DC011F
:10266000CB0103C02D910E943A1341505040D0F746
:102670000895262FF999FECF1FBA92BD81BD20BDC6
:102680000FB6F894FA9AF99A0FBE01960895DB01F5
:102690008F939F930E94EF11BF91AF91A29F800DE6
:1026A000911DA39F900DB29F900D112408952F921C
:1026B0003F924F925F926F927F928F929F92AF92D2
:1026C000BF92CF92DF92EF92FF920F931F93CF931F
:1026D000DF93CDB7DEB7CA1BDB0B0FB6F894DEBFB6
:1026E0000FBECDBF09942A88398848885F846E84DC
:1026F0007D848C849B84AA84B984C884DF80EE8026
:10270000FD800C811B81AA81B981CE0FD11D0FB62E
:10271000F894DEBF0FBECDBFED010895F894FFCF52
:1027200018011801C800A401AE01680100000000F2
:10273000F0000000060006000700AC26AC260600EC
:02274000C409CA
:00000001FF
