:100000000C94BB000C94D8000C94D8000C94D8002D
:100010000C94D8000C94D8000C94D8000C94D80000
:100020000C94D8000C94D8000C94D8000C94D800F0
:100030000C94D8000C94D8000C94D8000C94D800E0
:100040000C94DA000C94D8000C9409060C94D80097
:100050000C94D8000C9488030C94D8000C94D8000D
:100060000C94D8000C94D80056657273696F6E3A80
:10007000002020204D41582D4C616465723136209E
:1000800020004C69506F004C694665004E694D6810
:10009000004E694361005042202000554920200055
:1000A000454E4445004552522000202020205569ED
:1000B0006E202020200054656D7065726174757229
:1000C0002000204C6164657A6569742020004B75BE
:1000D000727A7363686C7573730020205A656C6C58
:1000E000656E20202000202057616E646C657220B0
:1000F0002000202D3E2000203C2D20202045696E30
:1001000073742E00537461727420202D3E200020E1
:10011000202D202020204F4B202020202B2020008D
:100120005374726F6D3D0020647574743D00647586
:10013000743D0043200056200055696E3D00416823
:100140000050726F6772616D6D3D00416820202024
:10015000004D61782043203D005A656C6C656E3D12
:10016000005620005370616E6E756E673D005A65D3
:100170006C6C0041200011241FBECFEFD4E0DEBF25
:10018000CDBF11E0A0E0B1E0EAEAF3E202C00590E1
:100190000D92AC30B107D9F712E0ACE0B1E001C08C
:1001A0001D92AC34B107E1F70E944B020C94D311BD
:1001B0000C9400001F920F920FB60F9211248F9390
:1001C0009F93AF93BF9385E086BD8091DC019091B2
:1001D000DD01A091DE01B091DF010496A11DB11DEA
:1001E0008093DC019093DD01A093DE01B093DF01E9
:1001F000BF91AF919F918F910F900FBE0F901F9065
:10020000189580910D0290910E0265E040E00E94E9
:10021000460580912F029091300264E042E00E94F6
:100220004605809121029091220264E043E00E9401
:1002300046058091190290911A0264E042E00E9402
:100240004605809115029091160260E040E00E9400
:100250004605809117029091180260E040E00E94EC
:1002600046058091F0019091F10164E042E00E9426
:1002700046058091F6019091F70163E040E00E940D
:10028000460580911D0290911E0264E042E00E94AA
:1002900046058DE00E943E058AE00E943E050895D5
:1002A0000F931F93CF93DF93982FEB0188818330B7
:1002B00021F1843028F48130B1F08230C8F40BC0D1
:1002C000853071F1853000F1863009F452C08730F5
:1002D00009F070C069C09A3009F06DC081E0888370
:1002E00019821A8268C0953F09F064C082E05AC042
:1002F0009C3009F05FC083E055C0992309F45AC0CF
:1003000084E08883988757C0992309F453C085E017
:1003100088839053998791509E3008F44CC04AC00E
:10032000992309F447C08981FB01E80FF11D9383EC
:1003300014828F5F89838430F0F18A81082F10E066
:10034000CB01039660E070E040E150E00E9469104C
:100350000B5F1F4F000F111F0C0F1D1FF801718342
:1003600060838A818F5F8A8319829985891718F142
:1003700017C09923F9F08981FB01E80FF11D9383E0
:1003800014828F5F89838430B0F0CB01039660E0E4
:1003900070E040E150E00E9469107FA36EA31982D3
:1003A00088818F5F888307C018829D3021F42FEFEA
:1003B0003FEF03C0188220E030E0C901DF91CF9108
:1003C0001F910F910895209A8FEC8093C400109292
:1003D000C50082E08093C00088E98093C1000E943C
:1003E00079041092DC011092DD011092DE0110926E
:1003F000DF0185E086BD80916E00816080936E0094
:1004000084E085BD10927C008EED80937A0081EBB4
:100410008093800089E0809381002A98229A7894C2
:10042000459A5A9A5B9A0E94F50A289A80E00E949F
:100430008B0481E790E00E94930481E00E948B048A
:1004400088E690E00E9493048FE090E062E041E053
:100450000E94AC0468EE73E080E090E00E94220508
:10046000289868EE73E080E090E00E9422058EE11B
:1004700090E00E94B01190E090932E0280932D02A4
:10048000069724F010922E0210922D0280912D02D8
:100490000E94580E0895CF92DF92EF92FF920F9331
:1004A0001F93DF93CF93CDB7DEB7A8970FB6F8941D
:1004B000DEBF0FBECDBF0E94E3012EE088E190E0D9
:1004C0000FB6F894A895809360000FBE209360004B
:1004D0006E010894C11CD11CE9E0EE2EF12CEC0E4B
:1004E000FD1E01E010E0A8950E94E805882369F14F
:1004F0000E94CA05B6010E945001892B31F1A3E187
:10050000B1E0F70180E201900D928150E1F7609136
:1005100014016623D1F0E5E1F1E040E050E0262F40
:1005200030E0220F331F2E0F3F1F04C081919191A5
:10053000480F591FE217F307C9F7CA0170E00E947C
:10054000191070931201609311012091DC01309118
:10055000DD014091DE015091DF01809138019091E1
:100560003901A0913A01B0913B01281739074A0798
:100570005B0708F474C00E94A907809102028130D1
:10058000E1F48091210290912202AA2797FDA09583
:10059000BA2F2091FE013091FF014091000250914D
:1005A0000102820F931FA41FB51F8093FE01909339
:1005B000FF01A0930002B093010266B170E035E044
:1005C000769567953A95E1F760277127617081E428
:1005D00092E00E94800F69B170E0769567957695FC
:1005E000679560277127617087E492E00E94800F11
:1005F00069B170E093E0769567959A95E1F7602789
:100600007127617084E492E00E94800F909109024A
:1006100090FF06C080910502882311F0289A01C03E
:10062000289880913301882329F0903F18F49F5F28
:10063000909309020E94760E8091380190913901C1
:10064000A0913A01B0913B01C296A11DB11D8093CA
:10065000380190933901A0933A01B0933B01209166
:10066000340130913501409136015091370180912C
:10067000DC019091DD01A091DE01B091DF018217D4
:100680009307A407B50708F42ECF28513C4F4F4FCE
:100690005F4F2093340130933501409336015093DE
:1006A000370190E080913202882309F491E0909321
:1006B000320280910202813011F40E9401010E94F5
:1006C000FC0A0E9439060FCF90E025E0880F991FA1
:1006D0002A95E1F7FC01E45CFE4F20E030E040E0C9
:1006E00050E0BC01645A7E4F81919191A0E0B0E04E
:1006F000280F391F4A1F5B1FE617F707A9F782E08B
:1007000056954795379527958A95D1F7C90108954C
:100710001F920F920FB60F9211242F933F934F9376
:100720005F936F937F938F939F93AF93BF93EF9359
:10073000FF9380910D01A0910C0140917800909160
:100740007900E82FF0E054E0EE0FFF1F5A95E1F733
:10075000EA0FF11DEE0FFF1FE45CFE4F392F20E082
:1007600050E0242B352B318320838F5F65E00E947E
:10077000F90F90930D0180917C00807E892B8093EE
:100780007C0080917A00806480937A00992361F4E0
:100790008A2F8F5F8F7080930C0190E08370907030
:1007A000892B11F40E94D506FF91EF91BF91AF9173
:1007B0009F918F917F916F915F914F913F912F9179
:1007C0000F900FBE0F901F901895239A249A259A88
:1007D0008AB18F708AB98BB1806F8BB908952B98CD
:1007E0008AB18F708AB98BB1806F8BB92C9A2D9A90
:1007F000000000000000000000000000000019C020
:1008000080E090E080FD02C02D9801C02D9A00008C
:1008100000000000000000000000000000000000D8
:1008200000000000000000000000019684309105E7
:1008300049F74F99E5CF2D9808950F931F93182FDF
:10084000062F0E94EF03113011F42B9A01C02B9850
:100850002C982D9A8AB1806F8AB98BB1902F907F96
:100860008F70982B9BB90000000000000000000072
:100870000000000000000000000000000000000078
:1008800000002D98000000000000000000000000A3
:100890000000000000000000000000000000000058
:1008A0002D9A8BB10295007F8F70802B8BB9000041
:1008B0000000000000000000000000000000000038
:1008C000000000000000000000002D988AB18F7029
:1008D0008AB98BB1806F8BB91F910F910895682FE2
:1008E00081E00E941D040895682F80E00E941D048D
:1008F00008950E94E50388E20E94740481E00E944A
:10090000740486E00E9474048CE00E94740482E007
:100910000E94740408958295880F880F807C8068F7
:100920000E9474040895CF93DF93EC0102C00E94EB
:100930006F04FE01219684918823C9F7DF91CF913E
:1009400008951F93182F04C080E20E946F04115075
:100950001123D1F71F910895DF92EF92FF920F9329
:100960001F93CF93DF938C01F62ED42E97FD02C0F8
:10097000EE2408C0109501951F4F8DE20E946F0470
:10098000EE24E3942F2DC1E0D0E00BC0CE01880F00
:10099000991F33E0CC0FDD1F3A95E1F7C80FD91F3F
:1009A0002150223098F7DF1419F48EE20E946F0470
:1009B000FA94C801BE010E940510CB016AE070E004
:1009C0000E940510882331F4DF1420F4EE2021F476
:1009D00080E203C0EE24E394805D0E946F04CE01A8
:1009E0006AE070E00E940510EB0161157105D9F60F
:1009F000DF91CF911F910F91FF90EF90DF900895BD
:100A00009C018F3F910589F084F0229A219A8FEF03
:100A100080938800C90121E0833B920714F082EBA8
:100A200091E08F5F80938A00089510928A001816D3
:100A3000190624F02198109288000895219A809335
:100A4000880008959B01AC018091DC019091DD014B
:100A5000A091DE01B091DF01280F391F4A1F5B1FF3
:100A60008091DC019091DD01A091DE01B091DF0168
:100A7000281739074A075B0798F70895982F809140
:100A8000C00085FFFCCF9093C6000895CF93DF93FD
:100A9000EC0197FD02C0F0E004C0D095C195DF4F96
:100AA000F1E0662321F0562F21E030E024C021E060
:100AB00030E0E1E00BC0C901880F991FA3E0220FCD
:100AC000331FAA95E1F7280F391FEF5FCE01B90157
:100AD0000E9405106A30710588F0E53061F70EC09C
:100AE000C901880F991F73E0220F331F7A95E1F730
:100AF000280F391F5150523098F7E62F8091C000CF
:100B000085FFFCCF80E28093C600FF2331F0809107
:100B1000C00085FFFCCF8DE205C08091C00085FF3D
:100B2000FCCF80E28093C600FEE24E1731F4809144
:100B3000C00085FFFCCFF093C6008091C00085FF08
:100B4000FCCFCE01B9010E940510CB016AE070E034
:100B50000E940510805D8093C600C9016AE070E0C4
:100B60000E9405109B016115710511F0E150DDCF68
:100B7000DF91CF9108959C0106C08091C00085FF50
:100B8000FCCF9093C600F9012F5F3F4F94919923BA
:100B9000A1F7089580911001882331F490910E01FE
:100BA00080910F019817D1F31092100180910E01DE
:100BB0008F5F80930E0180910E018A3010F01092A9
:100BC0000E01E0910E01F0E0E052FE4F80810895A9
:100BD00080911001882311F09AE019C090910F01C3
:100BE00080910E01891728F490910F0180910E01D8
:100BF0000DC090910F0180910E01981710F090E0B8
:100C000006C090910F0180910E01965F981B892F6D
:100C100008951F920F920FB60F9211248F939F93F6
:100C2000EF93FF9380910F018F5F80930F0180916D
:100C30000F018A3010F010920F0190910E018091F7
:100C40000F01981729F4809110018F5F8093100194
:100C5000E0910F018091C600F0E0E052FE4F8083EA
:100C6000FF91EF919F918F910F900FBE0F901F906A
:100C70001895AF92BF92CF92DF92EF92FF920F93AF
:100C80001F9384E00E9464037C01F594E794F5943B
:100C9000E7940027F7FC0095102FC801B701A801C1
:100CA00097010E94DA0F28E437E040E050E00E940C
:100CB0004E1059016A01C801B70124E630E040E056
:100CC00050E00E94DA0F26EE3EEF4FEF5FEF0E94FA
:100CD0004E10A20EB31E83E590E0A80EB91EB0928E
:100CE000F701A092F60180913301882309F054C0E6
:100CF0000E946403AA2797FDA095BA2FBC01CD01DD
:100D00002FE535E040E050E00E94DA0F2BE09595AA
:100D10008795779567952A95D1F77093F101609340
:100D2000F001695E73406B5B724018F081E0809364
:100D3000330120E08091F6019091F701853491050F
:100D40000CF021E0822F6AE044E052E00E94B80FEC
:100D5000882319F082E0809333018091FC01909107
:100D6000FD0181509F4F8F5F914048F420E030E0BB
:100D70008091EE019091EF018054964314F021E0B0
:100D800030E0822F6AE043E052E00E94B80F8823EF
:100D900019F086E0809333011F910F91FF90EF903F
:100DA000DF90CF90BF90AF900895EF92FF920F9396
:100DB0001F93CF93DF9382E00E9464039093F50129
:100DC0008093F40181E00E946403EC01E090F4015F
:100DD000F090F501C70167E87FEF0E941910C60F78
:100DE000D71FD093F301C093F2011092FD0110922E
:100DF000FC0180910202813009F080C080913301B2
:100E0000882309F07BC00091EA011091EB010115E4
:100E1000110509F473C0E091EC01F091ED013097F8
:100E200009F46CC02CE8E2162EE0F20654F0C53945
:100E3000D1053CF484E0809333011092EF011092CD
:100E4000EE01CF0160E170E00E9419109B012F5F5D
:100E50003F4FC90162E070E00E9419106E0D7F1DC6
:100E60006E177F077CF0C017D10764F4EE19FF09F5
:100E7000C90164E070E00E941910CF01861B970B36
:100E8000B90112C098012C1B3D0B3093FD0120933A
:100E9000FC011216130674F4C8016CEB72E00E9498
:100EA00019106F5F7F4FC9010E9419107093FD01E7
:100EB0006093FC012091FC013091FD01213431054A
:100EC0003CF08091EE019091EF01805C9F4F11C04A
:100ED0008FEF203C38073CF48091EE019091EF01B8
:100EE0008054904006C08091EE019091EF01820FF6
:100EF000931F9093EF018093EE0104C01092EF01D5
:100F00001092EE018091EE019091EF0126E3813481
:100F100092073CF080E496E39093EF018093EE011A
:100F200006C097FF04C01092EF011092EE0180916D
:100F3000EE019091EF0160E270E00E941910CB0188
:100F40000E940005DF91CF911F910F91FF90EF90CC
:100F500008951F93CF93DF936091F4017091F50191
:100F6000882777FD8095982F28EF34E241E050E004
:100F70000E94DA0F20E030EB40E050E00E944E107B
:100F800030932202209321026091F2017091F301CB
:100F9000882777FD8095982F2FE535E040E050E0D9
:100FA0000E94DA0FFBE09595879577956795FA95FE
:100FB000D1F77093300260932F0283E00E946403A4
:100FC000AA2797FDA095BA2FBC01CD0121E935E0F4
:100FD00040E050E00E94DA0FECE095958795779518
:100FE0006795EA95D1F770932C0260932B0280915C
:100FF0000502882309F4A9C0809121029091220260
:101000000797ECF48091EC019091ED011816190608
:10101000B4F480912D0290912E02059781F0809179
:101020000C02882361F420E080910D0290910E0261
:101030000B9708F421E081E02827822F02C080E08E
:1010400090E064E144E152E00E94B80F882349F047
:1010500080910602882319F486E08093060210929C
:10106000020210910C02112359F080912D029091EF
:101070002E0205972CF41092ED011092EC0119C08C
:101080006091290270912A0280E090E020E030EB2C
:1010900040E050E00E94DA0F28EF34E241E050E0F7
:1010A0000E944E103093ED012093EC01112309F4BE
:1010B0004CC08091F4019091F50103970CF045C06C
:1010C00080912F029091300290931E0280931D0216
:1010D0008451954044F480912B0290912C0290937E
:1010E0001E0280931D02E0911502F0911602C0913C
:1010F0001D02D0911E0280911B0290911C0200974C
:10110000F1F09E01281B390BC90153E0880F991F8C
:101110005A95E1F7220F331F820F931F8E0F9F1FE7
:1011200062E070E00E9419109B012E1B3F0B309370
:101130001802209317027093160260931502109202
:101140000C02D0931C02C0931B02DF91CF911F9120
:101150000895CF93DF9380910502882309F4FAC1A3
:1011600080913301882309F0F5C18091060288231C
:1011700009F0C1C1E0910D02F0910E0220E7E038C4
:10118000F20718F083E080933301C0912D02D091D3
:101190002E02C530D10569F480913C0290913D0248
:1011A000909328028093270280913E0290913F0203
:1011B000B0C12097E9F5E053FA4218F084E080933B
:1011C000060240913C0250913D0284EA91E0FC010C
:1011D0004E9FC0014F9F900D5E9F900D11249093E4
:1011E00028028093270260912F027091300288E1DB
:1011F00091E09C01429FC001439F900D529F900D32
:101200001124681779077CF020E030E08EEA91E045
:10121000FC014E9FC0014F9F900D5E9F900D1124C9
:101220008617970714F421E030E0822F64E140C074
:10123000C130D10509F05EC0E053FA4218F084E0F5
:101240008093060240913C0250913D0288E691E075
:10125000FC014E9FC0014F9F900D5E9F900D112489
:10126000909328028093270260912F0270913002A0
:1012700088EC90E09C01429FC001439F900D529FDB
:10128000900D1124681779077CF020E030E082E7A8
:1012900091E0FC014E9FC0014F9F900D5E9F900D0D
:1012A00011248617970714F421E030E0822F60E5BF
:1012B00042E152E00E94B80F882319F085E0809344
:1012C000330180913E0290913F0290932A028093D5
:1012D000290240E0E3E095958795EA95E1F72091B2
:1012E000210230912202821793070CF041E0842FF3
:1012F00064E6F4C0CE010297029708F0C8C0CF019F
:101300006CE370E00E9405100A9719F481E0809365
:101310000C028CE89AE09093280280932702409177
:101320003C0250913D02CA01880F991F9A0163E067
:10133000220F331F6A95E1F7820F931F2091190244
:1013400030911A022817390734F0141615061CF4C8
:1013500085E080930602EF31F10500F5CF0123E02F
:10136000969587952A95E1F7019620913E02309156
:101370003F02AC01429FC001439F900D529F900DD0
:101380001124969587959695879590932A02809338
:101390002902F0931002E0930F02DEC080913E021A
:1013A00090913F0290932A028093290280910F022C
:1013B00090911002E81BF90BE53BF10508F4CCC055
:1013C000239789F420911502309116025FEF253C96
:1013D0003507ACF580911702909118028217930798
:1013E00074F182E02AC020911502309116028FEF2D
:1013F000293D38075CF480911702909118028217FA
:1014000093073CF082E08093060203C01216130695
:1014100054F08091170290911802181619061CF0CA
:1014200081E090E002C080E090E06EEF41E152E0A8
:101430000E94B80F882319F083E080930602E091A0
:101440002F02F09130022091230230912402E21702
:10145000F3076CF0CF01821B930B64E070E00E94F5
:101460001910260F371F309324022093230220E007
:101470008091230290912402E81BF90BE95FFF4F52
:101480000CF421E0822F65EB43E152E029C0249760
:1014900079F520913C0230913D0280EF90E0AC0163
:1014A000249FC001259F900D349F900D112490938F
:1014B00028028093270280913E0290913F029093F0
:1014C0002A028093290220E0809121029091220239
:1014D000883C91050CF421E0822F68EC41E152E058
:1014E0000E94B80F8823C1F181E08093060234C0C6
:1014F0001092050231C080910202882369F1209187
:101500002D0230912E02C9010297029738F481E230
:1015100090E090932A02809329021EC02430310566
:10152000C9F486E990E090932A02809329022091E1
:101530003C0230913D0286EE90E0FC012E9FC001FE
:101540002F9F900D3E9F900D112490932802809321
:10155000270202C0109202026091270270912802B5
:1015600080E090E0ABE0660F771F881F991FAA9577
:10157000D1F72FE535E040E050E00E944E10309367
:10158000EB012093EA01DF91CF910895289A88E238
:10159000E5E0F2E0DF011D928A95E9F781E08093B2
:1015A000050210921C0210921B0280912F02909152
:1015B000300290931E0280931D021092FE01109241
:1015C000FF011092000210920102809133028823E1
:1015D00031F01092330280912D020E94390E109248
:1015E000310281E08093020208950E94C60A10929F
:1015F000050210920202089520912F0230913002CC
:10160000243631051CF481E080930B0280910502A1
:10161000882379F42059314064F080910B028823AB
:1016200041F080912D0290912E02059711F00E94B9
:10163000C60A80910502882349F180910B02882314
:1016400051F080910602882331F0809109028A309E
:1016500011F40E94F50A8091F6019091F7018A3405
:10166000910564F080913E0290913F028333910591
:101670002CF00A9790933F0280933E0280912102C2
:10168000909122029093200280931F020E94A90849
:1016900080910602882379F580912D0290912E0287
:1016A0008530910521F0009711F0019741F4809168
:1016B0002F029091300290931E0280931D02809120
:1016C0000D0290910E02019690930E0280930D02EE
:1016D0006091FE017091FF018091000290910102E2
:1016E00020E83CEF4AE050E00E942C1030931A02B0
:1016F000209319020895909109029A3038F480914C
:101700000502882319F09F5F909309020895FC0158
:10171000809143028A7029F080819181821B930B12
:1017200008C0809146028A7031F080819181820FD9
:10173000931F9183808380819181861797071CF482
:101740007183608308954817590714F451834083C7
:10175000089595E0899FC00111248E579F4F0E94E4
:10176000930408950F931F938C016CE370E00E9423
:101770001910CB0162E043E00E94AC048AE30E94AE
:101780006F04C8016CE370E00E94191062E043E04E
:101790000E94AC041F910F910895809133012CE0B9
:1017A000829FC001112482569F4F0E94930485E0BE
:1017B0000E94A1040895FF920F931F93CF93DF938C
:1017C0008091490281FF08C090E080913102882316
:1017D00009F491E09093310280913102882349F01D
:1017E0008EE392E060E070E040E757E122E330E012
:1017F00008C084E392E060E070E045E050E021E062
:1018000030E00E94870B90912D0280913301882354
:1018100011F097E008C080910602882321F08091A2
:101820003202811196E0892F0E94A90B80911D023E
:1018300090911E0264E042E00E94AC0486E50E94A2
:101840006F0480913102882329F080913E029091AB
:101850003F0214C080912D0290912E0202970297B0
:1018600048F48091290290912A026AE070E00E9477
:10187000051008C080911F02909120026AE070E07C
:101880000E941910CB0164E042E00E94AC048091F8
:101890003102882341F080913202882321F081E0D7
:1018A0000E94A10403C081E40E946F0481E00E94B1
:1018B0008B0480913301882339F080913202882390
:1018C00019F00E94CD0B1FC1809134029091350216
:1018D0000097C9F480910D0290910E026CE370E0C4
:1018E0000E940510CB010E94B20B83E00E94A1046C
:1018F0008091190290911A0265E042E00E94AC04C6
:101900008EE391E020C08130910501F589E391E0FB
:101910000E9493048091F0019091F10164E042E013
:101920000E94AC0486E391E00E9493048091F6014A
:101930009091F70162E040E00E94AC048FED0E94BC
:101940006F0483E391E00E949304DDC0823091052F
:1019500009F046C06091F2017091F301882777FD8C
:101960008095982F2FE535E040E050E00E94DA0F97
:10197000DC01CB012BE0B595A795979587952A9526
:10198000D1F764E042E00E94AC0486E50E946F0457
:101990006091F4017091F501882777FD8095982F6B
:1019A00028EF34E241E050E00E94DA0F20E030EB13
:1019B00040E050E00E944E10DA01C90164E043E0CB
:1019C0000E94AC0481E40E946F048091EE0190912A
:1019D000EF0160E270E00E941910CB0164E018C0D2
:1019E00083309105C9F48EE291E00E9493048091C6
:1019F00015029091160263E040E00E94AC0487E279
:101A000091E00E949304809117029091180263E084
:101A100040E00E94AC0477C084309105C9F5809104
:101A200011019091120164E043E00E94AC0486E54C
:101A30000E946F0481E30E946F0405E111E0FF241E
:101A40004091110150911201F80120813181809162
:101A50001401F81660F4EA01C21BD30BD7FF09C0CA
:101A60008DE20E946F04D095C195DF4F05C0C0E0A4
:101A7000D0E08BE20E946F04CE0162E040E00E9461
:101A8000AC04F3940E5F1F4FF3E0FF16C9F63BC0A2
:101A90000597C9F5809111019091120164E043E02E
:101AA0000E94AC0486E50E946F0484E30E946F04E8
:101AB0000BE111E083E0F82E4091110150911201E9
:101AC000F8012081318180911401F81660F4EA0157
:101AD000C21BD30BD7FF09C08DE20E946F04D095C3
:101AE000C195DF4F05C0C0E0D0E08BE20E946F04DB
:101AF000CE0162E040E00E94AC04F3940E5F1F4F01
:101B0000F6E0FF16C9F6DF91CF911F910F91FF907C
:101B1000089581E491E00E94930480912D020E9437
:101B2000A90B83E00E94A104089580912D02909159
:101B30002E028530910589F484E691E00E94930499
:101B400080913C0290913D0264E042E00E94AC042E
:101B500081E691E00E9493040895009731F084306B
:101B6000910519F08130910581F489E591E00E9499
:101B7000930480913C0290913D0261E040E00E941C
:101B8000AC0488E00E94A104089502970297D0F463
:101B900081E591E00E94930480913C0290913D0286
:101BA0009C0153E0220F331F5A95E1F7880F991FCC
:101BB000820F931F64E042E00E94AC048BE491E04A
:101BC0000E949304089580912D020E94A90B809198
:101BD0003E0290913F026AE070E00E941910CB0132
:101BE00064E042E00E94AC0483E791E00E94930429
:101BF00020912D0230912E022530310589F48091FB
:101C00003C0290913D026AE070E00E941910CB0105
:101C100063E041E00E94AC0486E50E946F040895F1
:101C20002230310568F480913C0290913D0262E0DF
:101C300040E00E94AC048EE691E00E949304089577
:101C4000C9010297029720F485E00E94A10408953B
:101C50002430310569F480913C0290913D02880F57
:101C6000991F63E040E00E94AC0486E50E946F0487
:101C700008950F931F93082F8EE190E0602F0E942C
:101C8000C211ECE3F2E080913E029081890F8093D3
:101C9000400285E0089F8001112400501040CF01D0
:101CA000B80145E050E00E94B8111F910F910895CE
:101CB00095E0899FB0011124605070408CE392E060
:101CC00045E050E00E94A01180913C0290913E02BC
:101CD000890F90914002891741F010923F021092B3
:101CE0003E0210923D0210923C02089580E00E9454
:101CF0008B048091490283FF12C0877F8093490241
:101D0000109248021092470210923301809105020E
:101D1000882319F00E94F50A02C00E94C60A209189
:101D20003102222399F08091430280FD04C080910A
:101D3000460280FF0BC081E08093330280910D0248
:101D400090910E029093100280930F0280910502F1
:101D5000882319F00E94DB0B0895222351F486E3B7
:101D600092E060E070E043E050E021E030E00E946B
:101D7000870B8091490282FF20C02091360230916A
:101D8000370221153105C9F080913102882369F0AD
:101D90002330310551F480913302882331F0809152
:101DA0002D020E94580E1092330290E08091310271
:101DB000882309F491E0909331028091360290914A
:101DC0003702009719F40E94E30D65C08130910538
:101DD00031F580913102882351F08EE392E060E08A
:101DE00070E040E757E122E330E00E94870B80E299
:101DF00091E00E94930480913E0290913F026AE03C
:101E000070E00E941910CB0163E042E00E94AC0434
:101E100081E40E946F0485E00E94A1043CC08230EE
:101E2000910539F580913102882301F1E0912D026D
:101E3000F0912E02E530F10559F440910A015091DC
:101E40000B018CE392E06AE070E02AE030E00CC025
:101E5000EE0FFF1FE050FF4F408151818CE392E075
:101E600060E070E021E030E00E94870B0E94950D59
:101E700012C0039781F480913102882351F08DE2E2
:101E800092E060E070E045E050E021E030E00E9448
:101E9000870B0E94890D81E00E948B0480913301A1
:101EA000882339F080913202882319F00E94CD0BEB
:101EB000089580913102882319F08FE091E019C0D4
:101EC0008091360290913702892B31F486E00E948E
:101ED000A10484E091E002C087EF90E00E949304A7
:101EE00080913602909137020197029728F482EF91
:101EF00090E00E949304089584E00E94A104089554
:101F0000CF93DF93EC012A8121702A83822F90E006
:101F1000662349F081709070892B11F422602A8326
:101F20008A81816008C081709070892B11F085E0F2
:101F30008A838A818E7F8A83862F64E1AE010E9424
:101F4000C60F882319F08A8188608A83DF91CF9138
:101F50000895181619061CF421E030E007C0892BFB
:101F600019F420E030E002C02FEF3FEFC9010895DF
:101F7000FA01882309F410828081681718F410820E
:101F800081E008958F5F808380E00895FA018823BF
:101F900011F41182108220813181862F90E0821706
:101FA000930714F481E008952F5F3F4F318320831E
:101FB00080E00895629FD001739FF001829FE00D41
:101FC000F11D649FE00DF11D929FF00D839FF00DB8
:101FD000749FF00D659FF00D9927729FB00DE11D64
:101FE000F91F639FB00DE11DF91FBD01CF01112441
:101FF0000895991B79E004C0991F961708F0961B65
:10200000881F7A95C9F780950895AA1BBB1B51E1DB
:1020100007C0AA1FBB1FA617B70710F0A61BB70B58
:10202000881F991F5A95A9F780959095BC01CD01FD
:10203000089597FB092E07260AD077FD04D0E5DF27
:1020400006D000201AF4709561957F4F0895F6F739
:10205000909581959F4F0895A1E21A2EAA1BBB1B54
:10206000FD010DC0AA1FBB1FEE1FFF1FA217B30764
:10207000E407F50720F0A21BB30BE40BF50B661F7A
:10208000771F881F991F1A9469F76095709580953E
:1020900090959B01AC01BD01CF01089597FB092EDE
:1020A00005260ED057FD04D0D7DF0AD0001C38F427
:1020B00050954095309521953F4F4F4F5F4F089574
:1020C000F6F790958095709561957F4F8F4F9F4F54
:1020D00008952F923F925F926F927F928F929F927C
:1020E000AF92BF92CF92DF92EF92FF920F931F9326
:1020F000CF93DF938C011B01EA016115710519F083
:10210000FB0191838083209749F0CE01029783974A
:1021100028F020E030E040E050E0F6C0F801A19067
:102120008F018A2D90E00E949811892BB9F7FDE26A
:10213000AF1631F4F801A1908F015524539407C0D4
:10214000FBE2AF1619F4F801A1908F0155242097F6
:1021500019F0C031D105C1F4F0E3AF1679F4F801FC
:102160008081883711F0883549F4F801A1800E5F2D
:102170001F4FF2E05F2AC0E1D0E006C0209721F4B3
:1021800080E3A816E9F427C0C830D10531F1C93081
:10219000D10524F4C230D10531F50CC0CA30D105C7
:1021A00089F0C031D105F9F4C12CD12CE12CB8E073
:1021B000FB2E28C0C12CD12CE12CA0E4FA2E22C089
:1021C000CAE0D0E0FCECCF2EFCECDF2EFCECEF2ED6
:1021D000FCE0FF2E17C0C8E0D0E0C12CD12CE12CD0
:1021E000E0E1FE2E0FC09E01442737FD4095542F9D
:1021F00060E070E080E090E80E942C10C901DA01F4
:102200006C017D0120E030E040E050E060E03E0104
:10221000882477FC8094982C70EDB72EBA0CE9E0F6
:10222000EB1570F48A2D81548A3118F499ECB92E8B
:1022300006C08A2D81568A3150F589EAB82EBA0C2B
:102240008B2D90E08C179D0714F56F3FE1F0C216BF
:10225000D306E406F506B0F0CA01B901A401930162
:102260000E94DA0F9B01AC012B0D311D411D511D48
:102270002130F0E03F07F0E04F07F0E85F0710F48F
:1022800061E001C06FEFF801A1908F01C5CF21146B
:10229000310481F0662331F001501040F1011183C7
:1022A000008308C051FE1AC002501040F101118392
:1022B000008314C067FF12C050FC05C02FEF3FEF32
:1022C0004FEF5FE704C020E030E040E050E882E2FA
:1022D00090E090934B0280934A0216C050FE08C0D3
:1022E00050954095309521953F4F4F4F5F4F0CC013
:1022F00057FF0AC082E290E090934B0280934A021B
:102300002FEF3FEF4FEF5FE7B901CA01DF91CF91A8
:102310001F910F91FF90EF90DF90CF90BF90AF9003
:102320009F908F907F906F905F903F902F90089537
:10233000911136C0803219F089508550D0F7089538
:10234000DC01CB01FC01F999FECF06C0F2BDE1BD75
:10235000F89A319600B40D9241505040B8F7089564
:10236000F999FECF92BD81BDF89A992780B508955D
:10237000DC01CB0103C02D910E94C311415050409C
:10238000D0F70895262FF999FECF1FBA92BD81BDCF
:1023900020BD0FB6F894FA9AF99A0FBE01960895E7
:0A23A000992788270895F894FFCFCD
:0C23AA0006000700AC26AC260600C409A3
:00000001FF
