:100000000C94C7000C94E4000C94E4000C94E400FD
:100010000C94E4000C94E4000C94E4000C94E400D0
:100020000C94E4000C94E4000C94E4000C94E400C0
:100030000C94E4000C94E4000C94E4000C94E400B0
:100040000C949E020C94E4000C9457050C94E4006C
:100050000C94E4000C94E6020C94E4000C94E4008C
:100060000C94E4000C94E40065016D0172017701C9
:100070007E018B01B401D00156657273696F6E3ACF
:10008000002020204D41582D4C616465723136208E
:100090002000202D3E2000203C2D20202045696E90
:1000A00073742E00537461727420202D3E2000560C
:1000B000200020202D202020204F4B202020202BEE
:1000C0002020005374726F6D3D0020647574743D80
:1000D000006475743D0043200056200055696E3D54
:1000E0000041680050726F6772616D6D3D0041683C
:1000F000202020004D61782043203D005A656C6C23
:10010000656E3D005620005370616E6E756E673DE2
:10011000005A656C6C004120002020202055696E3B
:10012000202020200054656D706572617475722006
:1001300000204C6164657A6569742020004B7572FB
:100140007A7363686C7573730020205A656C6C65F4
:100150006E20202000202057616E646C6572202084
:10016000004C69506F004C694876004C6946650048
:100170004E694D68004E6943610050422020005591
:1001800049202000454E444500455252200011248C
:100190001FBECFEFD4E0DEBFCDBF11E0A0E0B1E0E5
:1001A000E4E3F6E202C005900D92A232B107D9F75E
:1001B00024E0A2E2B1E001C01D92A135B207E1F74F
:1001C0000E94DC0F0C9418130C940000209A8FEC02
:1001D0008093C4001092C50082E08093C00088E93B
:1001E0008093C1008EEF80930A02109206020E9453
:1001F000D7031092F6011092F7011092F8011092B5
:10020000F90185E086BD80916E00816080936E006B
:1002100084E085BD10927C008EED80937A0081EBA6
:100220008093800089E0809381002A98229A7894B4
:10023000459A5A9A5B9A0E94F009289A80E00E9497
:10024000E80381E890E00E94EF0381E00E94E80368
:1002500088E790E00E94EF0341E062E081E190E0F6
:100260000E94090468EE73E080E090E00E947E0442
:10027000289868EE73E080E090E00E947E0484E2BB
:1002800090E00E94B11290E0873091052CF4909399
:1002900033048093320404C0109233041092320469
:1002A000809132040C948F0C0F931F93CF93DF93A4
:1002B000EB01E8814E2F50E04830510508F07CC03A
:1002C000FA01EC5CFF4F0C944D118A3009F075C0B7
:1002D00081E0888319821A8270C0853F09F06CC062
:1002E00082E05CC08C3009F067C083E057C088238F
:1002F00009F462C094E0988388875FC0882309F47A
:100300005BC095E0988390ED980F998781538E306C
:1003100008F052C052C0882309F44EC09981FB01F5
:10032000E90FF11D8383148281E0890F8983843072
:1003300008F443C00A8110E040E150E060E070E062
:10034000CE0103960E948411F8013596EE0FFF1F2F
:10035000EC0FFD1F718360838A818F5F8A8319820E
:100360009985891750F118C0882331F19981FB01D3
:10037000E90FF11D8383148281E0890F8983843022
:10038000E0F040E150E060E070E0CE0103960E94B2
:1003900084117FA36EA3198288818F5F88830DC02B
:1003A000188221E030E08D3011F020E030E0882725
:1003B0009927821B930B03C0188280E090E0DF91A5
:1003C000CF911F910F91089580910A028F3FD9F428
:1003D0008091240190912501892BA9F4809122011B
:1003E00090912301892B79F48FEF0E949E048FEA6C
:1003F0000E949E048FEB0E949E0481E090E0909307
:100400002301809322018091220190912301892B65
:10041000B9F08091240190912501883E21E0920756
:1004200078F4FC01EC5FFD4F80810E949E04809176
:100430002401909125010196909325018093240138
:100440008091240190912501883E914089F480910A
:10045000220190912301019759F4109223011092E7
:1004600022018EEF80930A0210922501109224013E
:1004700008958091220190912301892B09F05DC09C
:1004800040E065E080911204909113040E94A5045D
:1004900042E064E080913404909135040E94A50408
:1004A00043E064E080912604909127040E94A50413
:1004B00042E064E080911E0490911F040E94A50414
:1004C00040E060E080911A0490911B040E94A50412
:1004D00040E060E080911C0490911D040E94A504FE
:1004E0008091F0039091F10397FD0F9640E060E05A
:1004F00024E0959587952A95E1F70E94A50442E0AE
:1005000064E08091F2039091F3030E94A50440E01F
:1005100060E08091F8039091F9030E94A50442E005
:1005200064E080912204909123040E94A5048DE050
:100530000E949E048AE00C949E0408951F920F92DC
:100540000FB60F9211248F939F93AF93BF9385E0C3
:1005500086BD8091F6019091F701A091F801B091CC
:10056000F9010496A11DB11D8093F6019093F70146
:10057000A093F801B093F901BF91AF919F918F9132
:100580000F900FBE0F901F90189590E2899FB001B9
:10059000112420E030E080E090E0DC01F901E60F7A
:1005A000F71FEA5AFE4F40815181840F951FA11D0C
:1005B000B11D2E5F3F4F2032310581F722E0B69505
:1005C000A795979587952A95D1F708951F920F9231
:1005D0000FB60F9211242F933F934F935F936F9316
:1005E0007F938F939F93AF93BF93EF93FF938091EC
:1005F000260120917800909179003091270140E107
:10060000849FF0011124E30FF11DEE0FFF1FEA5A42
:10061000FE4F30E0392B318320838F5F65E00E94ED
:10062000D8109093260180917C00807E982B909327
:100630007C0080917A00806480937A00809126010A
:1006400081110BC0809127018F5F982F9F7090932D
:100650002701837011F40E944906FF91EF91BF9129
:10066000AF919F918F917F916F915F914F913F914A
:100670002F910F900FBE0F901F901895239A249AD8
:10068000259A8AB18F708AB98BB1806F8BB9089522
:100690002B988AB18F708AB98BB1806F8BB92C9AE5
:1006A0002D9A000000000000000000000000000083
:1006B0004F9B16C080E080FD15C02D980000000003
:1006C000000000000000000000000000000000002A
:1006D00000000000000000008F5F843061F7E8CF69
:1006E0002D9808952D9AEACFCF93DF9300D0CDB700
:1006F000DEB76A8389830E94480389816A818130D9
:1007000011F42B9A01C02B982C982D9A8AB1806FE6
:100710008AB98BB1962F907F8F70892B8BB900008F
:1007200000000000000000000000000000000000C9
:10073000000000000000000000002D9800000000F4
:1007400000000000000000000000000000000000A9
:1007500000000000000000002D9A8BB190E1699F1D
:10076000B00111248F70682B6BB9000000000000ED
:100770000000000000000000000000000000000079
:100780000000000000002D988AB18F708AB98BB1EB
:10079000806F8BB90F900F90DF91CF910895682FE4
:1007A00081E00C947403682F80E00C9474030E9421
:1007B0003E0388E20E94D30381E00E94D30386E0D7
:1007C0000E94D3038CE00E94D30382E00C94D303F5
:1007D0008295880F880F807C80680C94D303CF9318
:1007E000DF93FC018491EF012196882321F00E9480
:1007F000CF03FE01F7CFDF91CF910895CF93C82F9C
:10080000CC2329F080E20E94CF03C150F9CFCF91D1
:100810000895BF92CF92DF92EF92FF920F931F93B2
:10082000CF93DF937C01162FB42E97FF08C0F1946D
:10083000E194F1088DE20E94CF0301E001C000E0E5
:10084000812FC1E0D0E09AE0823040F09E01929F7B
:10085000E001939FD00D11248150F6CF8AE0C82E7D
:10086000D12CB11203C08EE20E94CF031150C701F8
:10087000BE010E94E410CB01B6010E94E410009773
:1008800041F4B11630F4011104C080E20E94CF039C
:1008900004C0805D0E94CF0301E0CE01B6010E943A
:1008A000E410EB012097E9F6DF91CF911F910F91B2
:1008B000FF90EF90DF90CF90BF9008958F3F91050C
:1008C00081F07CF0229A219A2FEF20938800833BBD
:1008D00021E0920714F082EB91E08F5F80938A0011
:1008E000089510928A001816190624F02198109283
:1008F00088000895219A8093880008950F931F938C
:100900000091F6011091F7012091F8013091F90161
:10091000DC01CB01800F911FA21FB31F0091F601D4
:100920001091F7012091F8013091F901801791079A
:10093000A207B30798F71F910F9108959091C000F7
:1009400095FFFCCF8093C6000895BF92CF92DF92AF
:10095000EF92FF920F931F93CF93DF937C01162F9B
:10096000B42E97FF05C0F194E194F10801E001C0B5
:1009700000E0112329F0812FC1E0D0E09AE015C0FA
:1009800011E0C1E0D0E02AE0C701BE010E94E410FE
:100990006A307105A0F0153091F0CE01289FE0017A
:1009A000299FD00D11241F5FEFCF813041F09E01B0
:1009B000929FE001939FD00D11248150F6CF80E2E9
:1009C0000E949E04002311F08DE201C080E20E948B
:1009D0009E048AE0C82ED12CB11203C08EE20E9480
:1009E0009E041150C701BE010E94E410CB01B60164
:1009F0000E94E410805D0E949E04CE01B6010E9418
:100A0000E410EB01209741F7DF91CF911F910F91F7
:100A1000FF90EF90DF90CF90BF900895CF93DF933A
:100A2000FC018491EF012196882321F00E949E040D
:100A3000FE01F7CFDF91CF910895809128018111B8
:100A400006C090912A01809129019817D1F3109244
:100A5000280180912A018F5F80932A018A3010F04B
:100A600010922A01E0912A01F0E0E650FE4F8081C9
:100A7000089580912801811118C020912901909139
:100A80002A01921728F48091290190912A010BC024
:100A90002091290190912A01291740F48091290180
:100AA00090912A01865F891B08958AE008951F921C
:100AB0000F920FB60F9211248F939F93EF93FF9392
:100AC000809129018F5F809329018A3010F0109264
:100AD000290190912A0180912901981305C08091E4
:100AE00028018F5F80932801E09129018091C60041
:100AF000F0E0E650FE4F8083FF91EF919F918F9140
:100B00000F900FBE0F901F901895509309024093BD
:100B10000802882319F060930B0204C084E08093DC
:100B20000B0281E0109205021092040280930A02E7
:100B30000895EF92FF920F931F93CF93DF93D82FD7
:100B4000192F362FC72FE0910A028FEF8E0F8230B8
:100B500008F063C08091040290910502892B09F48A
:100B60005CC0E23011F08D2F01C0862F90910B02F6
:100B700090FF23C06091080270910902F091060273
:100B8000EE2EF12CA1E0EA1AF10808E70E9DD00143
:100B90000F9DB00D1124AF0FB11DAA0FBB1FA45F95
:100BA000BD4F0D90BC91A02D6A177B0734F0A82F84
:100BB000B0E001E06A177B070CF000E091FF21C074
:100BC0006091080270910902F0900602F0E03197FE
:100BD000A8E7EA2EEE9ED001EF9EB00D1124FD0194
:100BE000EF0DF11DEE0FFF1FE45FFD4F0190F0814F
:100BF000E02DE617F7072CF0E82FF0E0E617F707EF
:100C000034F0943011F4211102C0002331F08091AE
:100C100006028093070210920A0250930502409345
:100C2000040290910A029F3F69F1809106028F5F52
:100C3000883718F48093060202C010920602E091F1
:100C40000602911110C0E0900702F12C8E2F90E067
:100C5000CC9668E770E00E94F810E816F90619F4DF
:100C60008FEF80930A02F0E0DF01AA0FBB1FA45FA1
:100C7000BD4FDC9311961C93EE0FFF1FE450FD4F08
:100C80003083C183DF91CF911F910F91FF90EF903F
:100C90000895CF93DF9382E00E94C5029093F703FB
:100CA0008093F60381E00E94C5029C01E091F60367
:100CB000F091F703CF0167E87FEF0E94F810C901B8
:100CC000860F971F9093F5038093F4031092FF0310
:100CD0001092FE0320910604213009F0A2C0209159
:100CE0004D0121119EC02091EC033091ED0321159F
:100CF000310539F04091EE035091EF034115510554
:100D000029F41092F1031092F00393C0EC386EE0D6
:100D1000F60754F0853991053CF464E060934D0189
:100D20001092F1031092F003BA0157FF02C0615F05
:100D30007F4FDB01C4E0B595A795CA95E1F7119601
:100D4000AE0FBF1F6091F0037091F103C0910004DA
:100D5000D0910104A417B50764F1D90111978A173E
:100D60009B073CF54E1B5F0B5093FF034093FE0324
:100D700057FF02C0415F5F4FB4E055954795BA9564
:100D8000E1F7640F751F605F7F4F61337B4130F483
:100D9000C40FD51FD0930104C09300042091000418
:100DA00030910104420F531F5093F1034093F0031D
:100DB00040C0281B390B3093FF032093FE03A90189
:100DC00037FF02C0495F5F4FA3E055954795AA954D
:100DD000E1F7640F751F605F7F4F61337B4180F4E3
:100DE000A9014750510957FDA90163E05595479561
:100DF0006A95E1F7C40FD51FD0930104C093000496
:100E000037FF02C02F5F3F4F359527954091000473
:100E100050910104240F351F3093F1032093F00308
:100E200008C01092F1031092F00310920104109286
:100E3000000420E040E550E0BF010E949905809148
:100E4000F0039091F10381326BE196073CF080E270
:100E50009BE19093F1038093F00306C097FF04C0D9
:100E60001092F1031092F0038091F0039091F1033E
:100E700097FD0F9624E0959587952A95E1F7DF91E8
:100E8000CF910C945E04CF92DF92EF92FF92CF93BA
:100E9000DF9384E00E94C502EC01D595C795D595F6
:100EA000C7959E01DE010E94531128E437E040E01F
:100EB00050E00E942E1169017A0124E630E0DE0143
:100EC0000E946A1126EE3EEF4FEF5FEF0E942E1157
:100ED000C601820F931F9C012D5A3F4F3093F90397
:100EE0002093F80380914D01811179C00E94C502C1
:100EF0002FE535E0DC010E946A11DC01CB012BE01B
:100F0000B595A795979587952A95D1F79093F30373
:100F10008093F203BC01675B734081E06D3E7240D9
:100F200008F480E048E054E065E00E94BC0F8823AC
:100F300019F081E080934D0181E02091F803309118
:100F4000F903253431050CF480E049E054E06AE00F
:100F50000E94BC0F882319F082E080934D0180919C
:100F6000FE039091FF0381589F4F8F3F910550F4EE
:100F700081E02091F0033091F10320323B411CF4D9
:100F800080E001C081E047E054E06AE00E94BC0FCD
:100F9000882319F086E080934D0180910A028E3FEC
:100FA000F1F42091EE033091EF0349E0429FC0013C
:100FB000439F900D11246AE070E00E94F810665F74
:100FC0007F4F709309026093080283E080930B02C5
:100FD000109205021092040282E080930A02DF91CF
:100FE000CF91FF90EF90DF90CF90089580910A0409
:100FF000882321F080914D01882319F01092060476
:10100000A9C180910B04811179C1E0911204F09182
:101010001304E03820E7F20718F083E080934D01D5
:1010200020913204309133042630310569F48091E7
:1010300041049091420490932D0480932C0480915C
:101040004304909144046AC1233031050CF06CC014
:10105000E033FA4218F084E080930B04409141049D
:1010600050914204220F331FF901EA5FFE4F808145
:101070009181489FF001499FF00D589FF00D112478
:10108000F0932D04E0932C046091340470913504A6
:10109000D901A050BF4F2D913C91429FC001439F69
:1010A000900D529F900D1124681779077CF02AE06B
:1010B000249FC001259F900D11249F01280F391FE7
:1010C00081E0261737071CF080E001C081E047E18E
:1010D00054E064E10E94BC0F882319F085E08093FE
:1010E0004D01809143049091440490932F04809388
:1010F0002E049C01B3E035952795BA95E1F781E080
:101100004091260450912704241735070CF480E001
:1011100046E154E064E60E94BC0F882309F41AC13A
:1011200081E080930B0416C1C9010397029708F070
:10113000BCC0CF016CE370E00E94E4100A9719F480
:1011400081E0809311048CE89AE090932D048093C1
:101150002C0480914104909142046AE0689FA001B0
:10116000699F500D112460911E0470911F04641733
:10117000750734F0181619061CF485E080930B04EB
:101180004091430450914404EF31F105E0F49F0194
:1011900073E0369527957A95E1F72F5F3F4F249FAF
:1011A000C001259F900D349F900D11249695879531
:1011B0009695879590932F0480932E04F0931504B1
:1011C000E0931404C7C050932F0440932E048091E1
:1011D000140490911504AF01481B590B453B510570
:1011E00008F4B8C080911A0490911B042430310592
:1011F00069F4853C5FEF95077CF520911C043091E4
:101200001D042817390744F182E024C0893D2FEFDF
:1012100092075CF420911C0430911D0428173907B3
:101220004CF082E080930B0405C01816190614F4E4
:1012300080E008C080911C0490911D0418161906C6
:10124000BCF381E046E154E06EEF0E94BC0F8823BE
:1012500019F083E080930B0420913404309135041D
:101260004091280450912904241735077CF0C901C6
:10127000841B950B97FD0396959587959595879576
:10128000840F951F9093290480932804809128044B
:1012900090912904281B390B81E0293F3F4F0CF026
:1012A00080E048E154E065EB36CF2530310519F593
:1012B000209141043091420440EF429FC001439F7E
:1012C000900D112490932D0480932C04809143045D
:1012D0009091440490932F0480932E0481E02091F8
:1012E000260430912704283C31050CF080E046E1CB
:1012F00054E068EC10CF10920A042CC080910604D0
:10130000882341F180913204909133049C01235051
:1013100031092230310538F481E290E090932F04B6
:1013200080932E0417C0059709F068CE86E990E0F7
:1013300090932F0480932E04209141043091420415
:1013400046EE429FC001439F900D112490932D04BF
:1013500080932C0460912C0470912D04CB01A0E0AB
:10136000B0E0BC01CD012BE0660F771F881F991FED
:101370002A95D1F72FE535E040E050E00E942E118C
:101380003093ED032093EC030895289A88E2EAE075
:10139000F4E0DF011D928A95E9F781E080930A0469
:1013A0008091340490913504909323048093220417
:1013B0001092020410920304109204041092050487
:1013C00080913804882331F01092380480913204DF
:1013D0000E94AE0C1092360481E0809306040895BA
:1013E0000E94C50910920A04109206040895809183
:1013F000340490913504843691051CF421E0209347
:10140000100420910A0421110FC08039914064F02A
:1014100080911004882341F080913204909133042C
:10142000069711F00E94C50980910A04882349F1AA
:1014300080911004882351F080910B04882331F0AF
:1014400080910E048A3011F40E94F0098091F80313
:101450009091F9038A34910564F08091430490914E
:101460004404833391052CF00A97909344048093AD
:10147000430480912604909127049093250480933F
:1014800024040E94F60780910B0481112DC08091E5
:101490003204909133048630910511F0039744F49F
:1014A0008091340490913504909323048093220416
:1014B00080911204909113040196909313048093E9
:1014C00012046091020470910304809104049091CD
:1014D000050420E83CEF4AE050E00E940C113093F4
:1014E0001F0420931E04089580910E048A3038F45E
:1014F00090910A04992319F08F5F80930E04089548
:10150000CF93A091F603B091F70328EF34E241E0C6
:1015100050E00E94711120E030EB40E050E00E946A
:101520002E113093270420932604A091F403B09148
:10153000F5032FE535E00E946A11DC01CB017BE069
:10154000B595A795979587957A95D1F7909335049A
:101550008093340483E00E94C50221E935E0DC0178
:101560000E946A11DC01CB01ECE0B595A795979537
:101570008795EA95D1F79093310480933004809158
:101580000A04882309F49CC08091260490912704C2
:101590000797CCF48091EE039091EF03181619068B
:1015A00094F48091320490913304069761F0809115
:1015B0001104811108C081E02091120430911304BC
:1015C0002B30310508F480E049E154E064E10E94E9
:1015D000BC0F882349F080910B04811103C086E081
:1015E00080930B0410920604C0911104CC2359F08F
:1015F000809132049091330406972CF41092EF03FB
:101600001092EE0315C020912E0430912F04A0E01B
:10161000B0EB0E945B1128EF34E241E050E00E9401
:101620002E113093EF032093EE03CC2309F448C02E
:101630008091F6039091F70303970CF041C08091DD
:1016400034049091350490932304809322048431D0
:10165000954044F480913004909131049093230498
:101660008093220440911A0450911B04209122047B
:101670003091230480912004909121040097D1F0AF
:10168000B901681B790BEAE0E69FC001E79F900D66
:101690001124840F951F97FD019695958795BC01A0
:1016A000641B750B70931D0460931C0490931B04C2
:1016B00080931A0410921104309321042093200483
:1016C000CF910895CF93DF93EC01862F9A8191708B
:1016D0009A83662339F0911102C092E09A839A812D
:1016E000916006C0992311F095E09A839A819E7FBC
:1016F0009A83AE0164E10E94CA0F882319F08A819F
:1017000088608A83DF91CF910895FC01DA015091BE
:1017100048045A7080819181552329F0AC01421B05
:10172000530B9A0106C050914B045A7021F0280FB8
:10173000391F3183208380819181861797071CF49C
:10174000718360830895A817B90714F4B183A08347
:101750000895CF93DF936CE370E00E94F8109B0133
:10176000EC0143E062E0C9010E9409048AE30E949F
:10177000CF0343E062E0CE01DF91CF910C940904E6
:1017800025E0829FC00111248F599E4F0C94EF03D6
:10179000CF93DF938091320425E0829FC001112412
:1017A0008F599E4F0E94EF0380914304909144040F
:1017B000CAE0D0E0BE010E94F810CB0142E064E034
:1017C0000E94090486E191E00E94EF0380913204B7
:1017D000909133048630910559F4809141049091A1
:1017E0004204BE010E94F810CB0141E063E026C034
:1017F0008330910574F440E062E08091410490915F
:1018000042040E94090481E191E0DF91CF910C94A0
:10181000EF039C01235031092230310528F485E083
:10182000DF91CF910C94FE03059779F480914104E8
:101830009091420440E063E0880F991F0E940904E0
:1018400086E5DF91CF910C94CF03DF91CF9108957E
:1018500080913204909133048630910579F487E0C9
:1018600091E00E94EF0342E064E080914104909196
:1018700042040E94090484E091E04EC08330910547
:101880001CF08530910581F58CEF90E00E94EF030C
:1018900040E061E080914104909142040E9409047B
:1018A00082E00E94FE03E0913204F0913304EE0FD7
:1018B000FF1FEA5FFE4F4091410450914204208196
:1018C0003181429FC001439F900D529F900D112482
:1018D0006AE070E00E94F810CB0141E064E00E94F1
:1018E000090486E50C94CF0303970297B8F484EFBC
:1018F00090E00E94EF03809141049091420442E005
:1019000064E02AE0FC012E9FC0012F9F900D11245E
:101910000E9409048EEE90E00C94EF03089525E0F8
:10192000829FC0011124BC016F5F7F4F45E050E0F2
:1019300081E494E00E94A1129091410480914304BB
:10194000890F90914504891741F010924404109238
:10195000430410924204109241040895CF93C82F7B
:10196000682F84E290E00E94C312E1E4F4E09281E7
:101970008081890F848385E0C89FB00111246F5F47
:101980007F4F45E050E0CF01CF910C94B91284EE27
:1019900090E00E94EF038091320425E0829FC00115
:1019A00011248F599E4F0E94EF0383E00C94FE0395
:1019B00020914D0130E0215031094CE0429FC0019F
:1019C000439F900D1124875E9E4F0E94EF0385E098
:1019D0000C94FE03EF92FF921F93CF93DF938091BD
:1019E0004E0481FF07C081E090913604911180E0A0
:1019F0008093360480913604882349F022E330E056
:101A000040E757E160E070E083E494E008C021E043
:101A100030E045E050E060E070E089E394E00E944F
:101A2000850B8091320490914D0191110AC09091E3
:101A30000B04992339F090913704992319F087E02A
:101A400001C088E025E0829FC00111248F599E4F7C
:101A50000E94EF0342E064E080912204909123040D
:101A60000E94090486E50E94CF03809136048823F2
:101A700029F0809143049091440414C08091320471
:101A8000909133040397029748F480912E0490912B
:101A90002F046AE070E00E94E41008C080912404E2
:101AA000909125046AE070E00E94F810CB0142E0BA
:101AB00064E00E94090480913604882341F08091FB
:101AC0003704882321F081E00E94FE0303C081E4F3
:101AD0000E94CF0381E00E94E80380914D0188239A
:101AE00059F080913704882339F0DF91CF911F910D
:101AF000FF90EF900C94D80C8091390490913A04A7
:101B00000097C9F480911204909113046CE370E083
:101B10000E94E410CB010E94A90B83E00E94FE0307
:101B200042E065E080911E0490911F040E94090428
:101B300081EE90E020C08130910521F58CED90E0A0
:101B40000E94EF0342E064E08091F2039091F3037E
:101B50000E94090489ED90E00E94EF0340E062E0FA
:101B60008091F8039091F9030E9409048FED0E947F
:101B7000CF0386ED90E0DF91CF911F91FF90EF9022
:101B80000C94EF038230910509F03FC0A091F4035B
:101B9000B091F5032FE535E00E946A11DC01CB011D
:101BA0003BE0B595A795979587953A95D1F742E093
:101BB00064E00E94090486E50E94CF03A091F60329
:101BC000B091F70328EF34E241E050E00E94711138
:101BD00020E030EB40E050E00E942E11DA01C90114
:101BE00043E064E00E94090481E40E94CF038091F5
:101BF000F0039091F10397FD0F9640E064E024E03C
:101C0000959587952A95E1F719C083309105E9F4F8
:101C100081ED90E00E94EF0340E063E080911A04C0
:101C200090911B040E9409048AEC90E00E94EF034B
:101C300040E063E080911C0490911D04DF91CF91FE
:101C40001F91FF90EF900C94090484309105C1F529
:101C500043E064E080912B0190912C010E940904E3
:101C600086E50E94CF0381E30E94CF039FE2E92E25
:101C700091E0F92E10E0C0912B01D0912C01F701D9
:101C8000819191917F0120912E01121758F4C81B68
:101C9000D90BD7FF09C08DE20E94CF03D195C19522
:101CA000D10905C0C0E0D0E08BE20E94CF0340E044
:101CB00062E0CE010E9409041F5F1330E1F639C0D3
:101CC0000597B9F543E064E080912B0190912C01D8
:101CD0000E94090486E50E94CF0384E30E94CF039B
:101CE00085E3E82E81E0F82E13E0C0912B01D0911E
:101CF0002C01F701819191917F0120912E01121702
:101D000058F4C81BD90BD7FF09C08DE20E94CF033E
:101D1000D195C195D10905C0C0E0D0E08BE20E9409
:101D2000CF0340E062E0CE010E9409041F5F16303D
:101D3000E1F6DF91CF911F91FF90EF90089580E041
:101D40000E94E80380914E0483FF12C0877F809336
:101D50004E0410924D0410924C0410924D0180914B
:101D60000A04882319F00E94F00902C00E94C509E4
:101D700080913604882399F09091480490FD04C026
:101D800090914B0490FF0BC091E090933804209108
:101D9000120430911304309315042093140490918D
:101DA0000A0491110C94EA0C81110AC021E030E080
:101DB00043E050E060E070E08BE394E00E94850B2C
:101DC00080914E0482FF1DC080913B0490913C04A1
:101DD0000097B9F020913604222361F0039751F463
:101DE00080913804882331F0809132040E948F0C56
:101DF0001092380481E090913604911180E0809334
:101E0000360480913B0490913C04009719F40E94A1
:101E1000C80B62C08130910531F58091360488236A
:101E200051F022E330E040E757E160E070E083E406
:101E300094E00E94850B83EC90E00E94EF03809178
:101E40004304909144046AE070E00E94F810CB01D2
:101E500042E063E00E94090481E40E94CF0385E030
:101E60000E94FE0339C08230910521F5809136042D
:101E70008823E9F0809132049091330486309105F3
:101E800039F42AE030E044EC59E06AE070E00BC03D
:101E9000880F991FFC01EC5EFE4F4081518121E0CB
:101EA00030E060E070E081E494E00E94850B0E94E5
:101EB000280C12C0039781F480913604882351F0D6
:101EC00021E030E046E050E060E070E082E394E042
:101ED0000E94850B0E94C70C81E00E94E80380915C
:101EE0004D01882329F08091370481110C94D80C7E
:101EF00080913604882319F082EB90E027C080910E
:101F00003B0490913C04892BA1F48091F2039091C1
:101F1000F3036AE070E00E94F810CB0141E063E057
:101F20000E9409048FEA90E00E94EF0384EA90E0A7
:101F300002C087E990E00E94EF0380913B049091FA
:101F40003C040197029720F482E990E00C94EF039F
:101F500084E00C94FE03181619065CF021E030E0D2
:101F6000892B11F420E030E088279927821B930BFE
:101F7000089581E090E00895FA01811101C0108276
:101F80008081681718F4108281E008958F5F808344
:101F900080E00895FA01811102C0118210828081CF
:101FA000918170E0681779072CF001969183808306
:101FB00080E0089581E00895CF93DF93CDB7DEB739
:101FC000A8970FB6F894DEBF0FBECDBF0E94E60003
:101FD0009EE088E10FB6F894A895809360000FBE4C
:101FE0009093600000E211E0A8950E94E4010E9435
:101FF0003905882369F10E941D05BE016F5F7F4F7F
:102000000E945401892B21F1FE013996ADE2B1E025
:10201000802F01900D928A95E1F760912E01662341
:10202000B9F0EFE2F1E080E090E020E030E070E035
:10203000261737073CF4419151912F5F3F4F840F92
:10204000951FF6CF0E94F81070932C0160932B011E
:102050008091F6019091F701A091F801B091F901FA
:10206000409152015091530160915401709155017A
:1020700084179507A607B70708F466C00E94800A70
:10208000809106048130E1F4809126049091270428
:10209000092E000CAA0BBB0B4091020450910304C3
:1020A0006091040470910504840F951FA61FB71F4B
:1020B0008093020490930304A0930404B093050456
:1020C00066B165FB662760F9612786E494E00E94AB
:1020D000620B69B162FB662760F961278CE494E0CA
:1020E0000E94620B69B163FB662760F9612789E48E
:1020F00094E00E94620B80910E0480FF06C09091D4
:102100000A04992311F0289A01C0289890914D0152
:10211000992329F0803F18F48F5F80930E040E946A
:102120009F0E8091520190915301A0915401B09162
:102130005501C296A11DB11D809352019093530188
:10214000A0935401B093550180914E0190914F019D
:10215000A0915001B09151014091F6015091F701C9
:102160006091F8017091F901481759076A077B07D8
:1021700008F43ACF88519C4FAF4FBF4F80934E0128
:1021800090934F01A0935001B093510181E0909141
:102190003704911180E080933704809106048130E8
:1021A00011F40E9439020E94F7090E9443071CCFD4
:1021B000991B79E004C0991F961708F0961B881F99
:1021C0007A95C9F780950895AA1BBB1B51E107C0FA
:1021D000AA1FBB1FA617B70710F0A61BB70B881FB7
:1021E000991F5A95A9F780959095BC01CD01089546
:1021F00097FB072E16F4009407D077FD09D00E94B4
:10220000E41007FC05D03EF4909581959F4F08950A
:10221000709561957F4F0895A1E21A2EAA1BBB1BF2
:10222000FD010DC0AA1FBB1FEE1FFF1FA217B307A2
:10223000E407F50720F0A21BB30BE40BF50B661FB8
:10224000771F881F991F1A9469F76095709580957C
:1022500090959B01AC01BD01CF010895052E97FB20
:102260001EF400940E94451157FD07D00E940C11E6
:1022700007FC03D04EF40C944511509540953095D1
:1022800021953F4F4F4F5F4F0895909580957095E2
:1022900061957F4F8F4F9F4F0895EE0FFF1F059061
:1022A000F491E02D09940E945B11332312F48A1BF0
:1022B0009B0B0C946C11A29FB001B39FC001A39F14
:1022C000700D811D1124911DB29F700D811D11246F
:1022D000911D08950E945B11B7FF0895821B930B17
:1022E0000895B7FF0C9479110E947911821B930B0A
:1022F00008950E945B11A59F900DB49F900DA49F1F
:10230000800D911D11240895A0E0B0E0EAE8F1E10C
:102310000C94E1125C016B017A016115710519F0F1
:10232000FB0191838083E114F10429F0C701029736
:10233000839708F0F1C0E5012196F5011081812F06
:1023400090E00E949512892B11F05E01F4CF1D32AE
:1023500029F42196F501118101E007C01B3221F417
:10236000E5012296F501118100E0E114F10459F133
:10237000F0E1EF16F10461F41033E1F488818F7D10
:10238000883569F519812296026070E1E72EF12CFB
:1023900088E0E816F10439F12CF4F2E0EF16F104CC
:1023A000C9F12AC08AE0E816F10479F0E0E1EE16FE
:1023B000F10411F550E1E52EF12C812C912CA12C8A
:1023C00068E0B62E2CC01033C9F23AE0E32EF12CAF
:1023D0004CEC842E982CA82C4CE0B42E20C010E39A
:1023E000E114F104A9F698E0E92EF12C812C912C4E
:1023F000A12C20E1B22E13C060E070E080E090E8F4
:1024000097010F2C000C440B550B0E940C11490135
:102410005A0105C0812C912CA12C80E4B82E60E0DB
:1024200020E030E0A90127010F2C000C6608770896
:102430001E01E0EDE10FEA3060F08FEB810F8A3191
:1024400010F4E9EC05C08FE9810F8A3128F5E9EA3B
:10245000E10F8E2F90E08E159F05F4F467FD18C0F4
:1024600082169306A406B50690F0C301B2010E943D
:10247000D1129B01AC012E0F311D411D511D213088
:1024800031054105F0E85F0710F461E001C06FEF2E
:102490002196F1011081CCCF802F8170C114D1041D
:1024A00071F0662329F02197F601D183C08307C01C
:1024B00001FF19C02297F601D183C08314C067FFC2
:1024C00012C0811105C02FEF3FEF4FEF5FE704C04F
:1024D00020E030E040E050E882E290E09093500449
:1024E00080934F0416C0882341F050954095309555
:1024F00021953F4F4F4F5F4F0CC057FF0AC082E2FC
:1025000090E09093500480934F042FEF3FEF4FEFF4
:102510005FE7B901CA0104C060E070E080E090E0CC
:10252000CDB7DEB7E2E10C94FD1291110C949E122E
:10253000803219F089508550C8F708959927882767
:102540000895DC01CB01FC01F999FECF06C0F2BD74
:10255000E1BDF89A319600B40D9241505040B8F761
:102560000895F999FECF92BD81BDF89A992780B55B
:102570000895DC01CB0103C02D910E94C41241508B
:102580005040D0F70895262FF999FECF1FBA92BD7B
:1025900081BD20BD0FB6F894FA9AF99A0FBE019644
:1025A0000895DB018F939F930E947911BF91AF91A2
:1025B000A29F800D911DA39F900DB29F900D11249D
:1025C00008952F923F924F925F926F927F928F92D7
:1025D0009F92AF92BF92CF92DF92EF92FF920F93B2
:1025E0001F93CF93DF93CDB7DEB7CA1BDB0B0FB6BC
:1025F000F894DEBF0FBECDBF09942A883988488879
:102600005F846E847D848C849B84AA84B984C8840E
:10261000DF80EE80FD800C811B81AA81B981CE0F05
:10262000D11D0FB6F894DEBF0FBECDBFED010895EA
:04263000F894FFCF4C
:1026340018011801C800A401AE01680100000000DF
:10264400F0000000060006000700AC26AC260600D9
:02265400C409B7
:00000001FF
