:100000009DC0B7C0B6C0B5C0B4C0B3C0B2C0B1C067
:10001000B0C055C1AEC0ADC0ACC0ABC098C1A9C0E6
:10002000A8C0A7C0A6C056657273696F6E3A00205B
:1000300020204D41582D4C61646572202020200005
:10004000202D3E2000203C2D20202045696E737419
:100050002E00537461727420202D3E200056200023
:1000600020202D202020204F4B202020202B20201E
:10007000005374726F6D3D0020647574743D0064AC
:1000800075743D0043200056200055696E3D0041C7
:10009000680050726F6772616D6D3D00416820208D
:1000A00020004D61782043203D005A656C6C656EE0
:1000B0003D005620005370616E6E756E673D005AAC
:1000C000656C6C004120002020202055696E2020A6
:1000D00020200054656D7065726174757220002077
:1000E0004C6164657A6569742020004B75727A737F
:1000F00063686C7573730020205A656C6C656E20A4
:10010000202000202057616E646C65722020004C16
:1001100069506F004C694876004C694665004E692D
:100120004D68004E6943610050422020005549202F
:100130002000454E444500455252200011241FBE68
:10014000CFE5D4E0DEBFCDBF10E0A0E6B0E0EAE549
:10015000FBE102C005900D92A238B107D9F721E06A
:10016000A2E8B0E001C01D92A439B207E1F779DB43
:10017000F2CC46CFB89A8FEC89B910BC82E08BB92B
:1001800088E08AB9C8D110922D0110922E011092E8
:100190002F011092300185E082BF89B7816089BF4D
:1001A00084E083BF17B88EED86B981EB8FBD89E0FF
:1001B0008EBDC298BA9A7894AD9A929A939A35D68F
:1001C000C09A80E0B3D18FE290E0B6D181E0AED1A9
:1001D00086E290E0B1D141E062E082E190E0C4D1FA
:1001E00068EE73E080E090E028D2C09868EE73E09B
:1001F00080E090E022D284E290E08FDC90E08730D3
:1002000091052CF4909378018093770104C01092AB
:1002100078011092770180917701A7C840E065E0EE
:1002200080915701909158012CD242E064E0809176
:10023000790190917A0125D243E064E080916B01CD
:1002400090916C011ED242E064E080916301909134
:10025000640117D240E060E080915F0190916001FD
:1002600010D240E060E0809161019091620109D27A
:10027000809135019091360197FD0F9640E060E046
:1002800024E0959587952A95E1F7FBD142E064E05B
:100290008091370190913801F4D140E060E0809185
:1002A0003D0190913E01EDD142E064E08091670113
:1002B00090916801E6D18DE0E0D18AE0DEC11F9225
:1002C0000F920FB60F9211248F939F93AF93BF930A
:1002D00085E082BF80912D0190912E01A0912F0188
:1002E000B09130010496A11DB11D80932D01909312
:1002F0002E01A0932F01B0933001BF91AF919F9138
:100300008F910F900FBE0F901F90189590E2899FCC
:10031000B001112420E030E080E090E0DC01F90140
:10032000E60FF71FE357FF4F40815181840F951F60
:10033000A11DB11D2E5F3F4F2032310581F722E014
:10034000B695A795979587952A95D1F708951F9209
:100350000F920FB60F9211242F933F934F935F93F9
:100360006F937F938F939F93AF93BF93EF93FF937D
:100370008091820024B195B13091830040E1849F47
:10038000F0011124E30FF11DEE0FFF1FE357FF4FA4
:1003900030E0392B318320838F5F65E015DB90934C
:1003A000820087B1807E982B97B9369A809182001F
:1003B00081110AC0809183008F5F982F9F70909366
:1003C0008300837009F4CCD1FF91EF91BF91AF917D
:1003D0009F918F917F916F915F914F913F912F915D
:1003E0000F900FBE0F901F901895BB9ABC9ABD9AA4
:1003F00081B38F7081BB82B3806F82BB0895C39835
:1004000081B38F7081BB82B3806F82BBC49AC59A5F
:100410000000000000000000000000000000879BBA
:1004200016C080E080FD15C0C598000000000000E7
:1004300000000000000000000000000000000000BC
:100440000000000000008F5F843061F7E8CFC5989E
:100450000895C59AEACFCF93DF9300D0CDB7DEB72A
:100460006A838983CCDF89816A81813011F4C39AE0
:1004700001C0C398C498C59A81B3806F81BB82B311
:10048000962F907F8F70892B82BB000000000000A8
:10049000000000000000000000000000000000005C
:1004A000000000000000C5980000000000000000EF
:1004B000000000000000000000000000000000003C
:1004C00000000000C59A82B390E1699FB001112439
:1004D0008F70682B62BB000000000000000000006D
:1004E000000000000000000000000000000000000C
:1004F0000000C59881B38F7081BB82B3806F82BBCF
:100500000F900F90DF91CF910895682F81E0A3CFD6
:10051000682F80E0A0CF69DF88E2FADF81E0F8DFB2
:1005200086E0F6DF8CE0F4DF82E0F2CF8295880F80
:10053000880F807C8068ECCFCF93DF93FC0184919F
:10054000EF012196882319F0E0DFFE01F8CFDF915B
:10055000CF910895CF93C82FCC2321F080E2D5DF2F
:10056000C150FACFCF910895BF92CF92DF92EF9210
:10057000FF920F931F93CF93DF937C01162FB42E1E
:1005800097FF07C0F194E194F1088DE2BEDF01E02E
:1005900001C000E0812FC1E0D0E09AE0823040F05D
:1005A0009E01929FE001939FD00D11248150F6CFC0
:1005B0008AE0C82ED12CB11202C08EE2A6DF115003
:1005C000C701BE010DDACB01B6010ADA009739F492
:1005D000B11628F4011103C080E297DF03C0805DEB
:1005E00094DF01E0CE01B601FBD9EB01209719F7AA
:1005F000DF91CF911F910F91FF90EF90DF90CF90FF
:10060000BF9008958F3F910571F06CF0BA9AB99A36
:100610002FEF2ABD833B21E0920714F082EB91E09B
:100620008F5F88BD089518BC181619061CF0B9987C
:100630001ABC0895B99A8ABD08950F931F9300912B
:100640002D0110912E0120912F0130913001DC01FC
:10065000CB01800F911FA21FB31F00912D0110919C
:100660002E0120912F013091300180179107A207B0
:10067000B30798F71F910F9108955D9BFECF8CB93A
:100680000895BF92CF92DF92EF92FF920F931F9344
:10069000CF93DF937C01162FB42E97FF05C0F19402
:1006A000E194F10801E001C000E0112329F0812F5D
:1006B000C1E0D0E09AE014C011E0C1E0D0E02AE04F
:1006C000C701BE018DD96A307105A0F0153091F0D7
:1006D000CE01289FE001299FD00D11241F5FF0CF8C
:1006E000813041F09E01929FE001939FD00D112433
:1006F0008150F6CF80E2C1DF002311F08DE201C00E
:1007000080E2BBDF8AE0C82ED12CB11202C08EE29B
:10071000B4DF1150C701BE0163D9CB01B60160D966
:10072000805DABDFCE01B6015BD9EB01209769F7A5
:10073000DF91CF911F910F91FF90EF90DF90CF90BD
:10074000BF900895CF93DF93FC018491EF01219630
:10075000882319F092DFFE01F8CFDF91CF91089541
:100760000F931F93CF93DF9382E0D0DD90933C01F2
:1007700080933B0181E0CADD9C01C0913B01D09197
:100780003C01CE0167E87FEF3FD9620F731F709382
:100790003A01609339011092440110924301809113
:1007A0004B01813009F09FC08091840081119BC072
:1007B00020913101309132012115310539F04091FC
:1007C0003301509134014115510529F4109236013D
:1007D0001092350190C0CC388EE0D80754F06539BE
:1007E00071053CF484E080938400109236011092ED
:1007F0003501FA0157FD3F96DF01E4E0B595A79575
:10080000EA95E1F71196AC0FBD1FE0913501F0912B
:1008100036010091450110914601A417B5075CF11E
:10082000C90101976817790734F54C1B5D0B50938C
:1008300044014093430157FF02C0415E5F4F65E0B2
:10084000559547956A95E1F7E40FF51F7096E133EA
:10085000FB4130F4040F151F10934601009345012E
:100860008091450190914601480F591F50933601E0
:100870004093350140C0C901861B970B90934401FA
:10088000809343019C0197FF02C0215F3F4F54E0DA
:10089000359527955A95E1F7E20FF31F7096E133EE
:1008A000FB4180F49C012F50310937FD9C0144E04D
:1008B000359527954A95E1F7020F131F10934601CE
:1008C0000093450197FD0396959587959595879596
:1008D0002091450130914601820F931F909336017C
:1008E0008093350108C010923601109235011092A4
:1008F0004601109245018091350190913601813277
:100900002BE192073CF080E29BE1909336018093CB
:10091000350106C097FF04C01092360110923501D0
:10092000809135019091360197FD0F9624E09595C1
:1009300087952A95E1F7DF91CF911F910F9162CEB4
:10094000CF92DF92EF92FF92CF93DF9384E0DEDCD1
:10095000EC01D595C795D595C7959E01DE01A5D823
:1009600028E437E040E050E084D869017A0124E6C9
:1009700030E0DE01ACD826EE3EEF4FEF5FEF79D8E6
:10098000C601820F931F9C012D5A3F4F30933E01A9
:1009900020933D018091840081114CC0B7DC23E09D
:1009A000880F991F2A95E1F76CE070E02DD87093BD
:1009B000380160933701675B734081E06D3E7240A0
:1009C00008F480E04DE451E065E02BD7882319F06E
:1009D00081E08093840081E020913D0130913E01CF
:1009E000253431050CF480E04EE451E06AE019D77B
:1009F000882319F082E080938400809143019091D4
:100A0000440181589F4F8F3F910550F481E0209120
:100A100035013091360120323B411CF480E001C0A9
:100A200081E04CE451E06AE0FCD6882319F086E0CE
:100A300080938400DF91CF91FF90EF90DF90CF9073
:100A4000089580914F01882321F0809184008823AC
:100A500019F010924B01A5C180915001811175C10F
:100A6000E0915701F0915801E03820E7F20718F0C3
:100A700083E08093840020917701309178012630C3
:100A8000310569F4809186019091870190937201FC
:100A900080937101809188019091890166C1233012
:100AA00031050CF06AC0E033FA4218F084E080931C
:100AB00050014091860150918701220F331FF901A7
:100AC000EA59FF4F80819181489FF001499FF00DC5
:100AD000589FF00D1124F0937201E0937101609121
:100AE000790170917A01D901A05ABF4F2D913C91A3
:100AF000429FC001439F900D529F900D1124681793
:100B000079077CF02AE0249FC001259F900D1124D5
:100B10009F01280F391F81E0261737071CF080E05E
:100B200001C081E04CE551E064E17BD6882319F0F7
:100B300085E0809384008091880190918901909351
:100B40007401809373019C01B3E035952795BA95A4
:100B5000E1F781E040916B0150916C01241735075A
:100B60000CF480E04BE551E064E65BD6882309F4A1
:100B700018C181E08093500114C1C9010397029705
:100B800008F0BAC0CF016CE370E02AD70A9719F4D5
:100B900081E0809356018CE89AE0909372018093F3
:100BA000710180918601909187016AE0689FA001A0
:100BB000699F500D11246091630170916401641765
:100BC000750734F0181619061CF485E0809350015F
:100BD0004091880150918901EF31F105E0F49F01C6
:100BE00073E0369527957A95E1F72F5F3F4F249F65
:100BF000C001259F900D349F900D112496958795E7
:100C0000969587959093740180937301F0935A01A0
:100C1000E0935901C6C050937401409373018091D1
:100C2000590190915A01AF01481B590B453B5105A1
:100C300008F4B7C080915F019091600124303105C4
:100C400069F4853C5FEF950774F52091610130915F
:100C50006201281739073CF182E023C0893D2FEF5C
:100C600092075CF4209161013091620128173907E5
:100C70004CF082E08093500105C01816190614F458
:100C800080E008C0809161019091620118161906F8
:100C9000BCF381E04BE551E06EEFC3D5882319F03A
:100CA00083E0809350012091790130917A01409145
:100CB0006D0150916E01241735077CF0C901841B2A
:100CC000950B97FD03969595879595958795840F38
:100CD000951F90936E0180936D0180916D019091AD
:100CE0006E01281B390B81E0293F3F4F0CF080E05B
:100CF0004DE551E065EB39CF2530310519F52091EF
:100D000086013091870140EF429FC001439F900DC3
:100D100011249093720180937101809188019091C8
:100D20008901909374018093730181E020916B019C
:100D300030916C01283C31050CF080E04BE551E02E
:100D400068EC13CF10924F012CC080914B01882387
:100D500041F180917701909178019C0123503109F4
:100D60002230310538F481E290E090937401809351
:100D7000730117C0059709F06CCE86E990E0909357
:100D8000740180937301209186013091870146EEB2
:100D9000429FC001439F900D112490937201809354
:100DA00071016091710170917201CB01A0E0B0E01E
:100DB000BC01CD012BE0660F771F881F991F2A9574
:100DC000D1F72FE535E040E050E053D630933201C3
:100DD000209331010895C09A88E2EFE4F1E0DF0149
:100DE0001D928A95E9F781E080934F018091790106
:100DF00090917A0190936801809367011092470166
:100E0000109248011092490110924A0180917D018F
:100E1000882329F010927D0180917701C4D210922D
:100E20007B0181E080934B010895D5DF10924F0143
:100E300010924B0108958091790190917A01843646
:100E400091051CF421E02093550120914F012111BF
:100E50000EC0803991405CF080915501882339F0B3
:100E60008091770190917801069709F0B4DF809125
:100E70004F018823C9F180915501882349F0809161
:100E80005001882329F0809153018A3009F4CDDF85
:100E900080913D0190913E018A34910564F08091EA
:100EA000880190918901833391052CF00A979093E2
:100EB00089018093880180916B0190916C019C0164
:100EC000220F331F820F931F2091690130916A0115
:100ED000820F931F97FD0396959587959595879516
:100EE00090936A0180936901ACDD8091500181117A
:100EF0002CC080917701909178018630910511F096
:100F0000039744F48091790190917A01909368015C
:100F100080936701809157019091580101969093B9
:100F20005801809357016091470170914801809169
:100F3000490190914A0120E83CEF4AE050E077D522
:100F400030936401209363010895809153018A30A6
:100F500038F490914F01992319F08F5F80935301DA
:100F60000895CF93A0913B01B0913C0128EF34E26A
:100F700041E050E0B2D520E030EB40E050E079D5E0
:100F800080916B0190916C01BC01660F771F860FF9
:100F9000971F092E000CAA0BBB0BBC01CD01620FE1
:100FA000731F841F951F24E030E040E050E061D5BE
:100FB00030936C0120936B01A0913901B0913A01FB
:100FC0002FE535E084D5DC01CB01FBE0B595A79595
:100FD00097958795FA95D1F790937A018093790147
:100FE00083E094D921E935E0DC0171D5DC01CB0146
:100FF000CCE0B595A79597958795CA95D1F790932D
:1010000076018093750180914F01882309F499C07E
:1010100080916B0190916C010797CCF48091330122
:10102000909134011816190694F4809177019091EB
:101030007801069761F080915601811108C081E026
:1010400020915701309158012B30310508F480E090
:101050004EE551E064E1E5D3882349F080915001E9
:10106000811103C086E08093500110924B01C09122
:101070005601CC2359F08091770190917801069721
:101080002CF4109234011092330113C0209173019B
:1010900030917401A0E0B0EB0ED528EF34E241E0CE
:1010A00050E0E7D43093340120933301CC2309F48A
:1010B00048C080913B0190913C0103970CF041C0E6
:1010C0008091790190917A019093680180936701F2
:1010D0008431954044F4809175019091760190930C
:1010E00068018093670140915F01509160012091F8
:1010F00067013091680180916501909166010097C8
:10110000D1F0B901681B790BEAE0E69FC001E79FC7
:10111000900D1124840F951F97FD01969595879545
:10112000BC01641B750B7093620160936101909325
:10113000600180935F011092560130936601209305
:101140006501CF910895CF93DF93EC01862F9A81AB
:1011500091709A83662339F0911102C092E09A83CC
:101160009A81916006C0992311F095E09A839A8143
:101170009E7F9A83AE0164E162D3882319F08A814D
:1011800088608A83DF91CF910895FC01DA01509144
:101190008D015A7080819181552329F0AC01421B49
:1011A000530B9A0106C0509190015A7021F0280FFC
:1011B000391F3183208380819181861797071CF422
:1011C000718360830895A817B90714F4B183A083CD
:1011D0000895CF93DF936CE370E016D49B01EC018C
:1011E00043E062E0C901C0D98AE38FD943E062E0FD
:1011F000CE01DF91CF91B8C925E0829FC0011124B3
:10120000815F9E4F99C9CF93DF938091770125E04D
:10121000829FC0011124815F9E4F8ED980918801E9
:1012200090918901CAE0D0E0BE01EED3CB0142E04B
:1012300064E09AD984EC90E07FD980917701909115
:1012400078018630910551F4809186019091870153
:10125000BE01DAD3CB0141E063E023C083309105C6
:1012600064F440E062E080918601909187017CD92E
:101270008FEB90E0DF91CF915FC99C012350310942
:101280002230310520F485E0DF91CF9163C90597C5
:1012900069F4809186019091870140E063E0880FB6
:1012A000991F62D986E5DF91CF912FC9DF91CF9148
:1012B000089580917701909178018630910569F4C5
:1012C00085EB90E039D942E064E08091860190910D
:1012D00087014AD982EB90E046C0833091051CF02B
:1012E0008530910551F58AEA90E026D940E061E029
:1012F000809186019091870137D982E02BD9E091C6
:101300007701F0917801EE0FFF1FEA59FF4F4091EE
:1013100086015091870120813181429FC001439F06
:10132000900D529F900D11246AE070E06DD3CB01B7
:1013300041E064E019D986E5E8C803970297A0F474
:1013400082EA90E0F9D8809186019091870142E08D
:1013500064E02AE0FC012E9FC0012F9F900D112414
:1013600003D98CE990E0E8C8089525E0829FC00188
:101370001124BC016F5F7F4F45E050E086E891E0AB
:10138000BCD39091860180918801890F90918A0148
:10139000891741F0109289011092880110928701FB
:1013A000109286010895CF93C82F682F84E290E0B1
:1013B000C5D3E6E8F1E092818081890F848385E0DE
:1013C000C89FB00111246F5F7F4F45E050E0CF010F
:1013D000CF91ABC382E990E0AFD88091770125E04F
:1013E000829FC0011124815F9E4FA6D883E0B2C8BE
:1013F0002091840030E0215031094CE0429FC0012F
:10140000439F900D112489539F4F96D885E0A2C821
:101410008091930181FF07C081E090917B01911140
:1014200080E080937B0180917B01882349F022E357
:1014300030E040E757E160E070E088E891E008C004
:1014400021E030E045E050E060E070E08EE791E0C0
:101450009CDE809177019091840091110AC0909157
:101460005001992339F090917C01992319F087E07C
:1014700001C088E025E0829FC0011124815F9E4F5A
:101480005BD842E064E080916701909168016CD87C
:1014900086E53BD880917B01882329F080918801E3
:1014A0009091890113C08091770190917801039701
:1014B000029740F480917301909174016AE070E0AA
:1014C0008FD207C08091690190916A016AE070E053
:1014D0009BD2CB0142E064E047D880917B01882316
:1014E00039F080917C01882319F081E033D802C063
:1014F00081E40BD881E01AD880918400882321F000
:1015000080917C01811174CF80917E0190917F0147
:101510000097A9F480915701909158016CE370E015
:101520005FD2CB0156DE83E015D842E065E08091C2
:1015300063019091640118D88FE890E01BC081305E
:101540009105C9F48AE890E0F7D742E064E0809121
:1015500037019091380108D887E890E0EDD740E056
:1015600062E080913D0190913E01FED78FEDCDD795
:1015700084E890E0E1C782309105C1F5A09139017E
:10158000B0913A012FE535E0A2D2DC01CB013BE07E
:10159000B595A795979587953A95D1F742E064E080
:1015A000E3D786E5B2D7A0913B01B0913C0128EF8B
:1015B00034E241E050E091D220E030EB40E050E0F6
:1015C00058D2DA01C90143E064E0CED781E49DD767
:1015D000809135019091360197FD0F9640E064E0CF
:1015E00024E0959587952A95E1F715C00397A1F416
:1015F0008FE790E0A1D740E063E080915F01909198
:101600006001B2D788E790E097D740E063E080912F
:10161000610190916201A8C7089580E087D7809109
:10162000930183FF10C0877F8093930110929201F2
:10163000109291011092840080914F01882311F043
:10164000F4DB01C0C8DB80917B01882399F0909185
:101650008D0190FD04C09091900190FF0BC091E02E
:1016600090937D01209157013091580130935A0198
:101670002093590190914F019111CACE811109C057
:1016800021E030E043E050E060E070E080E891E08D
:101690007CDD8091930182FF1CC08091800190913C
:1016A00081010097B1F020917B01222359F003972B
:1016B00049F480917D01882329F08091770155DEDE
:1016C00010927D0181E090917B01911180E08093E7
:1016D0007B018091800190918101009711F493DD4D
:1016E00058C08130910501F580917B01882349F034
:1016F00022E330E040E757E160E070E088E891E005
:1017000044DD81E790E018D78091880190918901AC
:101710006AE070E079D1CB0142E063E025D781E453
:10172000F4D685E017D735C08230910511F5809148
:101730007B018823E1F080917701909178018630D8
:10174000910539F42AE030E044EC59E06AE070E0B9
:101750000BC0880F991FFC01EC58FF4F408151814D
:1017600021E030E060E070E086E891E00EDDA1DD90
:1017700010C0039771F480917B01882349F021E028
:1017800030E046E050E060E070E087E791E0FDDCAB
:1017900021DE81E0CBD680918400882321F08091E6
:1017A0007C01811125CE80917B01882319F080E690
:1017B00090E023C08091800190918101892B89F470
:1017C00080913701909138016AE070E01DD1CB0122
:1017D00041E063E0C9D68DE590E0AED682E590E0C9
:1017E00002C085E490E0A8D68091800190918101AB
:1017F0000197029718F480E490E09EC684E0AAC6A0
:10180000181619065CF021E030E0892B11F420E075
:1018100030E088279927821B930B089581E090E0A0
:101820000895FA01811101C010828081681718F4AF
:10183000108281E008958F5F808380E00895FA012F
:10184000811102C0118210828081918170E068173D
:1018500079072CF001969183808380E0089581E0E0
:10186000089588D49EE088E10FB6F894A89581BDCC
:101870000FBE91BDC1E0A89580912D0190912E01E0
:10188000A0912F01B09130014091890050918A00C0
:1018900060918B0070918C0084179507A607B7079D
:1018A00008F461C05EDB80914B018130E1F48091EE
:1018B0006B0190916C01092E000CAA0BBB0B40919F
:1018C0004701509148016091490170914A01840F8C
:1018D000951FA61FB71F8093470190934801A093BF
:1018E0004901B0934A0163B365FB662760F96C2731
:1018F0008BE891E028DC60B362FB662760F96C2717
:1019000081E991E020DC60B363FB662760F96C2716
:101910008EE891E018DC8091530180FF06C0909121
:101920004F01992311F0C09A01C0C0989091840092
:10193000992329F0803F18F48F5F809353016DDE67
:101940008091890090918A00A0918B00B0918C00C9
:10195000C296A11DB11D8093890090938A00A09327
:101960008B00B0938C008091850090918600A091AF
:101970008700B091880040912D0150912E01609117
:101980002F0170913001481759076A077B0708F447
:1019900072CF88519C4FAF4FBF4F8093850090937B
:1019A0008600A0938700B093880081E090917C012D
:1019B000911180E080937C0180914B01813009F48A
:1019C0002DD439DABDD757CF991B79E004C0991FC0
:1019D000961708F0961B881F7A95C9F78095089589
:1019E000AA1BBB1B51E107C0AA1FBB1FA617B70745
:1019F00010F0A61BB70B881F991F5A95A9F7809561
:101A00009095BC01CD01089597FB072E16F4009424
:101A100006D077FD08D0E4DF07FC05D03EF49095B2
:101A200081959F4F0895709561957F4F0895A1E22C
:101A30001A2EAA1BBB1BFD010DC0AA1FBB1FEE1F48
:101A4000FF1FA217B307E407F50720F0A21BB30B93
:101A5000E40BF50B661F771F881F991F1A9469F70F
:101A600060957095809590959B01AC01BD01CF016B
:101A70000895052E97FB16F400940FD057FD05D05E
:101A8000D6DF07FC02D046F408C05095409530954B
:101A900021953F4F4F4F5F4F0895909580957095DA
:101AA00061957F4F8F4F9F4F089505D0332312F4D8
:101AB0008A1B9B0B0DC0A29FB001B39FC001A39FC7
:101AC00001D0B29F700D811D1124911D0895F3DF87
:101AD000B7FF0895821B930B0895B7FF04C003D08E
:101AE000821B930B0895E7DFA59F900DB49F900D87
:101AF000A49F800D911D11240895DC01CB01FC01F0
:101B0000E199FECF06C0FFBBEEBBE09A31960DB265
:101B10000D9241505040B8F70895E199FECF9FBB18
:101B20008EBBE09A99278DB30895DC01CB0102C0EA
:101B30002D9105D041505040D8F70895262FE199B6
:101B4000FECF9FBB8EBB2DBB0FB6F894E29AE19AF5
:0A1B50000FBE01960895F894FFCF30
:101B5A0018011801C800A401AE01680100000000C4
:101B6A00F0000000060006000700AC26AC260600BE
:021B7A00C4099C
:00000001FF
