:100000000C94C3000C94E0000C94E0000C94E0000D
:100010000C94E0000C94E0000C94E0000C94E000E0
:100020000C94E0000C94E0000C94E0000C94E000D0
:100030000C94E0000C94E0000C94E0000C94E000C0
:100040000C9425020C94E0000C94DE040C94E00067
:100050000C94E0000C946D020C94E0000C94E00011
:100060000C94E0000C94E0005C01640169016E01F5
:1000700075018201AB01C70156657273696F6E3AF3
:10008000002020204D41582D4C616465723136208E
:100090002000202D3E2000203C2D20202045696E90
:1000A00073742E00537461727420202D3E20002042
:1000B000202D202020204F4B202020202B202000EE
:1000C0005374726F6D3D0020647574743D006475E7
:1000D000743D0043200056200055696E3D00416884
:1000E0000050726F6772616D6D3D00416820202085
:1000F000004D61782043203D005A656C6C656E3D73
:10010000005620005370616E6E756E673D005A6533
:100110006C6C004120002020202055696E2020209A
:10012000200054656D706572617475722000204CFA
:100130006164657A6569742020004B75727A736317
:10014000686C7573730020205A656C6C656E202096
:100150002000202057616E646C65722020004C697D
:10016000506F004C694665004E694D68004E69430A
:10017000610050422020005549202000454E444552
:1001800000455252200011241FBECFEFD4E0DEBF45
:10019000CDBF11E0A0E0B1E0E2E0F3E202C00590E3
:1001A0000D92AC30B107D9F722E0ACE0B1E001C06C
:1001B0001D92AC34B207E1F70E94450E0C947F11FA
:1001C0000C940000209A8FEC8093C4001092C5001C
:1001D00082E08093C00088E98093C1000E945E03A2
:1001E0001092DC011092DD011092DE011092DF010D
:1001F00085E086BD80916E00816080936E0084E012
:1002000085BD10927C008EED80937A0081EB809307
:10021000800089E0809381002A98229A7894459AF8
:100220005A9A5B9A0E948608289A80E00E946F037F
:1002300081E890E00E94760381E00E946F0388E7E6
:1002400090E00E94760341E062E08FE090E00E943F
:10025000900368EE73E080E090E00E940504289827
:1002600068EE73E080E090E00E9405048FE190E08A
:100270000E94181190E0863091052CF490932E0284
:1002800080932D0204C010922E0210922D028091B4
:100290002D020C94040B0F931F93CF93DF93EB016C
:1002A000E8814E2F50E04830510508F07CC0FA013B
:1002B000EC5CFF4F0C94B40F8A3009F075C081E0FC
:1002C000888319821A8270C0853F09F06CC082E071
:1002D0005CC08C3009F067C083E057C0882309F404
:1002E00062C094E0988388875FC0882309F45BC06C
:1002F00095E0988390ED980F998781538E3008F0A0
:1003000052C052C0882309F44EC09981FB01E90F05
:10031000F11D8383148281E0890F8983843008F47E
:1003200043C00A8110E040E150E060E070E0CE019F
:1003300003960E94EB0FF8013596EE0FFF1FEC0FAE
:10034000FD1F718360838A818F5F8A8319829985FB
:10035000891750F118C0882331F19981FB01E90F09
:10036000F11D8383148281E0890F89838430E0F05A
:1003700040E150E060E070E0CE0103960E94EB0F98
:100380007FA36EA3198288818F5F88830DC0188236
:1003900021E030E08D3011F020E030E0882799270F
:1003A000821B930B03C0188280E090E0DF91CF9115
:1003B0001F910F9108950F931F93CF93DF93C5E083
:1003C000D2E040E065E0888599850E942C0442E0F7
:1003D00064E08AA59BA50E942C0443E064E08C8D18
:1003E0009D8D0E942C0442E064E08C899D890E94CE
:1003F0002C0440E060E0888999890E942C0440E048
:1004000060E08A899B890E942C040AEE11E042E098
:1004100064E0F801868197810E942C0440E063E04B
:10042000F801848595850E942C0442E064E0888D63
:10043000998D0E942C048DE00E9425048AE0DF91B2
:10044000CF911F910F910C9425041F920F920FB61C
:100450000F9211248F939F93AF93BF9385E086BD36
:100460008091DC019091DD01A091DE01B091DF016E
:100470000496A11DB11D8093DC019093DD01A09332
:10048000DE01B093DF01BF91AF919F918F910F90EB
:100490000FBE0F901F90189590E2899FB001112414
:1004A00020E030E080E090E0DC01F901E60FF71F8A
:1004B000E45CFE4F40815181840F951FA11DB11D49
:1004C0002E5F3F4F2032310581F722E0B695A79588
:1004D000979587952A95D1F708951F920F920FB699
:1004E0000F9211242F933F934F935F936F937F93BA
:1004F0008F939F93AF93BF93EF93FF9380910C01E2
:10050000209178009091790030910D0140E1849F15
:10051000F0011124E30FF11DEE0FFF1FE45CFE4F0D
:1005200030E0392B318320838F5F65E00E943F0FDD
:1005300090930C0180917C00807E982B90937C009E
:1005400080917A00806480937A0080910C018111FF
:100550000BC080910D018F5F982F9F7090930D01BC
:10056000837011F40E940C05FF91EF91BF91AF9140
:100570009F918F917F916F915F914F913F912F91BB
:100580000F900FBE0F901F901895239A249A259ACA
:100590008AB18F708AB98BB1806F8BB908952B980F
:1005A0008AB18F708AB98BB1806F8BB92C9A2D9AD2
:1005B00000000000000000000000000000004F9B51
:1005C00016C080E080FD15C02D98000000000000DE
:1005D000000000000000000000000000000000001B
:1005E0000000000000008F5F843061F7E8CF2D9895
:1005F00008952D9AEACFCF93DF9300D0CDB7DEB721
:100600006A8389830E94CF0289816A81813011F4D3
:100610002B9A01C02B982C982D9A8AB1806F8AB999
:100620008BB1962F907F8F70892B8BB900000000C3
:1006300000000000000000000000000000000000BA
:1006400000000000000000002D98000000000000E5
:10065000000000000000000000000000000000009A
:100660000000000000002D9A8BB190E1699FB0015D
:1006700011248F70682B6BB900000000000000008F
:10068000000000000000000000000000000000006A
:10069000000000002D988AB18F708AB98BB1806FED
:1006A0008BB90F900F90DF91CF910895682F81E063
:1006B0000C94FB02682F80E00C94FB020E94C502A0
:1006C00088E20E945A0381E00E945A0386E00E9459
:1006D0005A038CE00E945A0382E00C945A038295DC
:1006E000880F880F807C80680C945A03CF93DF9327
:1006F000FC018491EF012196882321F00E9456038A
:10070000FE01F7CFDF91CF910895CF93C82FCC236F
:1007100029F080E20E945603C150F9CFCF9108958D
:10072000BF92CF92DF92EF92FF920F931F93CF93DE
:10073000DF937C01162FB42E97FF08C0F194E1944B
:10074000F1088DE20E94560301E001C000E0812F14
:10075000C1E0D0E09AE0823040F09E01929FE0013B
:10076000939FD00D11248150F6CF8AE0C82ED12C52
:10077000B11203C08EE20E9456031150C701BE01A0
:100780000E944B0FCB01B6010E944B0F009741F422
:10079000B11630F4011104C080E20E94560304C077
:1007A000805D0E94560301E0CE01B6010E944B0F0E
:1007B000EB012097E9F6DF91CF911F910F91FF9008
:1007C000EF90DF90CF90BF9008958F3F910581F01B
:1007D0007CF0229A219A2FEF20938800833B21E01E
:1007E000920714F082EB91E08F5F80938A00089566
:1007F00010928A001816190624F021981092880089
:100800000895219A8093880008950F931F93009173
:10081000DC011091DD012091DE013091DF01DC016E
:10082000CB01800F911FA21FB31F0091DC0110911B
:10083000DD012091DE013091DF0180179107A207D1
:10084000B30798F71F910F9108959091C00095FFFD
:10085000FCCF8093C6000895BF92CF92DF92EF92B3
:10086000FF920F931F93CF93DF937C01162FB42E2B
:1008700097FF05C0F194E194F10801E001C000E0A8
:10088000112329F0812FC1E0D0E09AE015C011E0DA
:10089000C1E0D0E02AE0C701BE010E944B0F6A30E0
:1008A0007105A0F0153091F0CE01289FE001299F3D
:1008B000D00D11241F5FEFCF813041F09E01929F38
:1008C000E001939FD00D11248150F6CF80E20E9469
:1008D0002504002311F08DE201C080E20E9425046E
:1008E0008AE0C82ED12CB11203C08EE20E942504EA
:1008F0001150C701BE010E944B0FCB01B6010E94EF
:100900004B0F805D0E942504CE01B6010E944B0F63
:10091000EB01209741F7DF91CF911F910F91FF904D
:10092000EF90DF90CF90BF900895CF93DF93FC01BD
:100930008491EF012196882321F00E942504FE0175
:10094000F7CFDF91CF91089580910E01811106C0FC
:100950009091100180910F019817D1F310920E0120
:10096000809110018F5F809310018A3010F01092F7
:100970001001E0911001F0E0E052FE4F80810895F7
:1009800080910E01811118C020910F0190911001EA
:10099000921728F480910F01909110010BC02091C3
:1009A0000F0190911001291740F480910F0190914F
:1009B0001001865F891B08958AE008951F920F92A7
:1009C0000FB60F9211248F939F93EF93FF93809113
:1009D0000F018F5F80930F018A3010F010920F018A
:1009E0009091100180910F01981305C080910E0124
:1009F0008F5F80930E01E0910F018091C600F0E0BF
:100A0000E052FE4F8083FF91EF919F918F910F9065
:100A10000FBE0F901F901895CF93DF9382E00E9436
:100A20004C029093F5018093F40181E00E944C0206
:100A30009C01C091F401D091F501CE0167E87FEFF0
:100A40000E945F0FA901460F571F5093F301409377
:100A5000F2011092FD011092FC018091020281309E
:100A600089F48091330181110DC0A091EA01B09108
:100A7000EB01109739F02091EC013091ED01211537
:100A8000310529F41092EF011092EE016AC0CC38C2
:100A90008EE0D80754F0453951053CF484E080934A
:100AA00033011092EF011092EE01B90137FF02C03D
:100AB000615F7F4F94E0759567959A95E1F76F5F59
:100AC0007F4FFB0177FD3196F595E795EC0FFD1F04
:100AD000E217F30794F04A175B077CF4C9018C1BFB
:100AE0009D0B9B0177FF02C02D5F3F4F35952795EA
:100AF00035952795821B930B13C09D01241B350B45
:100B0000121613062CF03093FD012093FC010EC049
:100B1000CD016CEB72E00E945F0F6F5F7F4FC901E8
:100B20000E945F0F7093FD016093FC012091FC0116
:100B30003091FD018091EE019091EF01213431055A
:100B40001CF0805C9F4F09C0203C4FEF34071CF421
:100B50008054910902C0820F931F9093EF018093FC
:100B6000EE018091EE019091EF01813426E392072E
:100B70003CF080E496E39093EF018093EE0106C091
:100B800097FF04C01092EF011092EE018091EE01E8
:100B90009091EF0197FD4F9625E0959587952A95C1
:100BA000E1F7DF91CF910C94E503CF92DF92EF92C2
:100BB000FF92CF93DF9384E00E944C02EC01D59525
:100BC000C795D595C7959E01DE010E94BA0F28E40E
:100BD00037E040E050E00E94950F69017A0124E679
:100BE00030E0DE010E94D10F26EE3EEF4FEF5FEFC7
:100BF0000E94950FC601820F931F9C012D5A3F4FF3
:100C00003093F7012093F6018091330181114EC09A
:100C10000E944C022FE535E0DC010E94D10FDC017F
:100C2000CB012BE0B595A795979587952A95D1F798
:100C30009093F1018093F001BC01695E73406B3BBE
:100C4000724018F081E08093330181E02091F60139
:100C50003091F701253431050CF480E044E052E096
:100C60006AE00E94250E882319F082E08093330108
:100C70008091FC019091FD0181509F4F8F3F9140E9
:100C800050F481E02091EE013091EF0120343643A1
:100C90001CF480E001C081E043E052E06AE00E9481
:100CA000250E882319F086E080933301DF91CF91E0
:100CB000FF90EF90DF90CF900895809105028823F8
:100CC00021F080913301882319F010920202D8C1DB
:100CD000809106028111A8C120910D0230910E026F
:100CE000203880E7380718F083E080933301E091E3
:100CF0002D02F0912E02E530F10569F480913C025D
:100D000090913D02909328028093270280913E02A9
:100D100090913F0299C13097D9F520333A4218F0AB
:100D200084E08093060280913C0290913D0244EA67
:100D300051E0849F9001859F300D949F300D1124C8
:100D4000309328022093270220912F023091300205
:100D500068E171E0869FA001879F500D969F500D1E
:100D60001124241735077CF06EEA71E0869FA001FC
:100D7000879F500D969F500D112481E04217530715
:100D80001CF080E001C081E042E152E064E13BC040
:100D9000E130F10509F061C020333A4218F084E0F7
:100DA0008093060280913C0290913D0248E651E01A
:100DB000849F9001859F300D949F300D11243093B6
:100DC00028022093270220912F023091300268ECF4
:100DD000689FA001699F500D1124241735077CF0EE
:100DE00062E771E0869FA001879F500D969F500D8E
:100DF000112481E0421753071CF080E001C081E01C
:100E000042E152E060E50E94250E882319F085E05A
:100E10008093330180913E0290913F0290932A0289
:100E2000809329029C01A3E035952795AA95E1F7C7
:100E300081E04091210250912202241735070CF4E1
:100E400080E041E152E064E60E94250E882309F427
:100E500017C181E08093060213C1CF010297029768
:100E600008F0BAC0C9016CE370E00E944B0F0A970A
:100E700019F481E080930C028CE89AE090932802A8
:100E80008093270280913C0290913D026AE0689F26
:100E9000A001699F500D11246091190270911A02EE
:100EA0006417750734F0181619061CF485E0809352
:100EB000060260913E0270913F022F313105E0F44D
:100EC000A901E3E056954795EA95E1F74F5F5F4F3B
:100ED000469FC001479F900D569F900D11249695F7
:100EE00087959695879590932A028093290230934F
:100EF000100220930F02C4C070932A02609329024B
:100F000080910F0290911002281B390B253B31056F
:100F100008F4B6C08091150290911602339769F4D7
:100F2000853C2FEF92077CF5209117023091180233
:100F30002817390744F182E024C0893D2FEF92073A
:100F40005CF42091170230911802281739074CF0F1
:100F500082E08093060205C01816190614F480E09A
:100F600008C0809117029091180218161906BCF358
:100F700081E041E152E06EEF0E94250E882319F0D6
:100F800083E08093060220912F023091300240913D
:100F9000230250912402241735077CF0C901841BD9
:100FA000950B97FD03969595879595958795840F55
:100FB000951F9093240280932302809123029091A5
:100FC0002402281B390B81E0293F3F4F0CF080E0C1
:100FD00043E152E065EB38CF349719F520913C029C
:100FE00030913D0240EF429FC001439F900D11247C
:100FF000909328028093270280913E0290913F02B5
:1010000090932A028093290281E02091210230915D
:101010002202283C31050CF080E041E152E068EC0E
:1010200013CF109205022CC080910202882341F157
:1010300080912D0290912E029C0122503109223084
:10104000310538F481E290E090932A0280932902DE
:1010500017C0049709F039CE86E990E090932A02F0
:101060008093290220913C0230913D0246EE429F3E
:10107000C001439F900D1124909328028093270272
:101080006091270270912802CB01A0E0B0E0BC0182
:10109000CD012BE0660F771F881F991F2A95D1F786
:1010A0002FE535E040E050E00E94950F3093EB01D2
:1010B0002093EA010895289A88E2E5E0F2E0DF0152
:1010C0001D928A95E9F781E08093050280912F02B5
:1010D0009091300290931E0280931D021092FE01A7
:1010E0001092FF01109200021092010280913302CF
:1010F000882331F01092330280912D020E94230B3D
:101100001092310281E08093020208950E945B08F0
:101110001092050210920202089580912F02909180
:101120003002843691051CF421E020930B022091BB
:10113000050221110FC08039914064F080910B02AB
:10114000882341F080912D0290912E02059711F095
:101150000E945B0880910502882349F180910B026F
:10116000882351F080910602882331F08091090292
:101170008A3011F40E9486088091F6019091F7015F
:101180008A34910564F080913E0290913F0283334E
:1011900091052CF00A9790933F0280933E02809134
:1011A0002102909122029093200280931F020E94BC
:1011B0005D068091060281112DC080912D029091D3
:1011C0002E028530910511F0029740F480912F0294
:1011D0009091300290931E0280931D0280910D0227
:1011E00090910E02019690930E0280930D026091F1
:1011F000FE017091FF01809100029091010220E8B0
:101200003CEF4AE050E00E94730F30931A022093A3
:1012100019020895809109028A3038F490910502EC
:10122000992319F08F5F809309020895CF93A091BD
:10123000F401B091F50128EF34E241E050E00E9462
:10124000D80F20E030EB40E050E00E94950F309343
:10125000220220932102A091F201B091F3012FE527
:1012600035E00E94D10FDC01CB017BE0B595A7955D
:10127000979587957A95D1F79093300280932F02B6
:1012800083E00E944C0221E935E0DC010E94D10F8D
:10129000DC01CB01ECE0B595A79597958795EA958C
:1012A000D1F790932C0280932B0280910502882322
:1012B00009F49CC080912102909122020797CCF4FE
:1012C0008091EC019091ED011816190694F480912B
:1012D0002D0290912E02059761F080910C028111F0
:1012E00008C081E020910D0230910E022B303105B3
:1012F00008F480E044E152E064E10E94250E882376
:1013000049F080910602811103C086E080930602B5
:1013100010920202C0910C02CC2359F080912D0250
:1013200090912E0205972CF41092ED011092EC0191
:1013300015C02091290230912A02A0E0B0EB0E9452
:10134000C20F28EF34E241E050E00E94950F309345
:10135000ED012093EC01CC2309F448C08091F40105
:101360009091F50103970CF041C080912F0290916C
:10137000300290931E0280931D028431954044F404
:1013800080912B0290912C0290931E0280931D025B
:10139000409115025091160220911D0230911E02BB
:1013A00080911B0290911C020097D1F0B901681B3B
:1013B000790BEAE0E69FC001E79F900D1124840FAE
:1013C000951F97FD019695958795BC01641B750B3C
:1013D000709318026093170290931602809315027F
:1013E00010920C0230931C0220931B02CF9108959F
:1013F000CF93DF93EC01862F9A8191709A836623B5
:1014000039F0911102C092E09A839A81916006C0EE
:10141000992311F095E09A839A819E7F9A83AE0179
:1014200064E10E94330E882319F08A8188608A83E0
:10143000DF91CF910895FC01DA01509143025A7077
:1014400080819181552329F0AC01421B530B9A01F5
:1014500006C0509146025A7021F0280F391F31837F
:10146000208380819181861797071CF471836083A4
:101470000895A817B90714F4B183A0830895CF93F2
:10148000DF936CE370E00E945F0F9B01EC0143E08F
:1014900062E0C9010E9490038AE30E94560343E080
:1014A00062E0CE01DF91CF910C94900325E0829F02
:1014B000C0011124825A9E4F0C947603CF93DF9380
:1014C00080912D0225E0829FC0011124825A9E4FF7
:1014D0000E94760380913E0290913F02CAE0D0E0E4
:1014E000BE010E945F0FCB0142E064E00E949003C6
:1014F00083E191E00E94760380912D0290912E026B
:101500008530910559F480913C0290913D02BE01D5
:101510000E945F0FCB0141E063E026C0823091055D
:1015200070F440E062E080913C0290913D020E94A4
:1015300090038EE091E0DF91CF910C9476039C01B3
:10154000225031092230310528F485E0DF91CF9116
:101550000C948503049779F480913C0290913D02AC
:1015600040E063E0880F991F0E94900386E5DF91B9
:10157000CF910C945603DF91CF91089580912D0265
:1015800090912E028530910579F484E091E00E94DB
:10159000760342E064E080913C0290913D020E941B
:1015A000900381E091E02DC08230910518F08430E5
:1015B000910579F489EF90E00E94760340E061E0C4
:1015C00080913C0290913D020E94900388E00C942F
:1015D000850302970297B8F481EF90E00E947603AA
:1015E00080913C0290913D0242E064E02AE0FC01DF
:1015F0002E9FC0012F9F900D11240E9490038BEE0F
:1016000090E00C947603089525E0829FC001112498
:10161000BC016F5F7F4F45E050E08CE392E00E9499
:10162000081190913C0280913E02890F90914002F6
:10163000891741F010923F0210923E0210923D0233
:1016400010923C020895CF93C82F682F8FE190E04D
:101650000E942A11ECE3F2E092818081890F848359
:1016600085E0C89FB00111246F5F7F4F45E050E0D7
:10167000CF01CF910C94201181EE90E00E9476036F
:1016800080912D0225E0829FC0011124825A9E4F35
:101690000E94760383E00C9485032091330130E0AF
:1016A000215031094CE0429FC001439F900D11240D
:1016B0008A5E9E4F0E94760385E00C948503EF922C
:1016C000FF921F93CF93DF938091490281FF07C060
:1016D00081E090913102911180E0809331028091FC
:1016E0003102882349F022E330E040E757E160E02F
:1016F00070E08EE392E008C021E030E045E050E089
:1017000060E070E084E392E00E941B0A80912D0269
:101710009091330191110AC090910602992339F0FA
:1017200090913202992319F086E001C087E025E00C
:10173000829FC0011124825A9E4F0E94760342E08C
:1017400064E080911D0290911E020E94900386E544
:101750000E94560380913102882329F080913E0235
:1017600090913F0214C080912D0290912E02029719
:10177000029748F48091290290912A026AE070E071
:101780000E944B0F08C080911F02909120026AE0D6
:1017900070E00E945F0FCB0142E064E00E94900382
:1017A00080913102882341F080913202882321F018
:1017B00081E00E94850303C081E40E94560381E01A
:1017C0000E946F0380913301882359F08091320287
:1017D000882339F0DF91CF911F91FF90EF900C9407
:1017E0004D0B80913402909135020097C9F480919D
:1017F0000D0290910E026CE370E00E944B0FCB0142
:101800000E943F0A83E00E94850342E065E08091E8
:10181000190290911A020E9490038EED90E020C070
:101820008130910521F589ED90E00E94760342E038
:1018300064E08091F0019091F1010E94900386EDA7
:1018400090E00E94760340E062E08091F601909182
:10185000F7010E9490038FED0E94560383ED90E004
:10186000DF91CF911F91FF90EF900C94760382301F
:10187000910509F03FC0A091F201B091F3012FE56D
:1018800035E00E94D10FDC01CB013BE0B595A79577
:10189000979587953A95D1F742E064E00E949003CE
:1018A00086E50E945603A091F401B091F50128EF5E
:1018B00034E241E050E00E94D80F20E030EB40E0FD
:1018C00050E00E94950FDA01C90143E064E00E94F4
:1018D000900381E40E9456038091EE019091EF0104
:1018E00097FD4F9640E064E025E0959587952A9511
:1018F000E1F719C083309105E9F48EEC90E00E9485
:10190000760340E063E080911502909116020E94F8
:10191000900387EC90E00E94760340E063E08091C2
:10192000170290911802DF91CF911F91FF90EF90D5
:101930000C94900384309105C1F543E064E08091FC
:101940001101909112010E94900386E50E945603B6
:1019500081E30E94560395E1E92E91E0F92E10E013
:10196000C0911101D0911201F701819191917F01F4
:1019700020911401121758F4C81BD90BD7FF09C0C6
:101980008DE20E945603D195C195D10905C0C0E0F2
:10199000D0E08BE20E94560340E062E0CE010E945C
:1019A00090031F5F1330E1F639C00597B9F543E0A6
:1019B00064E080911101909112010E94900386E5EC
:1019C0000E94560384E30E9456038BE1E82E81E0D7
:1019D000F82E13E0C0911101D0911201F70181910D
:1019E00091917F0120911401121758F4C81BD90B53
:1019F000D7FF09C08DE20E945603D195C195D10948
:101A000005C0C0E0D0E08BE20E94560340E062E0F7
:101A1000CE010E9490031F5F1630E1F6DF91CF9157
:101A20001F91FF90EF90089580E00E946F038091D6
:101A3000490283FF12C0877F8093490210924802B7
:101A4000109247021092330180910502882319F009
:101A50000E94860802C00E945B08809131028823A0
:101A600099F09091430290FD04C09091460290FF3E
:101A70000BC091E09093330220910D0230910E0241
:101A80003093100220930F029091050291110C9453
:101A90005F0B81110AC021E030E043E050E060E0DC
:101AA00070E086E392E00E941B0A8091490282FF67
:101AB0001DC080913602909137020097B9F02091B5
:101AC0003102222361F0039751F48091330288237D
:101AD00031F080912D020E94040B1092330281E0BC
:101AE00090913102911180E0809331028091360211
:101AF00090913702009719F40E945E0A64C0813009
:101B0000910531F580913102882351F022E330E0D4
:101B100040E757E160E070E08EE392E00E941B0A2C
:101B200080EC90E00E94760380913E0290913F020B
:101B30006AE070E00E945F0FCB0142E063E00E9428
:101B4000900381E40E94560385E00E9485033BC018
:101B50008230910531F5809131028823F9F080912E
:101B60002D0290912E028530910549F440910A0191
:101B700050910B012AE030E06AE070E00BC0880F62
:101B8000991FFC01E050FF4F4081518121E030E07E
:101B900060E070E08CE392E00E941B0A0E94BE0AA3
:101BA00012C0039781F480913102882351F021E023
:101BB00030E045E050E060E070E08DE292E00E94AD
:101BC0001B0A0E943C0B81E00E946F03809133014D
:101BD000882329F08091320281110C944D0B809161
:101BE0003102882319F08FEA90E019C08091360203
:101BF00090913702892B31F486E00E94850384EAB4
:101C000090E002C087E990E00E947603809136025E
:101C1000909137020197029720F482E990E00C94AA
:101C2000760384E00C948503181619065CF021E015
:101C300030E0892B11F420E030E088279927821BBF
:101C4000930B089581E090E00895FA01811101C09D
:101C500010828081681718F4108281E008958F5FE8
:101C6000808380E00895FA01811102C01182108200
:101C70008081918170E0681779072CF0019691833B
:101C8000808380E0089581E00895CF93DF93CDB7FE
:101C9000DEB7A8970FB6F894DEBF0FBECDBF0E9487
:101CA000E2009EE088E10FB6F894A895809360006A
:101CB0000FBE9093600000E211E0A8950E94C0045E
:101CC000882369F10E94A404BE016F5F7F4F0E94C8
:101CD0004B01892B21F1FE013996A3E1B1E0802F60
:101CE00001900D928A95E1F7609114016623B9F095
:101CF000E5E1F1E080E090E020E030E070E02617E0
:101D000037073CF4419151912F5F3F4F840F951F4E
:101D1000F6CF0E945F0F70931201609311018091C2
:101D2000DC019091DD01A091DE01B091DF014091D5
:101D300038015091390160913A0170913B0184174B
:101D40009507A607B70708F466C00E941609809198
:101D500002028130E1F48091210290912202092E49
:101D6000000CAA0BBB0B4091FE015091FF0160914A
:101D7000000270910102840F951FA61FB71F809368
:101D8000FE019093FF01A0930002B093010266B19F
:101D900065FB662760F9612781E492E00E94F809FB
:101DA00069B162FB662760F9612787E492E00E94CF
:101DB000F80969B163FB662760F9612784E492E062
:101DC0000E94F8098091090280FF06C090910502E7
:101DD000992311F0289A01C02898909133019923F2
:101DE00029F0803F18F48F5F809309020E94140D40
:101DF0008091380190913901A0913A01B0913B0155
:101E0000C296A11DB11D8093380190933901A09312
:101E10003A01B0933B018091340190913501A0913A
:101E20003601B09137014091DC015091DD016091A4
:101E3000DE017091DF01481759076A077B0708F434
:101E40003CCF88519C4FAF4FBF4F8093340190934C
:101E50003501A0933601B093370181E090913202B1
:101E6000911180E08093320280910202813011F45E
:101E70000E94DB010E948D080E94D5051ECF991B90
:101E800079E004C0991F961708F0961B881F7A9571
:101E9000C9F780950895AA1BBB1B51E107C0AA1F73
:101EA000BB1FA617B70710F0A61BB70B881F991FFB
:101EB0005A95A9F780959095BC01CD01089597FB9F
:101EC000072E16F4009407D077FD09D00E944B0F1F
:101ED00007FC05D03EF4909581959F4F089570952D
:101EE00061957F4F0895A1E21A2EAA1BBB1BFD012D
:101EF0000DC0AA1FBB1FEE1FFF1FA217B307E407E9
:101F0000F50720F0A21BB30BE40BF50B661F771F40
:101F1000881F991F1A9469F7609570958095909520
:101F20009B01AC01BD01CF010895052E97FB1EF466
:101F300000940E94AC0F57FD07D00E94730F07FC5E
:101F400003D04EF40C94AC0F5095409530952195EC
:101F50003F4F4F4F5F4F08959095809570956195D5
:101F60007F4F8F4F9F4F0895EE0FFF1F0590F49105
:101F7000E02D09940E94C20F332312F48A1B9B0B9D
:101F80000C94D30FA29FB001B39FC001A39F700D0B
:101F9000811D1124911DB29F700D811D1124911D71
:101FA00008950E94C20FB7FF0895821B930B0895F6
:101FB000B7FF0C94E00F0E94E00F821B930B089573
:101FC0000E94C20FA59F900DB49F900DA49F800DFD
:101FD000911D11240895A0E0B0E0E1EFFFE00C9422
:101FE00048115C016B017A016115710519F0FB0163
:101FF00091838083E114F10429F0C701029783974C
:1020000008F0F1C0E5012196F5011081812F90E0E3
:102010000E94FC10892B11F05E01F4CF1D3229F4CF
:102020002196F501118101E007C01B3221F4E50181
:102030002296F501118100E0E114F10459F1F0E17B
:10204000EF16F10461F41033E1F488818F7D883557
:1020500069F519812296026070E1E72EF12C88E083
:10206000E816F10439F12CF4F2E0EF16F104C9F1AD
:102070002AC08AE0E816F10479F0E0E1EE16F104F6
:1020800011F550E1E52EF12C812C912CA12C68E06A
:10209000B62E2CC01033C9F23AE0E32EF12C4CECF2
:1020A000842E982CA82C4CE0B42E20C010E3E11410
:1020B000F104A9F698E0E92EF12C812C912CA12CA9
:1020C00020E1B22E13C060E070E080E090E897015C
:1020D0000F2C000C440B550B0E94730F49015A0141
:1020E00005C0812C912CA12C80E4B82E60E020E06A
:1020F00030E0A90127010F2C000C660877081E01AB
:10210000E0EDE10FEA3060F08FEB810F8A3110F4DF
:10211000E9EC05C08FE9810F8A3128F5E9EAE10F82
:102120008E2F90E08E159F05F4F467FD18C082167F
:102130009306A406B50690F0C301B2010E943811BF
:102140009B01AC012E0F311D411D511D2130310568
:102150004105F0E85F0710F461E001C06FEF2196E0
:10216000F1011081CCCF802F8170C114D10471F0A6
:10217000662329F02197F601D183C08307C001FFB0
:1021800019C02297F601D183C08314C067FF12C023
:10219000811105C02FEF3FEF4FEF5FE704C020E054
:1021A00030E040E050E882E290E090934B02809370
:1021B0004A0216C0882341F05095409530952195EC
:1021C0003F4F4F4F5F4F0CC057FF0AC082E290E075
:1021D00090934B0280934A022FEF3FEF4FEF5FE760
:1021E000B901CA0104C060E070E080E090E0CDB7C2
:1021F000DEB7E2E10C94641191110C940511803268
:1022000019F089508550C8F70895992788270895AF
:10221000DC01CB01FC01F999FECF06C0F2BDE1BDA6
:10222000F89A319600B40D9241505040B8F7089595
:10223000F999FECF92BD81BDF89A992780B508958E
:10224000DC01CB0103C02D910E942B114150504065
:10225000D0F70895262FF999FECF1FBA92BD81BD00
:1022600020BD0FB6F894FA9AF99A0FBE0196089518
:10227000DB018F939F930E94E00FBF91AF91A29FCC
:10228000800D911DA39F900DB29F900D1124089574
:102290002F923F924F925F926F927F928F929F9276
:1022A000AF92BF92CF92DF92EF92FF920F931F9364
:1022B000CF93DF93CDB7DEB7CA1BDB0B0FB6F89415
:1022C000DEBF0FBECDBF09942A88398848885F8455
:1022D0006E847D848C849B84AA84B984C884DF80C6
:1022E000EE80FD800C811B81AA81B981CE0FD11DAA
:1022F0000FB6F894DEBF0FBECDBFED010895F89480
:02230000FFCF0D
:0C23020006000700AC26AC260600C4094B
:00000001FF
