:100000009CC0B6C0B5C0B4C0B3C0B2C0B1C0B0C06F
:10001000AFC054C1ADC0ACC0ABC0AAC097C1A8C0EE
:10002000A7C0A6C0A5C056657273696F6E3A00205E
:1000300020204D41582D4C61646572202020200005
:10004000202D3E2000203C2D20202045696E737419
:100050002E00537461727420202D3E200056200023
:1000600020202D202020204F4B202020202B20201E
:10007000005374726F6D3D00206464753D006475BB
:100080003D0043200056200055696E3D0041680048
:1000900050726F6772616D6D3D00416820202000D5
:1000A0004D61782043203D005A656C6C656E3D00C3
:1000B0005620005370616E6E756E673D005A656C18
:1000C0006C004120002020202055696E2020202037
:1000D0000054656D706572617475722000204C610A
:1000E00064657A6569742020004B75727A73636861
:1000F0006C7573730020205A656C6C656E2020202F
:1001000000202057616E646C65722020004C69509D
:100110006F004C694876004C694665004E694D6831
:10012000004E6943610050422020005549202000C4
:10013000454E444500455252200011241FBECFE5D4
:10014000D4E0DEBFCDBF10E0A0E6B0E0E4EBFBE121
:1001500002C005900D92A238B107D9F721E0A2E8BC
:10016000B0E001C01D92A039B207E1F7F5DB20CD68
:1001700047CFB89A83E389B910BC82E08BB988E095
:100180008AB9B3D110922D0110922E0110922F0135
:100190001092300185E082BF89B7816089BF84E019
:1001A00083BF17B88EED86B981EB8FBD89E08EBD18
:1001B000C298BA9A7894AD9A929A939A75D6C09A40
:1001C00080E09ED18FE290E0A1D181E099D186E2DA
:1001D00090E09CD141E062E083E190E0AFD164E83F
:1001E00073E080E090E013D2C09864E873E080E0B0
:1001F00090E00DD284E290E0BDDC90E08730910584
:100200002CF4909374018093730104C010927401D4
:100210001092730180917301EEC840E065E0809117
:1002200055019091560117D242E064E0809175012A
:100230009091760110D243E064E080916301909147
:10024000640109D242E064E080915D0190915E0119
:1002500002D240E060E08091590190915A01FBD1B7
:1002600040E060E080915B0190915C01F4D180916D
:1002700035019091360197FDCF9640E060E026E091
:10028000959587952A95E1F7E6D142E064E0809163
:10029000370190913801DFD140E060E080913D016D
:1002A00090913E01D8D142E064E08091610190914B
:1002B0006201D1D18DE0CBD18AE0C9C11F920F92EA
:1002C0000FB60F9211248F939F93AF93BF9385E046
:1002D00082BF80912D0190912E01A0912F01B091AC
:1002E00030010496A11DB11D80932D0190932E0124
:1002F000A0932F01B0933001BF91AF919F918F9147
:100300000F900FBE0F901F90189590E2899FB0013B
:10031000112420E030E080E090E0DC01F901E60FFC
:10032000F71FE357FF4F40815181840F951FA11D97
:10033000B11D2E5F3F4F2032310581F722E0B69587
:10034000A795979587952A95D1F708951F920F92B3
:100350000FB60F9211242F933F934F935F936F9398
:100360007F938F939F93AF93BF93EF93FF9380916E
:10037000820024B195B13091830040E1849FF00167
:100380001124E30FF11DEE0FFF1FE357FF4F30E085
:10039000392B318320838F5F65E043DB90938200AC
:1003A00087B1807E982B97B9369A8091820081110F
:1003B0000AC0809183008F5F982F9F709093830075
:1003C000837009F4B7D1FF91EF91BF91AF919F91E5
:1003D0008F917F916F915F914F913F912F910F90EE
:1003E0000FBE0F901F901895BB9ABC9ABD9A81B30F
:1003F0008F7081BB82B3806F82BB0895C39881B335
:100400008F7081BB82B3806F82BBC49AC59A000093
:10041000000000000000000000000000879B16C0E4
:1004200080E080FD15C0C5980000000000000000BD
:1004300000000000000000000000000000000000BC
:10044000000000008F5F843061F7E8CFC598089501
:10045000C59AEACFCF93DF9300D0CDB7DEB76A83DA
:100460008983CCDF89816A81813011F4C39A01C00C
:10047000C398C498C59A81B3806F81BB82B3962F0D
:10048000907F8F70892B82BB00000000000000006D
:10049000000000000000C5980000000000000000FF
:1004A000000000000000C59A82B390E1699FB0018E
:1004B00011248F70682B62BB000000000000000058
:1004C000000000000000C59881B38F7081BB82B32B
:1004D000806F82BB0F900F90DF91CF910895682FAE
:1004E00081E0B8CF682F80E0B5CF7EDF88E2FADF09
:1004F00081E0F8DF86E0F6DF8CE0F4DF82E0F2CF27
:100500008295880F880F807C8068ECCFCF93DF9333
:10051000FC018491EF012196882319F0E0DFFE01B0
:10052000F8CFDF91CF910895CF93C82FCC2321F03E
:1005300080E2D5DFC150FACFCF910895BF92CF921C
:10054000DF92EF92FF920F931F93CF93DF937C0183
:10055000162FB42E97FF07C0F194E194F1088DE2B5
:10056000BEDF01E001C000E0812FC1E0D0E09AE0F1
:10057000823040F09E01929FE001939FD00D1124A4
:100580008150F6CF8AE0C82ED12CB11202C08EE283
:10059000A6DF1150C701BE0150DACB01B6014DDA1A
:1005A000009739F4B11628F4011103C080E297DFF7
:1005B00003C0805D94DF01E0CE01B6013EDAEB01BD
:1005C000209719F7DF91CF911F910F91FF90EF9036
:1005D000DF90CF90BF9008958F3F910571F06CF040
:1005E000BA9AB99A2FEF2ABD833B21E0920714F003
:1005F00082EB91E08F5F88BD089518BC181619062C
:100600001CF0B9981ABC0895B99A8ABD08950F9341
:100610001F9300912D0110912E0120912F013091F7
:100620003001DC01CB01800F911FA21FB31F00918D
:100630002D0110912E0120912F0130913001801752
:100640009107A207B30798F71F910F9108955D9B3B
:10065000FECF8CB90895BF92CF92DF92EF92FF92B6
:100660000F931F93CF93DF937C01162FB42E97FF28
:1006700005C0F194E194F10801E001C000E011230C
:1006800029F0812FC1E0D0E09AE014C011E0C1E070
:10069000D0E02AE0C701BE01D0D96A307105A0F0D0
:1006A000153091F0CE01289FE001299FD00D112433
:1006B0001F5FF0CF813041F09E01929FE001939F38
:1006C000D00D11248150F6CF80E2C1DF002311F05C
:1006D0008DE201C080E2BBDF8AE0C82ED12CB112CE
:1006E00002C08EE2B4DF1150C701BE01A6D9CB0112
:1006F000B601A3D9805DABDFCE01B6019ED9EB0177
:10070000209769F7DF91CF911F910F91FF90EF90A4
:10071000DF90CF90BF900895CF93DF93FC01849139
:10072000EF012196882319F092DFFE01F8CFDF91C7
:10073000CF910895CF93DF9382E0E7DD90933C0162
:1007400080933B0181E0E1DD9C01C0913B01D091B0
:100750003C01CE0167E87FEF84D9620F731F70936D
:100760003A01609339011092400110923F0180914B
:100770004301813009F0F3C0809184008111EFC002
:10078000A0913101B09132011A161B060CF0E7C09E
:10079000CC382EE0D20754F0653971053CF484E082
:1007A000809384001092360110923501E09133015C
:1007B000F09134019F01F7FF02C0215F3F4FA90173
:1007C00084E0559547958A95E1F74F5F5F4F4C0F51
:1007D0005D1F9D01261B370B4E175F07A4F080910C
:1007E0004401853080F48F5F80934401853059F453
:1007F00081E080934501A617B707ACF480914401CE
:10080000811105C00BC0A617B707C4F307C08150FC
:1008100080934401811102C01092450180914501ED
:10082000882309F45BC0CF018C1B9D0B37FD05C0ED
:100830009093400180933F0108C0220F331F280F7F
:10084000391F3093400120933F0180913F019091E7
:1008500040019C0197FF02C0215C3F4F76E0359537
:1008600027957A95E1F72115310551F418161906E7
:100870002CF0009729F02FEF3FEF02C021E030E08D
:100880004091350150913601420F531F405C5F4F3C
:10089000413C5C4650F44091410150914201240F8B
:1008A000351F309342012093410120914101309145
:1008B0004201EF2B71F097FD4F9665E09595879576
:1008C0006A95E1F7820F931F90933601809335016B
:1008D0004EC0109236011092350149C0309340014C
:1008E00020933F01C90137FD0F9654E095958795F8
:1008F0005A95E1F7009759F41216130634F02115B2
:10090000310529F08FEF9FEF02C081E090E0409128
:10091000350150913601480F591F405C5F4F413CF3
:100920005C4650F44091410150914201840F951F63
:10093000909342018093410137FF02C02D5F3F4FEA
:1009400035952795359527958091410190914201E4
:10095000280F391F309336012093350108C01092BB
:10096000360110923501109242011092410180919E
:1009700035019091360181382CE692073CF080E8F1
:100980009CE6909336018093350106C097FF04C022
:100990001092360110923501809135019091360107
:1009A00097FDCF9626E0959587952A95E1F7DF91FB
:1009B000CF9112CECF92DF92EF92FF92CF93DF933F
:1009C00084E0A3DCEC01D595C795D595C7959E012C
:1009D000DE0198D828E437E040E050E077D869019C
:1009E0007A0124E630E0DE019FD826EE3EEF4FEF9D
:1009F0005FEF6CD8C601820F931F9C012D5A3F4FA9
:100A000030933E0120933D0180918400811167C0A5
:100A10007CDC23E0880F991F2A95E1F76CE070E0F9
:100A200020D87093380160933701675B734081E091
:100A30006D3E724008F480E047E451E065E06CD719
:100A4000882319F081E08093840081E020913D01AA
:100A500030913E01253431050CF480E048E451E04A
:100A60006AE05AD7882319F082E08093840080914D
:100A70003F019091400181509E4F8F3F934000F580
:100A8000809135019091360180389C46CCF440919C
:100A90003B0150913C01052E000C660B770B8091B9
:100AA000330190913401092E000CAA0BBB0B845D1D
:100AB0009E4FAF4FBF4F84179507A607B7072CF47B
:100AC00081E090914301913009F080E046E451E0EB
:100AD0006AE022D7882319F086E080938400DF91B2
:100AE000CF91FF90EF90DF90CF90089580914901D2
:100AF000882321F080918400882319F0109243010B
:100B000097C180914A01811167C1E0915501F0912F
:100B10005601E13820E7F20718F083E08093840063
:100B200020917301309174012630310569F4809170
:100B300082019091830190936A0180936901809171
:100B400084019091850158C1233031050CF065C0B6
:100B5000E134F84318F084E080934A016091820107
:100B600070918301220F331FF901EA59FF4F408131
:100B70005181649FC001659F900D749F900D112459
:100B800090936A01809369014091750150917601BB
:100B9000F901E05AFF4F0190F081E02D6E9F900126
:100BA0006F9F300D7E9F300D1124421753074CF07C
:100BB0009C01225E3F4F81E02417350718F080E04A
:100BC00001C081E042E551E064E1A6D6882319F036
:100BD00085E08093840080918401909185019093B9
:100BE0006C0180936B019C01E4E035952795EA95B3
:100BF000E1F781E0409163015091640124173507CA
:100C00000CF480E041E551E064EB86D6882309F4DA
:100C10000FC181E080934A010BC1C901039702977C
:100C200008F0B1C0CF016CE370E007D70A9719F460
:100C300081E0809350018CE89AE090936A01809360
:100C4000690180918201909183016AE0689FA0010F
:100C5000699F500D112460915D0170915E016417D0
:100C6000750734F0181619061CF485E080934A01C4
:100C70004091840150918501EF31F105E0F49F012D
:100C800063E0369527956A95E1F72F5F3F4F249FE4
:100C9000C001259F900D349F900D11249695879546
:100CA0009695879590936C0180936B01F093580112
:100CB000E0935701BDC050936C0140936B0180914C
:100CC000570190915801AF01481B590B453B510505
:100CD00008F4AEC08091590190915A012430310539
:100CE00069F4853C5FEF950774F520915B013091C5
:100CF0005C01281739073CF182E023C0893D2FEFC2
:100D000092075CF420915B0130915C012817390750
:100D10004CF082E080934A0105C01816190614F4BD
:100D200080E008C080915B0190915C011816190663
:100D3000BCF381E041E551E06EEFEED5882319F078
:100D400083E080934A01809161019091620120913A
:100D50006701309168012817390724F490936801DE
:100D6000809367012091670130916801AC01421BBB
:100D7000530B9A0181E0293F3F4F0CF080E043E59F
:100D800051E065EB42CF2530310519F52091820104
:100D90003091830140EF429FC001439F900D112489
:100DA00090936A01809369018091840190918501FB
:100DB00090936C0180936B0181E0209163013091ED
:100DC0006401283C31050CF080E041E551E068EC1D
:100DD0001CCF109249012CC080914301882341F11E
:100DE00080917301909174019C012350310922304C
:100DF000310538F484E190E090936C0180936B01AD
:100E000017C0059709F07ACE86E990E090936C01BF
:100E100080936B01209182013091830146EE429FC5
:100E2000C001439F900D112490936A018093690142
:100E30006091690170916A01CB01A0E0B0E0BC0152
:100E4000CD012BE0660F771F881F991F2A95D1F7D8
:100E50002FE535E040E050E039D630933201209361
:100E600031010895C09A8AE2E9E4F1E0DF011D92C0
:100E70008A95E9F781E0809349018091750190910D
:100E800076019093620180936101809179018823BA
:100E900029F01092790180917301CBD210927701E1
:100EA00081E0809343010895DDDF109249011092A3
:100EB00043010895809175019091760184369105E2
:100EC0001CF421E020934F012091490121110EC013
:100ED000883C91055CF080914F01882339F0809126
:100EE000730190917401069709F0BCDF809149016C
:100EF0008823B9F180914F01882349F080914A01FC
:100F0000882329F080914D018A3009F4CDDF80914A
:100F10003D0190913E018A34910564F080918401F5
:100F200090918501833391052CF00A979093850168
:100F30008093840180916301909164019C01220F50
:100F4000331F820F931F2091650130916601820F3C
:100F5000931F9595879595958795909366018093B6
:100F60006501C4DD80914A01811134C08091730113
:100F7000909174018630910511F0039784F42091CB
:100F80006101309162018091750190917601820F2B
:100F9000931F95958795909362018093610180914D
:100FA00055019091560101969093560180935501F9
:100FB00060916D0170916E0180916F01909170014F
:100FC00020E83CEF4AE050E05FD530935E0120938B
:100FD0005D01089580914D018A3038F49091490166
:100FE000992319F08F5F80934D010895A0913B01E3
:100FF000B0913C0128EF34E241E050E09BD520E085
:1010000030EB40E050E062D5809163019091640143
:10101000BC01660F771F860F971F092E000CAA0BC5
:10102000BB0B820F931FA41FB51FF2E0B595A795C8
:1010300097958795FA95D1F7909364018093630112
:10104000A0913901B0913A012FE535E06DD5DC0171
:10105000CB012BE0B595A795979587952A95D1F764
:101060002091750130917601A901440F551F240F7D
:10107000351FB901680F791F759567957595679547
:10108000709376016093750183E03FD921E935E0E3
:10109000DC014AD5DC01CB01FCE0B595A79597951D
:1010A0008795FA95D1F790937201809371018091A1
:1010B0004901882309F4AAC0209163013091640199
:1010C000A901032E000C660B770B80916D019091A6
:1010D0006E01A0916F01B0917001840F951FA61F42
:1010E000B71F80936D0190936E01A0936F01B09331
:1010F000700127303105CCF4809133019091340197
:101100001816190694F48091730190917401069752
:1011100061F080915001811108C081E0209155015A
:10112000309156012D33310508F480E044E551E05B
:1011300060E5F2D3882349F080914A01811103C010
:1011400086E080934A011092430120916B01309117
:101150006C01A0E0B0EBDCD428EF34E241E050E0D9
:10116000B5D430933401209333018091500188230A
:1011700009F44CC010923401109233018091630144
:101180009091640103970CF041C08091750190919A
:10119000760190936201809361018431954044F41B
:1011A000809171019091720190936201809361012D
:1011B0004091590150915A01209161013091620191
:1011C00080915F01909160010097D1F0B901681B97
:1011D000790BEAE0E69FC001E79F900D1124840F90
:1011E000951F97FD019695958795BC01641B750B1E
:1011F00070935C0160935B0190935A018093590155
:101200003093600120935F01109250010895CF93B5
:10121000DF93EC01862F9A8191709A83662339F0CF
:10122000911102C092E09A839A81916006C099233D
:1012300011F095E09A839A819E7F9A83AE0164E1D2
:1012400079D3882319F08A8188608A83DF91CF91CE
:101250000895FC01DA01509189015A7080819181D1
:10126000552329F0AC01421B530B9A0106C0509143
:101270008C015A7021F0280F391F3183208380811F
:101280009181861797071CF4718360830895A817CE
:10129000B90714F4B183A0830895CF93DF936CE36F
:1012A00070E0DFD39B01EC0143E062E0C90146D965
:1012B0008AE315D943E062E0CE01DF91CF913EC9C8
:1012C00025E0829FC0011124835F9E4F1FC9CF93E9
:1012D000DF938091730125E0829FC0011124835F19
:1012E0009E4F14D98091840190918501CAE0D0E08D
:1012F000BE01B7D3CB0142E064E020D982EC90E09C
:1013000005D980917301909174018630910551F453
:101310008091820190918301BE01A3D3CB0141E072
:1013200063E023C08330910564F440E062E0809183
:1013300082019091830102D98DEB90E0DF91CF91F2
:10134000E5C89C01235031092230310520F485E0A5
:10135000DF91CF91E9C8059769F48091820190915E
:10136000830140E063E0880F991FE8D886E5DF91AC
:10137000CF91B5C8DF91CF9108958091730190917D
:1013800074018630910569F483EB90E0BFD842E0A8
:1013900064E08091820190918301D0D880EB90E04D
:1013A00028C0833091051CF08530910561F488EAEE
:1013B00090E0ACD840E061E080918201909183019F
:1013C000BDD886E0B1C803970297A0F480EA90E008
:1013D0009DD8809182019091830142E064E02AE0EF
:1013E000FC012E9FC0012F9F900D1124A7D88AE9E0
:1013F00090E08CC8089525E0829FC0011124BC01B3
:101400006F5F7F4F45E050E082E891E0A3D3909179
:10141000820180918401890F90918601891741F0A2
:101420001092850110928401109283011092820122
:101430000895CF93C82F682F84E290E0ACD3E2E800
:10144000F1E092818081890F848385E0C89FB0019B
:1014500011246F5F7F4F45E050E0CF01CF9192C3E1
:1014600080E990E053D88091730125E0829FC0010C
:101470001124835F9E4F4AD883E056C82091840090
:1014800030E0215031094CE0429FC001439F900D54
:1014900011248B539F4F3AD885E046C880918F0125
:1014A00081FF07C081E090917701911180E08093E6
:1014B000770180917701882349F022E330E040E70B
:1014C00057E160E070E084E891E008C021E030E09E
:1014D00045E050E060E070E08AE791E0BADE80919C
:1014E00073019091840091110AC090914A0199234F
:1014F00039F090917801992319F087E001C088E0D4
:1015000025E0829FC0011124835F9E4FFFD742E0F8
:1015100064E0809161019091620110D886E5DFD787
:1015200080917701882329F0809184019091850131
:1015300013C080917301909174010397029740F456
:1015400080916B0190916C016AE070E076D207C0E7
:1015500080916501909166016AE070E082D2CB01D2
:1015600042E064E0EBD780917701882331F08091ED
:101570007801882311F080E201C081E4B0D781E0D6
:10158000BFD780918400882321F080917801811158
:1015900075CF80917A0190917B010097A9F4809199
:1015A0005501909156016CE370E047D2CB0175DE96
:1015B00083E0BAD742E065E080915D0190915E01E1
:1015C000BDD78DE890E01BC081309105C9F488E853
:1015D00090E09CD742E064E080913701909138011F
:1015E000ADD785E890E092D740E062E080913D0180
:1015F00090913E01A3D78FED72D782E890E086C725
:1016000082309105C1F5A0913901B0913A012FE5E1
:1016100035E08AD2DC01CB013BE0B595A7959795E3
:1016200087953A95D1F742E064E088D786E557D7A9
:10163000A0913B01B0913C0128EF34E241E050E041
:1016400079D220E030EB40E050E040D2DA01C9012D
:1016500043E064E073D781E442D7809135019091F3
:10166000360197FDCF9640E064E026E0959587959A
:101670002A95E1F763C70397B1F48EE790E046D768
:1016800040E062E08091590190915A0157D788E774
:1016900090E03CD740E062E080915B0190915C017A
:1016A0004DD784E041C70895CF9380914D0180FFCD
:1016B00006C090914901992311F0C09A01C0C098C9
:1016C00090918400992329F0803F18F48F5F8093D4
:1016D0004D0163B3C1E065FB662760F96C2787E8BD
:1016E00091E095DD60B362FB662760F96C278DE8B9
:1016F00091E08DDD60B363FB662760F96C278AE8B3
:1017000091E085DD80E0FCD680918F0183FF10C0E1
:10171000877F80938F0110928E0110928D0110921D
:10172000840080914901882311F0BEDB01C09ADB5F
:1017300080917701882399F09091890190FD04C0F0
:1017400090918C0190FF0BC091E0909379012091D2
:1017500055013091560130935801209357019091D3
:101760004901992311F0CF9199CE811109C021E04F
:1017700030E043E050E060E070E08CE791E069DD4C
:1017800080918F0182FF1CC080917C0190917D012E
:101790000097B1F020917701222359F0039749F483
:1017A00080917901882329F08091730124DE1092C1
:1017B000790181E090917701911180E08093770128
:1017C00080917C0190917D01009711F480DD58C0DB
:1017D0008130910501F580917701882349F022E35A
:1017E00030E040E757E160E070E084E891E031DD0F
:1017F00081E790E08BD680918401909185016AE029
:1018000070E02FD1CB0142E063E098D681E467D647
:1018100085E08AD635C08230910511F58091770137
:101820008823E1F0809173019091740186309105D5
:1018300039F42AE030E044EC59E06AE070E00BC093
:10184000880F991FFC01EC58FF4F4081518121E026
:1018500030E060E070E082E891E0FBDC8EDD10C0FB
:10186000039771F480917701882349F021E030E0FB
:1018700046E050E060E070E083E791E0EADCF0DD14
:1018800081E03ED680918400882331F080917801F8
:10189000882311F0CF91F2CD80917701882319F040
:1018A00080E690E023C080917C0190917D01892B9E
:1018B00089F480913701909138016AE070E0D1D0CD
:1018C000CB0141E063E03AD68DE590E01FD682E59A
:1018D00090E002C085E490E019D680917C0190915F
:1018E0007D010197029720F480E490E0CF910EC62D
:1018F00084E0CF9119C6181619065CF021E030E09B
:10190000892B11F420E030E088279927821B930B64
:10191000089581E090E00895FA01811101C01082DC
:101920008081681718F4108281E008958F5F8083AA
:1019300080E00895FA01811102C011821082808135
:10194000918170E0681779072CF00196918380836C
:1019500080E0089581E008950CD49EE088E10FB600
:10196000F894A89581BD0FBE91BDA89580912D01D9
:1019700090912E01A0912F01B091300140918900EA
:1019800050918A0060918B0070918C0084179507AC
:10199000A607B707A8F02ADB87DE8091890090911F
:1019A0008A00A0918B00B0918C00C296A11DB11D40
:1019B0008093890090938A00A0938B00B0938C0051
:1019C0008091850090918600A0918700B091880059
:1019D00040912D0150912E0160912F0170913001A5
:1019E000481759076A077B0708F4BFCF88519C4FF7
:1019F000AF4FBF4F8093850090938600A0938700E0
:101A0000B093880081E090917801911180E08093FB
:101A1000780180914301813009F4FFD34BDACAD7B2
:101A2000A4CF991B79E004C0991F961708F0961B64
:101A3000881F7A95C9F780950895AA1BBB1B51E1B1
:101A400007C0AA1FBB1FA617B70710F0A61BB70B2E
:101A5000881F991F5A95A9F780959095BC01CD01D3
:101A6000089597FB072E16F4009406D077FD08D052
:101A7000E4DF07FC05D03EF4909581959F4F0895D3
:101A8000709561957F4F0895A1E21A2EAA1BBB1B8A
:101A9000FD010DC0AA1FBB1FEE1FFF1FA217B3073A
:101AA000E407F50720F0A21BB30BE40BF50B661F50
:101AB000771F881F991F1A9469F760957095809514
:101AC00090959B01AC01BD01CF010895052E97FBB8
:101AD00016F400940FD057FD05D0D6DF07FC02D0D6
:101AE00046F408C050954095309521953F4F4F4F93
:101AF0005F4F089590958095709561957F4F8F4FBA
:101B00009F4F089505D0332312F48A1B9B0B0DC001
:101B1000A29FB001B39FC001A39F01D0B29F700DDF
:101B2000811D1124911D0895F3DFB7FF0895821BD5
:101B3000930B0895B7FF04C003D0821B930B089545
:101B4000E7DFA59F900DB49F900DA49F800D911D80
:101B500011240895DC01CB01FC01E199FECF06C000
:101B6000FFBBEEBBE09A31960DB20D924150504052
:101B7000B8F70895E199FECF9FBB8EBBE09A9927F5
:101B80008DB30895DC01CB0102C02D9105D04150E9
:101B90005040D8F70895262FE199FECF9FBB8EBB0A
:101BA0002DBB0FB6F894E29AE19A0FBE0196089504
:041BB000F894FFCFD7
:101BB40018011801C800A401AE016801000000006A
:101BC400F0000000060006000700AC26AC26060064
:021BD400C40942
:00000001FF
