:100000000C94C7000C94E4000C94E4000C94E400FD
:100010000C94E4000C94E4000C94E4000C94E400D0
:100020000C94E4000C94E4000C94E4000C94E400C0
:100030000C94E4000C94E4000C94E4000C94E400B0
:100040000C948F020C94E4000C9448050C94E4008A
:100050000C94E4000C94D7020C94E4000C94E4009B
:100060000C94E4000C94E40065016D0172017701C9
:100070007E018B01B401D00156657273696F6E3ACF
:10008000002020204D41582D4C616465723136208E
:100090002000202D3E2000203C2D20202045696E90
:1000A00073742E00537461727420202D3E2000560C
:1000B000200020202D202020204F4B202020202BEE
:1000C0002020005374726F6D3D0020647574743D80
:1000D000006475743D0043200056200055696E3D54
:1000E0000041680050726F6772616D6D3D0041683C
:1000F000202020004D61782043203D005A656C6C23
:10010000656E3D005620005370616E6E756E673DE2
:10011000005A656C6C004120002020202055696E3B
:10012000202020200054656D706572617475722006
:1001300000204C6164657A6569742020004B7572FB
:100140007A7363686C7573730020205A656C6C65F4
:100150006E20202000202057616E646C6572202084
:10016000004C69506F004C694876004C6946650048
:100170004E694D68004E6943610050422020005591
:1001800049202000454E444500455252200011248C
:100190001FBECFEFD4E0DEBFCDBF11E0A0E0B1E0E5
:1001A000EAECF5E202C005900D92A232B107D9F750
:1001B00024E0A2E2B1E001C01D92A235B207E1F74E
:1001C0000E94A80F0C94E3120C940000209A8FEC6C
:1001D0008093C4001092C50082E08093C00088E93B
:1001E0008093C1000E94C8038EEF80930A02109290
:1001F00006021092F6011092F7011092F801109287
:10020000F90185E086BD80916E00816080936E006B
:1002100084E085BD10927C008EED80937A0081EBA6
:100220008093800089E0809381002A98229A7894B4
:10023000459A5A9A5B9A0E94BC09289A80E00E94CB
:10024000D90381E890E00E94E00381E00E94D90395
:1002500088E790E00E94E00341E062E080E190E006
:100260000E94FA0368EE73E080E090E00E946F0461
:10027000289868EE73E080E090E00E946F0484E2CA
:1002800090E00E947C1290E0873091052CF49093CE
:1002900034048093330404C0109234041092330465
:1002A000809133040C945B0C0F931F93CF93DF93D7
:1002B000EB01E8814E2F50E04830510508F07CC03A
:1002C000FA01EC5CFF4F0C9418118A3009F075C0EC
:1002D00081E0888319821A8270C0853F09F06CC062
:1002E00082E05CC08C3009F067C083E057C088238F
:1002F00009F462C094E0988388875FC0882309F47A
:100300005BC095E0988390ED980F998781538E306C
:1003100008F052C052C0882309F44EC09981FB01F5
:10032000E90FF11D8383148281E0890F8983843072
:1003300008F443C00A8110E040E150E060E070E062
:10034000CE0103960E944F11F8013596EE0FFF1F64
:10035000EC0FFD1F718360838A818F5F8A8319820E
:100360009985891750F118C0882331F19981FB01D3
:10037000E90FF11D8383148281E0890F8983843022
:10038000E0F040E150E060E070E0CE0103960E94B2
:100390004F117FA36EA3198288818F5F88830DC060
:1003A000188221E030E08D3011F020E030E0882725
:1003B0009927821B930B03C0188280E090E0DF91A5
:1003C000CF911F910F91089580910A028F3FD9F428
:1003D0008091240190912501892BA9F4809122011B
:1003E00090912301892B79F48FEF0E948F048FEA7B
:1003F0000E948F048FEB0E948F0481E090E0909325
:100400002301809322018091220190912301892B65
:10041000B9F08091240190912501883E21E0920756
:1004200078F4FC01EC5FFD4F80810E948F04809185
:100430002401909125010196909325018093240138
:100440008091240190912501883E914089F480910A
:10045000220190912301019759F4109223011092E7
:1004600022018EEF80930A0210922501109224013E
:1004700008958091220190912301892B09F04EC0AB
:1004800040E065E080911304909114040E9496046A
:1004900042E064E080913504909136040E94960415
:1004A00043E064E080912704909128040E94960420
:1004B00042E064E080911F04909120040E94960421
:1004C00040E060E08091FE039091FF030E9496045B
:1004D00040E060E080910004909101040E94960445
:1004E00042E064E08091F2039091F3030E9496044D
:1004F00040E063E08091F8039091F9030E94960434
:1005000042E064E080912304909124040E949604C8
:100510008DE00E948F048AE00C948F0408951F924E
:100520000F920FB60F9211248F939F93AF93BF93A7
:1005300085E086BD8091F6019091F701A091F801C8
:10054000B091F9010496A11DB11D8093F60190931D
:10055000F701A093F801B093F901BF91AF919F917A
:100560008F910F900FBE0F901F90189590E2899F6A
:10057000B001112420E030E080E090E0DC01F901DE
:10058000E60FF71FEA5AFE4F40815181840F951FF5
:10059000A11DB11D2E5F3F4F2032310581F722E0B2
:1005A000B695A795979587952A95D1F708951F92A7
:1005B0000F920FB60F9211242F933F934F935F9397
:1005C0006F937F938F939F93AF93BF93EF93FF931B
:1005D0008091260120917800909179003091270137
:1005E00040E1849FF0011124E30FF11DEE0FFF1F86
:1005F000EA5AFE4F30E0392B318320838F5F65E06C
:100600000E94A3109093260180917C00807E982BFD
:1006100090937C0080917A00806480937A0080912E
:10062000260181110BC0809127018F5F982F9F7049
:1006300090932701837011F40E943A06FF91EF9185
:10064000BF91AF919F918F917F916F915F914F91EA
:100650003F912F910F900FBE0F901F901895239AE6
:10066000249A259A8AB18F708AB98BB1806F8BB921
:1006700008952B988AB18F708AB98BB1806F8BB92E
:100680002C9A2D9A000000000000000000000000DD
:1006900000004F9B16C080E080FD15C02D98000023
:1006A000000000000000000000000000000000004A
:1006B000000000000000000000008F5F843061F740
:1006C000E8CF2D9808952D9AEACFCF93DF9300D0ED
:1006D000CDB7DEB76A8389830E94390389816A8135
:1006E000813011F42B9A01C02B982C982D9A8AB145
:1006F000806F8AB98BB1962F907F8F70892B8BB9C1
:1007000000000000000000000000000000000000E9
:100710000000000000000000000000002D98000014
:1007200000000000000000000000000000000000C9
:10073000000000000000000000002D9A8BB190E145
:10074000699FB00111248F70682B6BB90000000005
:100750000000000000000000000000000000000099
:1007600000000000000000002D988AB18F708AB947
:100770008BB1806F8BB90F900F90DF91CF9108955F
:10078000682F81E00C946503682F80E00C9465036A
:100790000E942F0388E20E94C40381E00E94C403E8
:1007A00086E00E94C4038CE00E94C40382E00C94A3
:1007B000C4038295880F880F807C80680C94C403E2
:1007C000CF93DF93FC018491EF012196882321F0E0
:1007D0000E94C003FE01F7CFDF91CF910895CF9320
:1007E000C82FCC2329F080E20E94C003C150F9CF6A
:1007F000CF910895BF92CF92DF92EF92FF920F9325
:100800001F93CF93DF937C01162FB42E97FF08C060
:10081000F194E194F1088DE20E94C00301E001C06F
:1008200000E0812FC1E0D0E09AE0823040F09E01EC
:10083000929FE001939FD00D11248150F6CF8AE062
:10084000C82ED12CB11203C08EE20E94C0031150F9
:10085000C701BE010E94AF10CB01B6010E94AF10CC
:10086000009741F4B11630F4011104C080E20E94F7
:10087000C00304C0805D0E94C00301E0CE01B60148
:100880000E94AF10EB012097E9F6DF91CF911F9105
:100890000F91FF90EF90DF90CF90BF9008958F3F22
:1008A000910581F07CF0229A219A2FEF2093880005
:1008B000833B21E0920714F082EB91E08F5F8093FD
:1008C0008A00089510928A001816190624F02198BB
:1008D000109288000895219A8093880008950F93BC
:1008E0001F930091F6011091F7012091F8013091CA
:1008F000F901DC01CB01800F911FA21FB31F0091F2
:10090000F6011091F7012091F8013091F90180175B
:100910009107A207B30798F71F910F91089590913F
:10092000C00095FFFCCF8093C6000895BF92CF9280
:10093000DF92EF92FF920F931F93CF93DF937C018F
:10094000162FB42E97FF05C0F194E194F10801E051
:1009500001C000E0112329F0812FC1E0D0E09AE02E
:1009600015C011E0C1E0D0E02AE0C701BE010E943D
:10097000AF106A307105A0F0153091F0CE01289FBC
:10098000E001299FD00D11241F5FEFCF813041F08E
:100990009E01929FE001939FD00D11248150F6CFCC
:1009A00080E20E948F04002311F08DE201C080E2FA
:1009B0000E948F048AE0C82ED12CB11203C08EE2AF
:1009C0000E948F041150C701BE010E94AF10CB01DD
:1009D000B6010E94AF10805D0E948F04CE01B60167
:1009E0000E94AF10EB01209741F7DF91CF911F914B
:1009F0000F91FF90EF90DF90CF90BF900895CF932D
:100A0000DF93FC018491EF012196882321F00E945D
:100A10008F04FE01F7CFDF91CF91089580912801D7
:100A2000811106C090912A01809129019817D1F374
:100A30001092280180912A018F5F80932A018A30C9
:100A400010F010922A01E0912A01F0E0E650FE4FEA
:100A50008081089580912801811118C02091290179
:100A600090912A01921728F48091290190912A01EE
:100A70000BC02091290190912A01291740F48091FF
:100A8000290190912A01865F891B08958AE00895C3
:100A90001F920F920FB60F9211248F939F93EF9393
:100AA000FF93809129018F5F809329018A3010F094
:100AB0001092290190912A0180912901981305C073
:100AC000809128018F5F80932801E0912901809116
:100AD000C600F0E0E650FE4F8083FF91EF919F91BA
:100AE0008F910F900FBE0F901F9018955093090291
:100AF00040930802882319F060930B0204C084E03D
:100B000080930B0281E01092050210920402809300
:100B10000A020895EF92FF920F931F93CF93DF93F2
:100B2000D82F192F362FC72FE0910A028FEF8E0F83
:100B3000823008F063C08091040290910502892BF5
:100B400009F45CC0E23011F08D2F01C0862F909126
:100B50000B0290FF23C06091080270910902F0918E
:100B60000602EE2EF12CA1E0EA1AF10808E70E9D2C
:100B7000D0010F9DB00D1124AF0FB11DAA0FBB1FE7
:100B8000A45FBD4F0D90BC91A02D6A177B0734F078
:100B9000A82FB0E001E06A177B070CF000E091FF9E
:100BA00021C06091080270910902F0900602F0E005
:100BB0003197A8E7EA2EEE9ED001EF9EB00D1124EA
:100BC000FD01EF0DF11DEE0FFF1FE45FFD4F0190E2
:100BD000F081E02DE617F7072CF0E82FF0E0E6179C
:100BE000F70734F0943011F4211102C0002331F0E2
:100BF000809106028093070210920A025093050228
:100C00004093040290910A029F3F69F1809106028D
:100C10008F5F883718F48093060202C01092060294
:100C2000E0910602911110C0E0900702F12C8E2F86
:100C300090E0CC9668E770E00E94C310E816F906D1
:100C400019F48FEF80930A02F0E0DF01AA0FBB1FB7
:100C5000A45FBD4FDC9311961C93EE0FFF1FE45071
:100C6000FD4F3083C183DF91CF911F910F91FF9092
:100C7000EF900895CF93DF9382E00E94B6029093A5
:100C8000F7038093F60381E00E94B6029C01E09195
:100C9000F603F091F703CF0167E87FEF0E94C310DE
:100CA000C901860F971F9093F5038093F403109268
:100CB000FF031092FE0320910804213009F08DC03B
:100CC00020914D01211189C04091EC035091ED0319
:100CD0004115510539F02091EE033091EF032115B4
:100CE000310529F41092F1031092F00382C0EC3820
:100CF0006EE0F60754F0853991053CF464E06093AA
:100D00004D011092F1031092F003B90137FF02C0B8
:100D1000615F7F4FEB0164E0D595C7956A95E1F778
:100D20002196CE0FDF1F6091F0037091F103A09127
:100D30000004B0910104C217D30704F1841795078A
:100D4000ECF42E1B3F0B3093FF032093FE0337FF81
:100D500002C0215F3F4FD4E035952795DA95E1F742
:100D6000620F731F605F7F4F61337B4158F5A20FA5
:100D7000B31FB0930104A093000424C09A01281B60
:100D8000390B3093FF032093FE03A90137FF02C004
:100D9000495F5F4FC3E055954795CA95E1F7640FEA
:100DA000751F605F7F4F61337B4130F4A40FB51F27
:100DB000B0930104A093000437FF02C02F5F3F4FA0
:100DC000359527954091000450910104240F351F5B
:100DD0003093F1032093F0030CC01092F1031092B2
:100DE000F003109201041092000410920304109278
:100DF000020420E040E550E0BF010E948A05809196
:100E0000F0039091F10381322BE192073CF080E2F4
:100E10009BE19093F1038093F00306C097FF04C019
:100E20001092F1031092F0038091F0039091F1037E
:100E300097FD0F9624E0959587952A95E1F7DF9128
:100E4000CF910C944F04CF92DF92EF92FF92CF9309
:100E5000DF9384E00E94B602EC01D595C795D59545
:100E6000C7959E01DE010E941E1128E437E040E094
:100E700050E00E94F91069017A0124E630E0DE01B9
:100E80000E94351126EE3EEF4FEF5FEF0E94F91002
:100E9000C601820F931F9C012D5A3F4F3093F903D7
:100EA0002093F80380914D01811165C00E94B60224
:100EB0002FE535E0DC010E943511DC01CB012BE090
:100EC000B595A795979587952A95D1F79093F303B4
:100ED0008093F203BC01675B73406D3E724018F073
:100EE00081E080934D0181E02091F8033091F90376
:100EF000253431050CF480E04AE054E06AE00E94B9
:100F0000880F882319F082E080934D018091FE03C1
:100F10009091FF0381589F4F8F3F910550F481E0DE
:100F20002091F0033091F10320323B411CF480E02A
:100F300001C081E049E054E06AE00E94880F882304
:100F400019F086E080934D0180910A028E3F99F45A
:100F50008091EE039091EF030A969093090280939B
:100F6000080283E080930B021092050210920402A3
:100F700082E080930A02DF91CF91FF90EF90DF90A3
:100F8000CF90089580910B04882321F080914D012A
:100F9000882319F010920804A9C180910C048111D2
:100FA00079C1E0911304F0911404E03820E7F207CE
:100FB00018F083E080934D01209133043091340484
:100FC0002630310569F48091420490914304909356
:100FD0002E0480932D0480914404909145046AC1AD
:100FE000233031050CF06CC0E033FA4218F084E095
:100FF00080930C044091420450914304220F331F0C
:10100000F901EA5FFE4F80819181489FF001499F7D
:10101000F00D589FF00D1124F0932E04E0932D0451
:101020006091350470913604D901A050BF4F2D91C5
:101030003C91429FC001439F900D529F900D1124FF
:10104000681779077CF02AE0249FC001259F900D46
:1010500011249F01280F391F81E0261737071CF044
:1010600080E001C081E048E154E064E10E94880F23
:10107000882319F085E080934D018091440490917C
:1010800045049093300480932F049C01B3E0359580
:101090002795BA95E1F781E0409127045091280403
:1010A000241735070CF480E047E154E064E60E9421
:1010B000880F882309F41AC181E080930C0416C1BB
:1010C000C9010397029708F0BCC0CF016CE370E040
:1010D0000E94AF100A9719F481E0809312048CE803
:1010E0009AE090932E0480932D0480914204909175
:1010F00043046AE0689FA001699F500D112460912C
:101100001F04709120046417750734F0181619062F
:101110001CF485E080930C044091440450914504F4
:10112000EF31F105E0F49F0173E0369527957A954C
:10113000E1F72F5F3F4F249FC001259F900D349F03
:10114000900D1124969587959695879590933004E8
:1011500080932F04F0931604E0931504C7C05093B6
:10116000300440932F048091150490911604AF0130
:10117000481B590B453B510508F4B8C080911B042E
:1011800090911C042430310569F4853C5FEF95078C
:101190007CF520911D0430911E042817390744F175
:1011A00082E024C0893D2FEF92075CF420911D045A
:1011B00030911E04281739074CF082E080930C040C
:1011C00005C01816190614F480E008C080911D04AB
:1011D00090911E0418161906BCF381E047E154E013
:1011E0006EEF0E94880F882319F083E080930C042F
:1011F00020913504309136044091290450912A04FD
:10120000241735077CF0C901841B950B97FD0396C5
:101210009595879595958795840F951F90932A04AA
:10122000809329048091290490912A04281B390B6A
:1012300081E0293F3F4F0CF080E049E154E065EB4D
:1012400036CF2530310519F5209142043091430401
:1012500040EF429FC001439F900D112490932E04B4
:1012600080932D0480914404909145049093300420
:1012700080932F0481E02091270430912804283C9A
:1012800031050CF080E047E154E068EC10CF10929B
:101290000B042CC080910804882341F18091330411
:1012A000909134049C01235031092230310538F4E7
:1012B00081E290E09093300480932F0417C005974B
:1012C00009F068CE86E990E09093300480932F0473
:1012D000209142043091430446EE429FC001439F57
:1012E000900D112490932E0480932D0460912D0471
:1012F00070912E04CB01A0E0B0E0BC01CD012BE049
:10130000660F771F881F991F2A95D1F72FE535E0C3
:1013100040E050E00E94F9103093ED032093EC037D
:101320000895289A88E2EBE0F4E0DF011D928A95A7
:10133000E9F781E080930B048091350490913604A5
:1013400090932404809323041092040410920504C3
:10135000109206041092070480913904882331F01A
:1013600010923904809133040E947A0C1092370451
:1013700081E08093080408950E94910910920B0463
:1013800010920804089580913504909136048436B3
:1013900091051CF421E02093110420910B042111EC
:1013A0000FC08039914064F080911104882341F08E
:1013B0008091330490913404069711F00E949109B2
:1013C00080910B04882349F180911104882351F006
:1013D00080910C04882331F080910F048A3011F43D
:1013E0000E94BC098091F8039091F9038A34910519
:1013F00064F08091440490914504833391052CF06E
:101400000A97909345048093440480912704909117
:10141000280490932604809325040E94C20780919B
:101420000C0481112DC080913304909134048630D6
:10143000910511F0039744F480913504909136049E
:1014400090932404809323048091130490911404B6
:101450000196909314048093130460910404709196
:101460000504809106049091070420E83CEF4AE0CF
:1014700050E00E94D7103093200420931F04089559
:1014800080910F048A3038F490910B04992319F05D
:101490008F5F80930F040895CF93A091F603B091CE
:1014A000F70328EF34E241E050E00E943C1120E0D5
:1014B00030EB40E050E00E94F91030932804209374
:1014C0002704A091F403B091F5032FE535E00E94C5
:1014D0003511DC01CB017BE0B595A79597958795F4
:1014E0007A95D1F7909336048093350483E00E9477
:1014F000B60221E935E0DC010E943511DC01CB01A7
:10150000ECE0B595A79597958795EA95D1F79093D7
:1015100032048093310480910B04882309F49CC029
:1015200080912704909128040797CCF48091EE03D2
:101530009091EF031816190694F48091330490915A
:101540003404069761F080911204811108C081E093
:1015500020911304309114042B30310508F480E0FD
:101560004AE154E064E10E94880F882349F08091A9
:101570000C04811103C086E080930C0410920804CF
:10158000C0911204CC2359F080913304909134041B
:1015900006972CF41092EF031092EE0315C02091E1
:1015A0002F0430913004A0E0B0EB0E94261128EF08
:1015B00034E241E050E00E94F9103093EF032093B1
:1015C000EE03CC2309F448C08091F6039091F70311
:1015D00003970CF041C080913504909136049093AC
:1015E0002404809323048431954044F48091310491
:1015F00090913204909324048093230440911B041F
:1016000050911C04209123043091240480912104E2
:10161000909122040097D1F0B901681B790BEAE0A0
:10162000E69FC001E79F900D1124840F951F97FD41
:10163000019695958795BC01641B750B70931E04EC
:1016400060931D0490931C0480931B041092120459
:101650003093220420932104CF910895CF93DF93F8
:10166000EC01862F9A8191709A83662339F091114B
:1016700002C092E09A839A81916006C0992311F08A
:1016800095E09A839A819E7F9A83AE0164E10E94DD
:10169000960F882319F08A8188608A83DF91CF9121
:1016A0000895FC01DA01509149045A7080819181BA
:1016B000552329F0AC01421B530B9A0106C05091EF
:1016C0004C045A7021F0280F391F31832083808108
:1016D0009181861797071CF4718360830895A8177A
:1016E000B90714F4B183A0830895CF93DF936CE31B
:1016F00070E00E94C3109B01EC0143E062E0C9016D
:101700000E94FA038AE30E94C00343E062E0CE0134
:10171000DF91CF910C94FA0325E0829FC001112440
:101720008F599E4F0C94E003CF93DF938091330445
:1017300025E0829FC00111248F599E4F0E94E00333
:101740008091440490914504CAE0D0E0BE010E941B
:10175000C310CB0142E064E00E94FA0386E191E00D
:101760000E94E00380913304909134048630910507
:1017700059F48091420490914304BE010E94C31029
:10178000CB0141E063E026C08330910574F440E072
:1017900062E080914204909143040E94FA0381E147
:1017A00091E0DF91CF910C94E0039C01235031092B
:1017B0002230310528F485E0DF91CF910C94EF03BE
:1017C000059779F4809142049091430440E063E0EE
:1017D000880F991F0E94FA0386E5DF91CF910C9440
:1017E000C003DF91CF910895809133049091340428
:1017F0008630910579F487E091E00E94E00342E0B1
:1018000064E080914204909143040E94FA0384E0D2
:1018100091E04EC0833091051CF08530910581F533
:101820008CEF90E00E94E00340E061E08091420490
:10183000909143040E94FA0382E00E94EF03E0913A
:101840003304F0913404EE0FFF1FEA5FFE4F409126
:1018500042045091430420813181429FC001439F43
:10186000900D529F900D11246AE070E00E94C31009
:10187000CB0141E064E00E94FA0386E50C94C003CA
:1018800003970297B8F484EF90E00E94E003809100
:1018900042049091430442E064E02AE0FC012E9F60
:1018A000C0012F9F900D11240E94FA038EEE90E04C
:1018B0000C94E003089525E0829FC0011124BC012F
:1018C0006F5F7F4F45E050E082E494E00E946C122D
:1018D0009091420480914404890F909146048917A5
:1018E00041F0109245041092440410924304109267
:1018F00042040895CF93C82F682F84E290E00E949D
:101900008E12E2E4F4E092818081890F848385E085
:10191000C89FB00111246F5F7F4F45E050E0CF01B9
:10192000CF910C94841284EE90E00E94E0038091A9
:10193000330425E0829FC00111248F599E4F0E94DD
:10194000E00383E00C94EF0320914D0130E021503F
:1019500031094CE0429FC001439F900D1124875EE6
:101960009E4F0E94E00385E00C94EF03EF92FF92FC
:101970001F93CF93DF9380914F0481FF07C081E0D5
:1019800090913704911180E080933704809137045F
:10199000882349F022E330E040E757E160E070E05F
:1019A00084E494E008C021E030E045E050E060E0ED
:1019B00070E08AE394E00E94510B8091330490918F
:1019C0004D0191110AC090910C04992339F0909126
:1019D0003804992319F087E001C088E025E0829F50
:1019E000C00111248F599E4F0E94E00342E064E041
:1019F00080912304909124040E94FA0386E50E94BA
:101A0000C00380913704882329F080914404909189
:101A1000450414C0809133049091340403970297D5
:101A200048F480912F04909130046AE070E00E94A5
:101A3000AF1008C080912504909126046AE070E000
:101A40000E94C310CB0142E064E00E94FA0380913F
:101A50003704882341F080913804882321F081E005
:101A60000E94EF0303C081E40E94C00381E00E9452
:101A7000D90380914D01882359F08091380488233F
:101A800039F0DF91CF911F91FF90EF900C94A40C4F
:101A900080913A0490913B040097C9F4809113041B
:101AA000909114046CE370E00E94AF10CB010E948F
:101AB000750B83E00E94EF0342E065E080911F0414
:101AC000909120040E94FA0381EE90E020C08130C2
:101AD000910521F58CED90E00E94E00342E064E086
:101AE0008091F2039091F3030E94FA0389ED90E054
:101AF0000E94E00340E062E08091F8039091F903D6
:101B00000E94FA038FED0E94C00386ED90E0DF9102
:101B1000CF911F91FF90EF900C94E00382309105DC
:101B200009F03FC0A091F403B091F5032FE535E033
:101B30000E943511DC01CB013BE0B595A795979547
:101B400087953A95D1F742E064E00E94FA0386E572
:101B50000E94C003A091F603B091F70328EF34E28E
:101B600041E050E00E943C1120E030EB40E050E0CA
:101B70000E94F910DA01C90143E064E00E94FA030F
:101B800081E40E94C0038091F0039091F10397FDDE
:101B90000F9640E064E024E0959587952A95E1F75B
:101BA00019C083309105E9F481ED90E00E94E003D3
:101BB00040E063E080911B0490911C040E94FA03B2
:101BC0008AEC90E00E94E00340E063E080911D0415
:101BD00090911E04DF91CF911F91FF90EF900C9494
:101BE000FA0384309105C1F543E064E080912B0154
:101BF00090912C010E94FA0386E50E94C00381E3C4
:101C00000E94C0039FE2E92E91E0F92E10E0C091FE
:101C10002B01D0912C01F701819191917F012091AD
:101C20002E01121758F4C81BD90BD7FF09C08DE23B
:101C30000E94C003D195C195D10905C0C0E0D0E094
:101C40008BE20E94C00340E062E0CE010E94FA03F2
:101C50001F5F1330E1F639C00597B9F543E064E042
:101C600080912B0190912C010E94FA0386E50E943D
:101C7000C00384E30E94C00385E3E82E81E0F82ED0
:101C800013E0C0912B01D0912C01F701819191912A
:101C90007F0120912E01121758F4C81BD90BD7FFD2
:101CA00009C08DE20E94C003D195C195D10905C03C
:101CB000C0E0D0E08BE20E94C00340E062E0CE01D1
:101CC0000E94FA031F5F1630E1F6DF91CF911F915A
:101CD000FF90EF90089580E00E94D90380914F0417
:101CE00083FF12C0877F80934F0410924E0410929E
:101CF0004D0410924D0180910B04882319F00E942D
:101D0000BC0902C00E94910980913704882399F090
:101D10009091490490FD04C090914C0490FF0BC039
:101D200091E090933904209113043091140430937E
:101D300016042093150490910B0491110C94B60C89
:101D400081110AC021E030E043E050E060E070E043
:101D50008CE394E00E94510B80914F0482FF1DC0E0
:101D600080913C0490913D040097B9F02091370494
:101D7000222361F0039751F480913904882331F0D4
:101D8000809133040E945B0C1092390481E09091A1
:101D90003704911180E08093370480913C04909146
:101DA0003D04009719F40E94940B62C081309105A4
:101DB00031F580913704882351F022E330E040E789
:101DC00057E160E070E084E494E00E94510B83EC02
:101DD00090E00E94E00380914404909145046AE001
:101DE00070E00E94C310CB0142E063E00E94FA035E
:101DF00081E40E94C00385E00E94EF0339C0823075
:101E0000910521F5809137048823E9F0809133040E
:101E1000909134048630910539F42AE030E044ECA6
:101E200059E06AE070E00BC0880F991FFC01EC5E7E
:101E3000FE4F4081518121E030E060E070E082E4BB
:101E400094E00E94510B0E94F40B12C0039781F49E
:101E500080913704882351F021E030E046E050E0E3
:101E600060E070E083E394E00E94510B0E94930CC9
:101E700081E00E94D90380914D01882329F080914F
:101E8000380481110C94A40C80913704882319F034
:101E900082EB90E027C080913C0490913D04892B17
:101EA000A1F48091F2039091F3036AE070E00E9444
:101EB000C310CB0141E063E00E94FA038FEA90E097
:101EC0000E94E00384EA90E002C087E990E00E946B
:101ED000E00380913C0490913D040197029720F427
:101EE00082E990E00C94E00384E00C94EF03181670
:101EF00019065CF021E030E0892B11F420E030E09D
:101F000088279927821B930B089581E090E008951C
:101F1000FA01811101C010828081681718F41082C3
:101F200081E008958F5F808380E00895FA01811138
:101F300002C0118210828081918170E06817790758
:101F40002CF001969183808380E0089581E00895CC
:101F5000CF93DF93CDB7DEB7A8970FB6F894DEBF67
:101F60000FBECDBF0E94E6009EE088E10FB6F89458
:101F7000A895809360000FBE9093600000E211E08E
:101F8000A8950E942A05882369F10E940E05BE01CA
:101F90006F5F7F4F0E945401892B21F1FE0139961A
:101FA000ADE2B1E0802F01900D928A95E1F760914A
:101FB0002E016623B9F0EFE2F1E080E090E020E04E
:101FC00030E070E0261737073CF4419151912F5FC4
:101FD0003F4F840F951FF6CF0E94C31070932C01C2
:101FE00060932B018091F6019091F701A091F80187
:101FF000B091F90140915201509153016091540107
:102000007091550184179507A607B70708F466C0B5
:102010000E944C0A809108048130E1F480912704E9
:1020200090912804092E000CAA0BBB0B40910404CC
:10203000509105046091060470910704840F951F68
:10204000A61FB71F8093040490930504A093060471
:10205000B093070466B165FB662760F9612787E4E2
:1020600094E00E942E0B69B162FB662760F961273C
:102070008DE494E00E942E0B69B163FB662760F942
:1020800061278AE494E00E942E0B80910F0480FF68
:1020900006C090910B04992311F0289A01C028984A
:1020A00090914D01992329F0803F18F48F5F809320
:1020B0000F040E946B0E8091520190915301A091E8
:1020C0005401B0915501C296A11DB11D80935201DA
:1020D00090935301A0935401B093550180914E0108
:1020E00090914F01A0915001B09151014091F601A2
:1020F0005091F7016091F8017091F9014817590763
:102100006A077B07E8F088519C4FAF4FBF4F809321
:102110004E0190934F01A0935001B093510181E083
:1021200090913804911180E08093380480910804E4
:10213000813011F40E9439020E94C3090E942307D2
:102140000E94E4011DCF991B79E004C0991F9617E6
:1021500008F0961B881F7A95C9F780950895AA1BE9
:10216000BB1B51E107C0AA1FBB1FA617B70710F082
:10217000A61BB70B881F991F5A95A9F780959095B4
:10218000BC01CD01089597FB072E16F4009407D0EB
:1021900077FD09D00E94AF1007FC05D03EF4909562
:1021A00081959F4F0895709561957F4F0895A1E2A5
:1021B0001A2EAA1BBB1BFD010DC0AA1FBB1FEE1FC1
:1021C000FF1FA217B307E407F50720F0A21BB30B0C
:1021D000E40BF50B661F771F881F991F1A9469F788
:1021E00060957095809590959B01AC01BD01CF01E4
:1021F0000895052E97FB1EF400940E94101157FDC0
:1022000007D00E94D71007FC03D04EF40C94101195
:1022100050954095309521953F4F4F4F5F4F089512
:1022200090958095709561957F4F8F4F9F4F089542
:10223000EE0FFF1F0590F491E02D09940E942611E6
:10224000332312F48A1B9B0B0C943711A29FB0010D
:10225000B39FC001A39F700D811D1124911DB29FDA
:10226000700D811D1124911D08950E942611B7FF44
:102270000895821B930B0895B7FF0C9444110E949C
:102280004411821B930B08950E942611A59F900D67
:10229000B49F900DA49F800D911D11240895A0E07E
:1022A000B0E0E5E5F1E10C94AC125C016B017A0160
:1022B0006115710519F0FB0191838083E114F1042C
:1022C00029F0C7010297839708F0F1C0E501219634
:1022D000F5011081812F90E00E946012892B11F08E
:1022E0005E01F4CF1D3229F42196F501118101E040
:1022F00007C01B3221F4E5012296F501118100E0AF
:10230000E114F10459F1F0E1EF16F10461F4103336
:10231000E1F488818F7D883569F519812296026004
:1023200070E1E72EF12C88E0E816F10439F12CF485
:10233000F2E0EF16F104C9F12AC08AE0E816F104D0
:1023400079F0E0E1EE16F10411F550E1E52EF12C03
:10235000812C912CA12C68E0B62E2CC01033C9F230
:102360003AE0E32EF12C4CEC842E982CA82C4CE077
:10237000B42E20C010E3E114F104A9F698E0E92E90
:10238000F12C812C912CA12C20E1B22E13C060E005
:1023900070E080E090E897010F2C000C440B550B87
:1023A0000E94D71049015A0105C0812C912CA12C03
:1023B00080E4B82E60E020E030E0A90127010F2C76
:1023C000000C660877081E01E0EDE10FEA3060F0CE
:1023D0008FEB810F8A3110F4E9EC05C08FE9810F92
:1023E0008A3128F5E9EAE10F8E2F90E08E159F05DE
:1023F000F4F467FD18C082169306A406B50690F0A3
:10240000C301B2010E949C129B01AC012E0F311D31
:10241000411D511D213031054105F0E85F0710F4E1
:1024200061E001C06FEF2196F1011081CCCF802FC8
:102430008170C114D10471F0662329F02197F6014F
:10244000D183C08307C001FF19C02297F601D18351
:10245000C08314C067FF12C0811105C02FEF3FEF8A
:102460004FEF5FE704C020E030E040E050E882E258
:1024700090E0909351048093500416C0882341F05B
:1024800050954095309521953F4F4F4F5F4F0CC071
:1024900057FF0AC082E290E0909351048093500469
:1024A0002FEF3FEF4FEF5FE7B901CA0104C060E0D3
:1024B00070E080E090E0CDB7DEB7E2E10C94C812A6
:1024C00091110C946912803219F089508550C8F727
:1024D0000895992788270895DC01CB01FC01F9991B
:1024E000FECF06C0F2BDE1BDF89A319600B40D9260
:1024F00041505040B8F70895F999FECF92BD81BD83
:10250000F89A992780B50895DC01CB0103C02D917D
:102510000E948F1241505040D0F70895262FF9990C
:10252000FECF1FBA92BD81BD20BD0FB6F894FA9AB6
:10253000F99A0FBE01960895DB018F939F930E9435
:102540004411BF91AF91A29F800D911DA39F900D4B
:10255000B29F900D112408952F923F924F925F9257
:102560006F927F928F929F92AF92BF92CF92DF92A3
:10257000EF92FF920F931F93CF93DF93CDB7DEB708
:10258000CA1BDB0B0FB6F894DEBF0FBECDBF09949C
:102590002A88398848885F846E847D848C849B84F3
:1025A000AA84B984C884DF80EE80FD800C811B8101
:1025B000AA81B981CE0FD11D0FB6F894DEBF0FBE30
:0A25C000CDBFED010895F894FFCFA0
:1025CA0018011801C800A401AE016801000000004A
:1025DA00F0000000060006000700AC26AC26060044
:0225EA00C40922
:00000001FF
