:100000000C94C7000C94E4000C94E4000C94E400FD
:100010000C94E4000C94E4000C94E4000C94E400D0
:100020000C94E4000C94E4000C94E4000C94E400C0
:100030000C94E4000C94E4000C94E4000C94E400B0
:100040000C9429020C94E4000C94E2040C94E40057
:100050000C94E4000C9471020C94E4000C94E40001
:100060000C94E4000C94E400600168016D017201DD
:1000700079018601AF01CB0156657273696F6E3AE3
:10008000002020204D41582D4C616465723136208E
:100090002000202D3E2000203C2D20202045696E90
:1000A00073742E00537461727420202D3E2000560C
:1000B000200020202D202020204F4B202020202BEE
:1000C0002020005374726F6D3D0020647574743D80
:1000D000006475743D0043200056200055696E3D54
:1000E0000041680050726F6772616D6D3D0041683C
:1000F000202020004D61782043203D005A656C6C23
:10010000656E3D005620005370616E6E756E673DE2
:10011000005A656C6C004120002020202055696E3B
:10012000202020200054656D706572617475722006
:1001300000204C6164657A6569742020004B7572FB
:100140007A7363686C7573730020205A656C6C65F4
:100150006E20202000202057616E646C6572202084
:10016000004C69506F004C694876004C6946650048
:100170004E694D68004E6943610050422020005591
:1001800049202000454E444500455252200011248C
:100190001FBECFEFD4E0DEBFCDBF11E0A0E0B1E0E5
:1001A000E6E0F3E202C005900D92A232B107D9F762
:1001B00022E0A2E2B1E001C01D92A236B207E1F74F
:1001C0000E94470E0C9481110C940000209A8FEC31
:1001D0008093C4001092C50082E08093C00088E93B
:1001E0008093C1000E9462031092F2011092F30109
:1001F0001092F4011092F50185E086BD80916E00A9
:10020000816080936E0084E085BD10927C008EED4D
:1002100080937A0081EB8093800089E08093810055
:100220002A98229A7894459A5A9A5B9A0E945B0877
:10023000289A80E00E94730381E890E00E947A038C
:1002400081E00E94730388E790E00E947A0341E016
:1002500062E080E190E00E94940368EE73E080E049
:1002600090E00E940904289868EE73E080E090E036
:100270000E94090484E290E00E941A1190E0873005
:1002800091052CF4909344028093430204C0109291
:10029000440210924302809143020C94FA0A0F9395
:1002A0001F93CF93DF93EB01E8814E2F50E048304E
:1002B000510508F07CC0FA01EC5CFF4F0C94B60FBE
:1002C0008A3009F075C081E0888319821A8270C073
:1002D000853F09F06CC082E05CC08C3009F067C0DB
:1002E00083E057C0882309F462C094E0988388872C
:1002F0005FC0882309F45BC095E0988390ED980F68
:10030000998781538E3008F052C052C0882309F477
:100310004EC09981FB01E90FF11D8383148281E0B6
:10032000890F8983843008F443C00A8110E040E1DA
:1003300050E060E070E0CE0103960E94ED0FF801FE
:100340003596EE0FFF1FEC0FFD1F718360838A81CE
:100350008F5F8A8319829985891750F118C0882385
:1003600031F19981FB01E90FF11D8383148281E052
:10037000890F89838430E0F040E150E060E070E074
:10038000CE0103960E94ED0F7FA36EA31982888190
:100390008F5F88830DC0188221E030E08D3011F02E
:1003A00020E030E088279927821B930B03C0188236
:1003B00080E090E0DF91CF911F910F9108950F930E
:1003C0001F93CF93DF93CBE1D2E040E065E08885D7
:1003D00099850E94300442E064E08AA59BA50E94B2
:1003E000300443E064E08C8D9D8D0E94300442E037
:1003F00064E08C899D890E94300440E060E0888937
:1004000099890E94300440E060E08A899B890E94BB
:10041000300400E012E042E064E0F8018681978158
:100420000E94300440E063E0F801848595850E94D5
:10043000300442E064E0888D998D0E9430048DE0A4
:100440000E9429048AE0DF91CF911F910F910C94B3
:1004500029041F920F920FB60F9211248F939F932E
:10046000AF93BF9385E086BD8091F2019091F30137
:10047000A091F401B091F5010496A11DB11D8093E6
:10048000F2019093F301A093F401B093F501BF91B1
:10049000AF919F918F910F900FBE0F901F90189565
:1004A00090E2899FB001112420E030E080E090E0EC
:1004B000DC01F901E60FF71FEE5AFE4F4081518132
:1004C000840F951FA11DB11D2E5F3F4F20323105B6
:1004D00081F722E0B695A795979587952A95D1F74C
:1004E00008951F920F920FB60F9211242F933F93EE
:1004F0004F935F936F937F938F939F93AF93BF932C
:10050000EF93FF93809122012091780090917900E0
:100510003091230140E1849FF0011124E30FF11D8C
:10052000EE0FFF1FEE5AFE4F30E0392B3183208350
:100530008F5F65E00E94410F9093220180917C00C3
:10054000807E982B90937C0080917A0080648093C9
:100550007A008091220181110BC0809123018F5F6D
:10056000982F9F7090932301837011F40E941005BF
:10057000FF91EF91BF91AF919F918F917F916F917B
:100580005F914F913F912F910F900FBE0F901F9051
:100590001895239A249A259A8AB18F708AB98BB1BB
:1005A000806F8BB908952B988AB18F708AB98BB1FF
:1005B000806F8BB92C9A2D9A00000000000000007B
:1005C0000000000000004F9B16C080E080FD15C0B9
:1005D0002D98000000000000000000000000000056
:1005E00000000000000000000000000000008F5F1D
:1005F000843061F7E8CF2D9808952D9AEACFCF93F4
:10060000DF9300D0CDB7DEB76A8389830E94D3021F
:1006100089816A81813011F42B9A01C02B982C9822
:100620002D9A8AB1806F8AB98BB1962F907F8F7087
:10063000892B8BB9000000000000000000000000C2
:1006400000000000000000000000000000000000AA
:100650002D980000000000000000000000000000D5
:1006600000000000000000000000000000002D9AC3
:100670008BB190E1699FB00111248F70682B6BB929
:10068000000000000000000000000000000000006A
:100690000000000000000000000000002D988AB15A
:1006A0008F708AB98BB1806F8BB90F900F90DF91EB
:1006B000CF910895682F81E00C94FF02682F80E0AD
:1006C0000C94FF020E94C90288E20E945E0381E04E
:1006D0000E945E0386E00E945E038CE00E945E033F
:1006E00082E00C945E038295880F880F807C80687E
:1006F0000C945E03CF93DF93FC018491EF0121966C
:10070000882321F00E945A03FE01F7CFDF91CF9199
:100710000895CF93C82FCC2329F080E20E945A037A
:10072000C150F9CFCF910895BF92CF92DF92EF924F
:10073000FF920F931F93CF93DF937C01162FB42E5C
:1007400097FF08C0F194E194F1088DE20E945A03EA
:1007500001E001C000E0812FC1E0D0E09AE08230EA
:1007600040F09E01929FE001939FD00D1124815093
:10077000F6CF8AE0C82ED12CB11203C08EE20E94BF
:100780005A031150C701BE010E944D0FCB01B601A3
:100790000E944D0F009741F4B11630F4011104C0CE
:1007A00080E20E945A0304C0805D0E945A0301E067
:1007B000CE01B6010E944D0FEB012097E9F6DF91C3
:1007C000CF911F910F91FF90EF90DF90CF90BF904E
:1007D00008958F3F910581F07CF0229A219A2FEFA6
:1007E00020938800833B21E0920714F082EB91E094
:1007F0008F5F80938A00089510928A001816190658
:1008000024F02198109288000895219A80938800FE
:1008100008950F931F930091F2011091F30120911D
:10082000F4013091F501DC01CB01800F911FA21F73
:10083000B31F0091F2011091F3012091F401309166
:10084000F50180179107A207B30798F71F910F9141
:1008500008959091C00095FFFCCF8093C600089545
:10086000BF92CF92DF92EF92FF920F931F93CF939D
:10087000DF937C01162FB42E97FF05C0F194E1940D
:10088000F10801E001C000E0112329F0812FC1E04F
:10089000D0E09AE015C011E0C1E0D0E02AE0C70145
:1008A000BE010E944D0F6A307105A0F0153091F025
:1008B000CE01289FE001299FD00D11241F5FEFCFAB
:1008C000813041F09E01929FE001939FD00D112451
:1008D0008150F6CF80E20E942904002311F08DE2BE
:1008E00001C080E20E9429048AE0C82ED12CB112F6
:1008F00003C08EE20E9429041150C701BE010E946C
:100900004D0FCB01B6010E944D0F805D0E9429045E
:10091000CE01B6010E944D0FEB01209741F7DF9108
:10092000CF911F910F91FF90EF90DF90CF90BF90EC
:100930000895CF93DF93FC018491EF0121968823E2
:1009400021F00E942904FE01F7CFDF91CF91089595
:1009500080912401811106C090912601809125018A
:100960009817D1F310922401809126018F5F809314
:1009700026018A3010F010922601E0912601F0E065
:10098000EA50FE4F8081089580912401811118C0A2
:100990002091250190912601921728F4809125013C
:1009A000909126010BC020912501909126012917D5
:1009B00040F48091250190912601865F891B08955E
:1009C0008AE008951F920F920FB60F9211248F9311
:1009D0009F93EF93FF93809125018F5F8093250173
:1009E0008A3010F010922501909126018091250106
:1009F000981305C0809124018F5F80932401E091BA
:100A000025018091C600F0E0EA50FE4F8083FF91FF
:100A1000EF919F918F910F900FBE0F901F9018959F
:100A2000CF93DF9382E00E94500290930B02809359
:100A30000A0281E00E9450029C01C0910A02D091FA
:100A40000B02CE0167E87FEF0E94610FA901460FFC
:100A5000571F5093090240930802109213021092FC
:100A6000120280911802813089F48091490181112C
:100A70000DC0A0910002B0910102109739F02091B1
:100A80000202309103022115310529F4109205026A
:100A9000109204026AC0CC388EE0D80754F0453971
:100AA00051053CF484E080934901109205021092B4
:100AB0000402B90137FF02C0615F7F4F94E0759572
:100AC00067959A95E1F76F5F7F4FFB0177FD319650
:100AD000F595E795EC0FFD1FE217F30794F04A1721
:100AE0005B077CF4C9018C1B9D0B9B0177FF02C047
:100AF0002D5F3F4F3595279535952795821B930B95
:100B000013C09D01241B350B121613062CF03093D5
:100B10001302209312020EC0CD016CEB72E00E9412
:100B2000610F6F5F7F4FC9010E94610F70931302C5
:100B300060931202209112023091130280910402FC
:100B400090910502213431051CF0805C9F4F09C053
:100B5000203C4FEF34071CF48054910902C0820FEF
:100B6000931F909305028093040280910402909158
:100B70000502813426E392073CF080E496E39093EB
:100B800005028093040206C097FF04C0109205027C
:100B900010920402809104029091050297FD4F96F5
:100BA00025E0959587952A95E1F7DF91CF910C94F3
:100BB000E903CF92DF92EF92FF92CF93DF9384E02D
:100BC0000E945002EC01D595C795D595C7959E0119
:100BD000DE010E94BC0F28E437E040E050E00E94B4
:100BE000970F69017A0124E630E0DE010E94D30FFD
:100BF00026EE3EEF4FEF5FEF0E94970FC601820F88
:100C0000931F9C012D5A3F4F30930D0220930C02ED
:100C10008091490181114EC00E9450022FE535E0BC
:100C2000DC010E94D30FDC01CB012BE0B595A79529
:100C3000979587952A95D1F790930702809306029E
:100C4000BC01675B73406D3E724018F081E0809399
:100C5000490181E020910C0230910D0225343105CB
:100C60000CF480E04AE152E06AE00E94270E8823FB
:100C700019F082E080934901809112029091130251
:100C800081509F4F8F3F914050F481E020910402AA
:100C900030910502203436431CF480E001C081E02D
:100CA00049E152E06AE00E94270E882319F086E0AD
:100CB00080934901DF91CF91FF90EF90DF90CF902B
:100CC000089580911B02882321F080914901882397
:100CD00019F010921802A9C180911C02811179C1EA
:100CE000E0912302F0912402E03820E7F20718F0A7
:100CF00083E08093490120914302309144022630E1
:100D0000310569F4809152029091530290933E0212
:100D100080933D0280915402909155026AC1233024
:100D200031050CF06CC0E033FA4218F084E0809397
:100D30001C024091520250915302220F331FF901BD
:100D4000EA5FFE4F80819181489FF001499FF00D3D
:100D5000589FF00D1124F0933E02E0933D02609104
:100D6000450270914602D901A050BF4F2D913C9190
:100D7000429FC001439F900D529F900D1124681710
:100D800079077CF02AE0249FC001259F900D112453
:100D90009F01280F391F81E0261737071CF080E0DC
:100DA00001C081E048E252E064E10E94270E8823FE
:100DB00019F085E080934901809154029091550289
:100DC0009093400280933F029C01B3E035952795B4
:100DD000BA95E1F781E0409137025091380224172B
:100DE00035070CF480E047E252E064E60E94270EEB
:100DF000882309F41AC181E080931C0216C1C9013D
:100E00000397029708F0BCC0CF016CE370E00E942A
:100E10004D0F0A9719F481E0809322028CE89AE042
:100E200090933E0280933D02809152029091530232
:100E30006AE0689FA001699F500D112460912F0204
:100E4000709130026417750734F0181619061CF4F7
:100E500085E080931C024091540250915502EF317D
:100E6000F105E0F49F0173E0369527957A95E1F757
:100E70002F5F3F4F249FC001259F900D349F900D01
:100E80001124969587959695879590934002809327
:100E90003F02F0932602E0932502C7C05093400220
:100EA00040933F028091250290912602AF01481B9A
:100EB000590B453B510508F4B8C080912B02909125
:100EC0002C022430310569F4853C5FEF95077CF5F1
:100ED00020912D0230912E022817390744F182E02B
:100EE00024C0893D2FEF92075CF420912D023091B0
:100EF0002E02281739074CF082E080931C0205C0AF
:100F00001816190614F480E008C080912D02909103
:100F10002E0218161906BCF381E047E252E06EEF8C
:100F20000E94270E882319F083E080931C022091F1
:100F30004502309146024091390250913A022417FD
:100F400035077CF0C901841B950B97FD0396959599
:100F5000879595958795840F951F90933A02809376
:100F600039028091390290913A02281B390B81E0B5
:100F7000293F3F4F0CF080E049E252E065EB36CF6D
:100F80002530310519F5209152023091530240EF7E
:100F9000429FC001439F900D112490933E02809385
:100FA0003D028091540290915502909340028093AB
:100FB0003F0281E02091370230913802283C310510
:100FC0000CF080E047E252E068EC10CF10921B0278
:100FD0002CC080911802882341F1809143029091A6
:100FE00044029C01235031092230310538F481E25A
:100FF00090E09093400280933F0217C0059709F05C
:1010000068CE86E990E09093400280933F02209161
:1010100052023091530246EE429FC001439F900D11
:10102000112490933E0280933D0260913D027091A5
:101030003E02CB01A0E0B0E0BC01CD012BE0660F89
:10104000771F881F991F2A95D1F72FE535E040E0DB
:1010500050E00E94970F3093010220930002089500
:10106000289A88E2EBE1F2E0DF011D928A95E9F728
:1010700081E080931B0280914502909146029093FB
:1010800034028093330210921402109215021092CF
:1010900016021092170280914902882331F01092B3
:1010A0004902809143020E94190B1092470281E08D
:1010B0008093180208950E94300810921B0210922B
:1010C0001802089580914502909146028436910558
:1010D0001CF421E02093210220911B0221110FC05A
:1010E0008039914064F080912102882341F0809101
:1010F000430290914402069711F00E9430088091BB
:101100001B02882349F180912102882351F08091AC
:101110001C02882331F080911F028A3011F40E9452
:101120005B0880910C0290910D028A34910564F065
:101130008091540290915502833391052CF00A97C7
:101140009093550280935402809137029091380217
:1011500090933602809335020E94610680911C02B2
:1011600081112DC0809143029091440286309105F7
:1011700011F0039744F480914502909146029093B8
:1011800034028093330280912302909124020196CD
:1011900090932402809323026091140270911502AF
:1011A000809116029091170220E83CEF4AE050E04F
:1011B0000E94750F3093300220932F020895809182
:1011C0001F028A3038F490911B02992319F08F5F27
:1011D00080931F020895CF93A0910A02B0910B0251
:1011E00028EF34E241E050E00E94DA0F20E030EBDB
:1011F00040E050E00E94970F30933802209337026E
:10120000A0910802B09109022FE535E00E94D30FAA
:10121000DC01CB017BE0B595A795979587957A95ED
:10122000D1F7909346028093450283E00E945002DA
:1012300021E935E0DC010E94D30FDC01CB01ECE0B9
:10124000B595A79597958795EA95D1F79093420222
:101250008093410280911B02882309F49CC08091F5
:101260003702909138020797CCF480910202909156
:1012700003021816190694F48091430290914402D7
:10128000069761F080912202811108C081E02091CF
:101290002302309124022B30310508F480E04AE229
:1012A00052E064E10E94270E882349F080911C02DD
:1012B000811103C086E080931C0210921802C09135
:1012C0002202CC2359F08091430290914402069768
:1012D0002CF4109203021092020215C020913F02DA
:1012E00030914002A0E0B0EB0E94C40F28EF34E23E
:1012F00041E050E00E94970F3093030220930202D6
:10130000CC2309F448C080910A0290910B02039704
:101310000CF041C0809145029091460290933402B6
:10132000809333028431954044F48091410290913E
:101330004202909334028093330240912B025091E9
:101340002C0220913302309134028091310290912D
:1013500032020097D1F0B901681B790BEAE0E69FF1
:10136000C001E79F900D1124840F951F97FD0196F2
:1013700095958795BC01641B750B70932E02609345
:101380002D0290932C0280932B0210922202309314
:10139000320220933102CF910895CF93DF93EC0175
:1013A000862F9A8191709A83662339F0911102C039
:1013B00092E09A839A81916006C0992311F095E09A
:1013C0009A839A819E7F9A83AE0164E10E94350ED2
:1013D000882319F08A8188608A83DF91CF910895EC
:1013E000FC01DA01509159025A7080819181552394
:1013F00029F0AC01421B530B9A0106C050915C02CC
:101400005A7021F0280F391F318320838081918108
:10141000861797071CF4718360830895A817B9078E
:1014200014F4B183A0830895CF93DF936CE370E04D
:101430000E94610F9B01EC0143E062E0C9010E9440
:1014400094038AE30E945A0343E062E0CE01DF91F5
:10145000CF910C94940325E0829FC00111248F59F1
:101460009E4F0C947A03CF93DF938091430225E043
:10147000829FC00111248F599E4F0E947A03809150
:10148000540290915502CAE0D0E0BE010E94610F63
:10149000CB0142E064E00E94940386E191E00E9467
:1014A0007A0380914302909144028630910559F469
:1014B0008091520290915302BE010E94610FCB01B4
:1014C00041E063E026C08330910574F440E062E0BF
:1014D00080915202909153020E94940381E191E025
:1014E000DF91CF910C947A039C0123503109223073
:1014F000310528F485E0DF91CF910C94890305979D
:1015000079F4809152029091530240E063E0880F99
:10151000991F0E94940386E5DF91CF910C945A03A2
:10152000DF91CF91089580914302909144028630DB
:10153000910579F487E091E00E947A0342E064E04B
:1015400080915202909153020E94940384E091E0B2
:101550004EC0833091051CF08530910581F58CEFEC
:1015600090E00E947A0340E061E080915202909105
:1015700053020E94940382E00E948903E091430297
:10158000F0914402EE0FFF1FEA5FFE4F40915202BE
:101590005091530220813181429FC001439F900DA1
:1015A000529F900D11246AE070E00E94610FCB0100
:1015B00041E064E00E94940386E50C945A0303978B
:1015C0000297B8F484EF90E00E947A03809152026F
:1015D0009091530242E064E02AE0FC012E9FC0019A
:1015E0002F9F900D11240E9494038EEE90E00C9496
:1015F0007A03089525E0829FC0011124BC016F5F2A
:101600007F4F45E050E082E592E00E940A11909100
:10161000520280915402890F90915602891741F02D
:1016200010925502109254021092530210925202DC
:101630000895CF93C82F682F84E290E00E942C1168
:10164000E2E5F2E092818081890F848385E0C89F82
:10165000B00111246F5F7F4F45E050E0CF01CF9183
:101660000C94221184EE90E00E947A038091430250
:1016700025E0829FC00111248F599E4F0E947A035A
:1016800083E00C9489032091490130E02150310915
:101690004CE0429FC001439F900D1124875E9E4FF6
:1016A0000E947A0385E00C948903EF92FF921F93C6
:1016B000CF93DF9380915F0281FF07C081E090911B
:1016C0004702911180E0809347028091470288236E
:1016D00049F022E330E040E757E160E070E084E564
:1016E00092E008C021E030E045E050E060E070E0CA
:1016F0008AE492E00E94F0098091430290914901AE
:1017000091110AC090911C02992339F090914802DE
:10171000992319F087E001C088E025E0829FC0018D
:1017200011248F599E4F0E947A0342E064E0809119
:101730003302909134020E94940386E50E945A037A
:1017400080914702882329F080915402909155029C
:1017500014C080914302909144020397029748F489
:1017600080913F02909140026AE070E00E944D0F2C
:1017700008C080913502909136026AE070E00E94C4
:10178000610FCB0142E064E00E9494038091470224
:10179000882341F080914802882321F081E00E9453
:1017A000890303C081E40E945A0381E00E9473030D
:1017B00080914901882359F080914802882339F0AB
:1017C000DF91CF911F91FF90EF900C94430B80918C
:1017D0004A0290914B020097C9F4809123029091A4
:1017E00024026CE370E00E944D0FCB010E94140AAA
:1017F00083E00E94890342E065E080912F0290918E
:1018000030020E94940381EE90E020C08130910567
:1018100021F58CED90E00E947A0342E064E0809133
:101820000602909107020E94940389ED90E00E94C5
:101830007A0340E062E080910C0290910D020E94D8
:1018400094038FED0E945A0386ED90E0DF91CF91D3
:101850001F91FF90EF900C947A038230910509F06C
:101860003FC0A0910802B09109022FE535E00E9427
:10187000D30FDC01CB013BE0B595A79597958795F4
:101880003A95D1F742E064E00E94940386E50E9415
:101890005A03A0910A02B0910B0228EF34E241E012
:1018A00050E00E94DA0F20E030EB40E050E00E9470
:1018B000970FDA01C90143E064E00E94940381E4D8
:1018C0000E945A03809104029091050297FD4F9661
:1018D00040E064E025E0959587952A95E1F719C0E9
:1018E00083309105E9F481ED90E00E947A0340E0B5
:1018F00063E080912B0290912C020E9494038AEC69
:1019000090E00E947A0340E063E080912D02909184
:101910002E02DF91CF911F91FF90EF900C949403D2
:1019200084309105C1F543E064E0809127019091F6
:1019300028010E94940386E50E945A0381E30E94D5
:101940005A039BE2E92E91E0F92E10E0C0912701A5
:10195000D0912801F701819191917F0120912A0175
:10196000121758F4C81BD90BD7FF09C08DE20E948B
:101970005A03D195C195D10905C0C0E0D0E08BE2F2
:101980000E945A0340E062E0CE010E9494031F5F70
:101990001330E1F639C00597B9F543E064E0809172
:1019A0002701909128010E94940386E50E945A0322
:1019B00084E30E945A0381E3E82E81E0F82E13E0CD
:1019C000C0912701D0912801F701819191917F0168
:1019D00020912A01121758F4C81BD90BD7FF09C050
:1019E0008DE20E945A03D195C195D10905C0C0E08E
:1019F000D0E08BE20E945A0340E062E0CE010E94F8
:101A000094031F5F1630E1F6DF91CF911F91FF9095
:101A1000EF90089580E00E94730380915F0283FF3E
:101A200012C0877F80935F0210925E0210925D0267
:101A30001092490180911B02882319F00E945B08D3
:101A400002C00E94300880914702882399F090914B
:101A5000590290FD04C090915C0290FF0BC091E090
:101A60009093490220912302309124023093260260
:101A70002093250290911B0291110C94550B81111A
:101A80000AC021E030E043E050E060E070E08CE428
:101A900092E00E94F00980915F0282FF1DC0809158
:101AA0004C0290914D020097B9F0209147022223F9
:101AB00061F0039751F480914902882331F08091BD
:101AC00043020E94FA0A1092490281E09091470273
:101AD000911180E08093470280914C0290914D02D9
:101AE000009719F40E94330A62C08130910531F5E4
:101AF00080914702882351F022E330E040E757E12C
:101B000060E070E084E592E00E94F00983EC90E0F0
:101B10000E947A0380915402909155026AE070E02D
:101B20000E94610FCB0142E063E00E94940381E4D4
:101B30000E945A0385E00E94890339C082309105D2
:101B400021F5809147028823E9F08091430290912A
:101B500044028630910539F42AE030E044EC59E043
:101B60006AE070E00BC0880F991FFC01EC5EFE4F2D
:101B70004081518121E030E060E070E082E592E058
:101B80000E94F0090E94930A12C0039781F4809189
:101B90004702882351F021E030E046E050E060E069
:101BA00070E083E492E00E94F0090E94320B81E031
:101BB0000E94730380914901882329F08091480293
:101BC00081110C94430B80914702882319F082EB1A
:101BD00090E027C080914C0290914D02892BA1F496
:101BE00080910602909107026AE070E00E94610F06
:101BF000CB0141E063E00E9494038FEA90E00E94F1
:101C00007A0384EA90E002C087E990E00E947A03B8
:101C100080914C0290914D020197029720F482E945
:101C200090E00C947A0384E00C948903181619064A
:101C30005CF021E030E0892B11F420E030E08827CF
:101C40009927821B930B089581E090E00895FA0193
:101C5000811101C010828081681718F4108281E020
:101C600008958F5F808380E00895FA01811102C09A
:101C7000118210828081918170E0681779072CF0C1
:101C800001969183808380E0089581E00895CF9349
:101C9000DF93CDB7DEB7A8970FB6F894DEBF0FBEBF
:101CA000CDBF0E94E6009EE088E10FB6F894A895AB
:101CB000809360000FBE9093600000E211E0A89551
:101CC0000E94C404882369F10E94A804BE016F5FCA
:101CD0007F4F0E944F01892B21F1FE013996A9E225
:101CE000B1E0802F01900D928A95E1F760912A0171
:101CF0006623B9F0EBE2F1E080E090E020E030E034
:101D000070E0261737073CF4419151912F5F3F4F08
:101D1000840F951FF6CF0E94610F70932801609386
:101D200027018091F2019091F301A091F401B0910B
:101D3000F50140914E0150914F0160915001709119
:101D4000510184179507A607B70708F466C00E94DB
:101D5000EB08809118028130E1F480913702909174
:101D60003802092E000CAA0BBB0B409114025091B3
:101D700015026091160270911702840F951FA61F1D
:101D8000B71F8093140290931502A0931602B0938C
:101D9000170266B165FB662760F9612787E592E067
:101DA0000E94CD0969B162FB662760F961278DE564
:101DB00092E00E94CD0969B163FB662760F9612753
:101DC0008AE592E00E94CD0980911F0280FF06C043
:101DD00090911B02992311F0289A01C028989091A4
:101DE0004901992329F0803F18F48F5F80931F02E7
:101DF0000E940A0D80914E0190914F01A0915001D7
:101E0000B0915101C296A11DB11D80934E019093D6
:101E10004F01A0935001B093510180914A019091DC
:101E20004B01A0914C01B0914D014091F2015091B4
:101E3000F3016091F4017091F501481759076A07A1
:101E40007B0708F43CCF88519C4FAF4FBF4F809326
:101E50004A0190934B01A0934C01B0934D0181E056
:101E600090914802911180E080934802809118027D
:101E7000813011F40E94DF010E9462080E94D9059E
:101E80001ECF991B79E004C0991F961708F0961B86
:101E9000881F7A95C9F780950895AA1BBB1B51E14D
:101EA00007C0AA1FBB1FA617B70710F0A61BB70BCA
:101EB000881F991F5A95A9F780959095BC01CD016F
:101EC000089597FB072E16F4009407D077FD09D0EC
:101ED0000E944D0F07FC05D03EF4909581959F4FD1
:101EE0000895709561957F4F0895A1E21A2EAA1B5F
:101EF000BB1BFD010DC0AA1FBB1FEE1FFF1FA217BA
:101F0000B307E407F50720F0A21BB30BE40BF50BB6
:101F1000661F771F881F991F1A9469F7609570953F
:101F2000809590959B01AC01BD01CF010895052ED0
:101F300097FB1EF400940E94AE0F57FD07D00E943D
:101F4000750F07FC03D04EF40C94AE0F50954095DE
:101F5000309521953F4F4F4F5F4F08959095809555
:101F6000709561957F4F8F4F9F4F0895EE0FFF1F24
:101F70000590F491E02D09940E94C40F332312F4CC
:101F80008A1B9B0B0C94D50FA29FB001B39FC0017D
:101F9000A39F700D811D1124911DB29F700D811D95
:101FA0001124911D08950E94C40FB7FF0895821B4C
:101FB000930B0895B7FF0C94E20F0E94E20F821B6F
:101FC000930B08950E94C40FA59F900DB49F900D90
:101FD000A49F800D911D11240895A0E0B0E0E3EFCF
:101FE000FFE00C944A115C016B017A0161157105E7
:101FF00019F0FB0191838083E114F10429F0C701FA
:102000000297839708F0F1C0E5012196F501108150
:10201000812F90E00E94FE10892B11F05E01F4CF19
:102020001D3229F42196F501118101E007C01B3210
:1020300021F4E5012296F501118100E0E114F1049B
:1020400059F1F0E1EF16F10461F41033E1F4888105
:102050008F7D883569F519812296026070E1E72E3F
:10206000F12C88E0E816F10439F12CF4F2E0EF16D7
:10207000F104C9F12AC08AE0E816F10479F0E0E140
:10208000EE16F10411F550E1E52EF12C812C912C86
:10209000A12C68E0B62E2CC01033C9F23AE0E32E32
:1020A000F12C4CEC842E982CA82C4CE0B42E20C0A3
:1020B00010E3E114F104A9F698E0E92EF12C812C4B
:1020C000912CA12C20E1B22E13C060E070E080E0E2
:1020D00090E897010F2C000C440B550B0E94750FD4
:1020E00049015A0105C0812C912CA12C80E4B82E05
:1020F00060E020E030E0A90127010F2C000C660809
:1021000077081E01E0EDE10FEA3060F08FEB810F00
:102110008A3110F4E9EC05C08FE9810F8A3128F586
:10212000E9EAE10F8E2F90E08E159F05F4F467FD2C
:1021300018C082169306A406B50690F0C301B2013A
:102140000E943A119B01AC012E0F311D411D511D02
:10215000213031054105F0E85F0710F461E001C06E
:102160006FEF2196F1011081CCCF802F8170C114C7
:10217000D10471F0662329F02197F601D183C08341
:1021800007C001FF19C02297F601D183C08314C094
:1021900067FF12C0811105C02FEF3FEF4FEF5FE7E0
:1021A00004C020E030E040E050E882E290E090930C
:1021B00061028093600216C0882341F050954095DB
:1021C000309521953F4F4F4F5F4F0CC057FF0AC0CE
:1021D00082E290E090936102809360022FEF3FEFE4
:1021E0004FEF5FE7B901CA0104C060E070E080E032
:1021F00090E0CDB7DEB7E2E10C94661191110C943A
:102200000711803219F089508550C8F70895992731
:1022100088270895DC01CB01FC01F999FECF06C0A7
:10222000F2BDE1BDF89A319600B40D924150504094
:10223000B8F70895F999FECF92BD81BDF89A992714
:1022400080B50895DC01CB0103C02D910E942D11B2
:1022500041505040D0F70895262FF999FECF1FBA6C
:1022600092BD81BD20BD0FB6F894FA9AF99A0FBEBF
:1022700001960895DB018F939F930E94E20FBF9117
:10228000AF91A29F800D911DA39F900DB29F900DC5
:10229000112408952F923F924F925F926F927F92F6
:1022A0008F929F92AF92BF92CF92DF92EF92FF9266
:1022B0000F931F93CF93DF93CDB7DEB7CA1BDB0B12
:1022C0000FB6F894DEBF0FBECDBF09942A883988B7
:1022D00048885F846E847D848C849B84AA84B984BE
:1022E000C884DF80EE80FD800C811B81AA81B981CA
:1022F000CE0FD11D0FB6F894DEBF0FBECDBFED01DE
:062300000895F894FFCFE0
:1023060018011801C800A401AE0168010000000010
:10231600F0000000060006000700AC26AC2606000A
:02232600C409E8
:00000001FF
