:100000000C94C6000C94E3000C94E3000C94E30001
:100010000C94E3000C94E3000C94E3000C94E300D4
:100020000C94E3000C94E3000C94E3000C94E300C4
:100030000C94E3000C94E3000C94E3000C94E300B4
:100040000C9446020C94E3000C94EA040C94E30034
:100050000C94E3000C948E020C94E3000C94E300E7
:100060000C94E3000C94E3006A01720177017C01B7
:1000700083019001B901D50156657273696F6E3ABB
:10008000002020204D41582D4C616465723136208E
:100090002000202D3E2000203C2D20202045696E90
:1000A00073742E00537461727420202D3E2000560C
:1000B000200020202D202020204F4B202020202BEE
:1000C0002020005374726F6D3D00206464753D0004
:1000D00064753D0043200056200055696E3D004187
:1000E000680050726F6772616D6D3D00416820203D
:1000F00020004D61782043203D005A656C6C656E90
:100100003D005620005370616E6E756E673D005A5B
:10011000656C6C004120002020202055696E202055
:1001200020200054656D7065726174757220002026
:100130004C6164657A6569742020004B75727A732E
:1001400063686C7573730020205A656C6C656E2053
:10015000202000202057616E646C65722020004CC6
:1001600069506F004C694876004C694665004E69DD
:100170004D68004E694361005042202000554920DF
:100180002000454E444500455252200011241FBE18
:10019000CFEFD4E0DEBFCDBF11E0A0E0B1E0EAEEEA
:1001A000F4E202C005900D92A232B107D9F722E025
:1001B000A2E2B1E001C01D92A136B207E1F70E94B0
:1001C000640F0C9473120C940000209A0FB6F894EC
:1001D000A895809160008861809360001092600013
:1001E0000FBE83E38093C4001092C50082E0809329
:1001F000C00088E98093C1000E946A031092F20156
:100200001092F3011092F4011092F50185E086BD81
:1002100080916E00816080936E0084E085BD1092B5
:100220007C008EED80937A0081EB8093800089E0E2
:10023000809381002A98229A7894459A5A9A5B9AD8
:100240000E94EC08289A80E00E947B0381E890E0FD
:100250000E94820381E00E947B0388E790E00E9475
:10026000820341E062E083E190E00E949C0364E845
:1002700073E080E090E00E941104289864E873E045
:1002800080E090E00E94110484E290E00E940C1251
:1002900090E0873091052CF49093430280934202C2
:1002A00004C01092430210924202809142020C94C8
:1002B000D90B0F931F93CF93DF93EB01E8814E2F60
:1002C00050E04830510508F07CC0FA01EC5CFF4F6B
:1002D0000C94A8108A3009F075C081E088831982D7
:1002E0001A8270C0853F09F06CC082E05CC08C301F
:1002F00009F067C083E057C0882309F462C094E026
:10030000988388875FC0882309F45BC095E0988351
:1003100090ED980F998781538E3008F052C052C0EB
:10032000882309F44EC09981FB01E90FF11D8383F5
:10033000148281E0890F8983843008F443C00A81E4
:1003400010E040E150E060E070E0CE0103960E94D2
:10035000DF10F8013596EE0FFF1FEC0FFD1F7183C4
:1003600060838A818F5F8A8319829985891750F10A
:1003700018C0882331F19981FB01E90FF11D8383B6
:10038000148281E0890F89838430E0F040E150E0FD
:1003900060E070E0CE0103960E94DF107FA36EA3A1
:1003A000198288818F5F88830DC0188221E030E038
:1003B0008D3011F020E030E088279927821B930BC5
:1003C00003C0188280E090E0DF91CF911F910F91E0
:1003D000089540E065E080912402909125020E94FA
:1003E000380442E064E080914402909145020E940A
:1003F000380443E064E080913202909133020E941D
:10040000380442E064E080912C0290912D020E9419
:10041000380440E060E080912802909129020E9417
:10042000380440E060E080912A0290912B020E9403
:100430003804809104029091050297FDCF9640E028
:1004400060E026E0959587952A95E1F70E943804AB
:1004500042E064E080910602909107020E94380415
:1004600040E060E080910C0290910D020E943804FF
:1004700042E064E080913002909131020E943804A1
:100480008DE00E9431048AE00C9431041F920F9297
:100490000FB60F9211248F939F93AF93BF9385E074
:1004A00086BD8091F2019091F301A091F401B09189
:1004B000F5010496A11DB11D8093F2019093F30103
:1004C000A093F401B093F501BF91AF919F918F91EB
:1004D0000F900FBE0F901F90189590E2899FB0016A
:1004E000112420E030E080E090E0DC01F901E60F2B
:1004F000F71FEE5AFE4F40815181840F951FA11DB9
:10050000B11D2E5F3F4F2032310581F722E0B695B5
:10051000A795979587952A95D1F708951F920F92E1
:100520000FB60F9211242F933F934F935F936F93C6
:100530007F938F939F93AF93BF93EF93FF9380919C
:10054000220120917800909179003091230140E1BF
:10055000849FF0011124E30FF11DEE0FFF1FEE5AEF
:10056000FE4F30E0392B318320838F5F65E00E949E
:1005700033109093220180917C00807E982B909381
:100580007C0080917A00806480937A0080912201BF
:1005900081110BC0809123018F5F982F9F709093E2
:1005A0002301837011F40E941805FF91EF91BF9110
:1005B000AF919F918F917F916F915F914F913F91FB
:1005C0002F910F900FBE0F901F901895239A249A89
:1005D000259A8AB18F708AB98BB1806F8BB90895D3
:1005E0002B988AB18F708AB98BB1806F8BB92C9A96
:1005F0002D9A000000000000000000000000000034
:100600004F9B16C080E080FD15C02D9800000000B3
:1006100000000000000000000000000000000000DA
:1006200000000000000000008F5F843061F7E8CF19
:100630002D9808952D9AEACFCF93DF9300D0CDB7B0
:10064000DEB76A8389830E94F00289816A818130E2
:1006500011F42B9A01C02B982C982D9A8AB1806F97
:100660008AB98BB1962F907F8F70892B8BB9000040
:100670000000000000000000000000002D980000B5
:100680000000000000000000000000002D9A8BB167
:1006900090E1699FB00111248F70682B6BB9000045
:1006A0000000000000000000000000002D988AB14A
:1006B0008F708AB98BB1806F8BB90F900F90DF91DB
:1006C000CF910895682F81E00C941C03682F80E07F
:1006D0000C941C030E94E60288E20E94660381E0FB
:1006E0000E94660386E00E9466038CE00E94660317
:1006F00082E00C9466038295880F880F807C806866
:100700000C946603CF93DF93FC018491EF01219653
:10071000882321F00E946203FE01F7CFDF91CF9181
:100720000895CF93C82FCC2329F080E20E94620362
:10073000C150F9CFCF910895BF92CF92DF92EF923F
:10074000FF920F931F93CF93DF937C01162FB42E4C
:1007500097FF08C0F194E194F1088DE20E946203D2
:1007600001E001C000E0812FC1E0D0E09AE08230DA
:1007700040F09E01929FE001939FD00D1124815083
:10078000F6CF8AE0C82ED12CB11203C08EE20E94AF
:1007900062031150C701BE010E943F10CB01B60198
:1007A0000E943F10009741F4B11630F4011104C0CB
:1007B00080E20E94620304C0805D0E94620301E047
:1007C000CE01B6010E943F10EB012097E9F6DF91C0
:1007D000CF911F910F91FF90EF90DF90CF90BF903E
:1007E00008958F3F910581F07CF0229A219A2FEF96
:1007F00020938800833B21E0920714F082EB91E084
:100800008F5F80938A00089510928A001816190647
:1008100024F02198109288000895219A80938800EE
:1008200008950F931F930091F2011091F30120910D
:10083000F4013091F501DC01CB01800F911FA21F63
:10084000B31F0091F2011091F3012091F401309156
:10085000F50180179107A207B30798F71F910F9131
:1008600008959091C00095FFFCCF8093C600089535
:10087000BF92CF92DF92EF92FF920F931F93CF938D
:10088000DF937C01162FB42E97FF05C0F194E194FD
:10089000F10801E001C000E0112329F0812FC1E03F
:1008A000D0E09AE015C011E0C1E0D0E02AE0C70135
:1008B000BE010E943F106A307105A0F0153091F022
:1008C000CE01289FE001299FD00D11241F5FEFCF9B
:1008D000813041F09E01929FE001939FD00D112441
:1008E0008150F6CF80E20E943104002311F08DE2A6
:1008F00001C080E20E9431048AE0C82ED12CB112DE
:1009000003C08EE20E9431041150C701BE010E9453
:100910003F10CB01B6010E943F10805D0E94310460
:10092000CE01B6010E943F10EB01209741F7DF9105
:10093000CF911F910F91FF90EF90DF90CF90BF90DC
:100940000895CF93DF93FC018491EF0121968823D2
:1009500021F00E943104FE01F7CFDF91CF9108957D
:1009600080912401811106C090912601809125017A
:100970009817D1F310922401809126018F5F809304
:1009800026018A3010F010922601E0912601F0E055
:10099000EA50FE4F8081089580912401811118C092
:1009A0002091250190912601921728F4809125012C
:1009B000909126010BC020912501909126012917C5
:1009C00040F48091250190912601865F891B08954E
:1009D0008AE008951F920F920FB60F9211248F9301
:1009E0009F93EF93FF93809125018F5F8093250163
:1009F0008A3010F0109225019091260180912501F6
:100A0000981305C0809124018F5F80932401E091A9
:100A100025018091C600F0E0EA50FE4F8083FF91EF
:100A2000EF919F918F910F900FBE0F901F9018958F
:100A3000CF93DF9382E00E946D0290930B0280932C
:100A40000A0281E00E946D029C01C0910A02D091CD
:100A50000B02CE0167E87FEF0E945310620F731FF5
:100A6000709309026093080210920F0210920E0216
:100A700080911202813009F0F3C080914901811107
:100A8000EFC0A0910002B09101021A161B060CF0F3
:100A9000E7C0CC382EE0D20754F0653971053CF43C
:100AA00084E0809349011092050210920402E091C3
:100AB0000202F09103029F01F7FF02C0215F3F4F46
:100AC000A90184E0559547958A95E1F74F5F5F4FFF
:100AD0004C0F5D1F9D01261B370B4E175F07A4F0BF
:100AE00080911302853080F48F5F809313028530EC
:100AF00059F481E080931402A617B707ACF48091F3
:100B00001302811105C00BC0A617B707C4F307C0B5
:100B1000815080931302811102C0109214028091BF
:100B20001402882309F45BC0CF018C1B9D0B37FD99
:100B300005C090930F0280930E0208C0220F331F4E
:100B4000280F391F30930F0220930E0280910E025E
:100B500090910F029C0197FF02C0215C3F4F76E00D
:100B6000359527957A95E1F72115310551F4181639
:100B700019062CF0009729F02FEF3FEF02C021E07B
:100B800030E04091040250910502420F531F405C37
:100B90005F4F413C5C4650F440911002509111026D
:100BA000240F351F30931102209310022091100260
:100BB00030911102EF2B71F097FD4F9665E09595FE
:100BC00087956A95E1F7820F931F909305028093B2
:100BD00004024EC0109205021092040249C03093E4
:100BE0000F0220930E02C90137FD0F9654E0959530
:100BF00087955A95E1F7009759F41216130634F0C9
:100C00002115310529F08FEF9FEF02C081E090E0C0
:100C10004091040250910502480F591F405C5F4FFC
:100C2000413C5C4650F44091100250911102840FF7
:100C3000951F909311028093100237FF02C02D5F21
:100C40003F4F3595279535952795809110029091C6
:100C50001102280F391F309305022093040208C0A7
:100C600010920502109204021092110210921002CA
:100C7000809104029091050281382CE692073CF0A5
:100C800080E89CE6909305028093040206C097FFDB
:100C900004C0109205021092040280910402909107
:100CA000050297FDCF9626E0959587952A95E1F761
:100CB000DF91CF910C94F103CF92DF92EF92FF92EC
:100CC000CF93DF9384E00E946D02EC01D595C79528
:100CD000D595C7959E01DE010E94AE1028E437E04D
:100CE00040E050E00E94891069017A0124E630E07A
:100CF000DE010E94C51026EE3EEF4FEF5FEF0E942F
:100D00008910C601820F931F9C012D5A3F4F3093CB
:100D10000D0220930C0280914901811172C00E9442
:100D20006D022FE535E0DC010E94C510DC01CB012E
:100D30002BE0B595A795979587952A95D1F7909330
:100D4000070280930602BC01675B734081E06D3E41
:100D5000724008F480E046E152E065E00E94440FF2
:100D6000882319F081E08093490181E020910C02F1
:100D700030910D02253431050CF480E047E152E05A
:100D80006AE00E94440F882319F082E080934901B1
:100D900080910E0290910F0281509E4F8F3F9340A1
:100DA00000F5809104029091050280389C46CCF4B5
:100DB00040910A0250910B02052E000C660B770B36
:100DC0008091020290910302092E000CAA0BBB0B2A
:100DD000845D9E4FAF4FBF4F84179507A607B70797
:100DE0002CF481E090911202913009F080E045E10D
:100DF00052E06AE00E94440F882319F086E0809355
:100E00004901DF91CF91FF90EF90DF90CF9008954F
:100E100080911802882321F080914901882319F0DC
:100E2000109212029BC18091190281116BC1E09155
:100E30002402F0912502E13820E7F20718F083E060
:100E400080934901209142023091430226303105BE
:100E500069F48091510290915202909339028093EB
:100E6000380280915302909154025CC123303105C5
:100E70000CF067C0E134F84318F084E08093190265
:100E80006091510270915202220F331FF901EA5F03
:100E9000FE4F40815181649FC001659F900D749FFA
:100EA000900D1124909339028093380240914402AE
:100EB00050914502F901E050FF4F0190F081E02D83
:100EC0006E9F90016F9F300D7E9F300D1124421751
:100ED00053074CF09C01225E3F4F81E024173507F9
:100EE00018F080E001C081E041E252E064E10E943C
:100EF000440F882319F085E08093490180915302C3
:100F00009091540290933B0280933A029C01E4E05A
:100F100035952795EA95E1F781E0409132025091AD
:100F20003302241735070CF480E040E252E064EB12
:100F30000E94440F882309F411C181E080931902B3
:100F40000DC1C9010397029708F0B3C0CF016CE34C
:100F500070E00E943F100A9719F481E080931F020D
:100F60008CE89AE090933902809338028091510284
:100F7000909152026AE0689FA001699F500D112470
:100F800060912C0270912D026417750734F01816C9
:100F900019061CF485E08093190240915302509188
:100FA0005402EF31F105E0F49F0163E03695279597
:100FB0006A95E1F72F5F3F4F249FC001259F900D59
:100FC000349F900D112496958795969587959093CB
:100FD0003B0280933A02F0932702E0932602BEC0C0
:100FE00050933B0240933A0280912602909127024F
:100FF000AF01481B590B453B510508F4AFC0809128
:101000002802909129022430310569F4853C5FEF74
:1010100095077CF520912A0230912B022817390779
:1010200044F182E024C0893D2FEF92075CF42091C7
:101030002A0230912B02281739074CF082E0809366
:10104000190205C01816190614F480E008C0809132
:101050002A0290912B0218161906BCF381E040E297
:1010600052E06EEF0E94440F882319F083E08093D2
:101070001902809130029091310220913602309114
:1010800037022817390724F49093370280933602E9
:101090002091360230913702AC01421B530B9A016A
:1010A00081E0293F3F4F0CF080E042E252E065EBE7
:1010B0003FCF2530310519F5209151023091520270
:1010C00040EF429FC001439F900D1124909339023D
:1010D00080933802809153029091540290933B0286
:1010E00080933A0281E02091320230913302283C11
:1010F00031050CF080E040E252E068EC19CF10922C
:1011000018022CC080911202882341F18091420282
:10111000909143029C01235031092230310538F46B
:1011200084E190E090933B0280933A0217C00597C8
:1011300009F076CE86E990E090933B0280933A02E4
:10114000209151023091520246EE429FC001439FCE
:10115000900D1124909339028093380260913802E7
:1011600070913902CB01A0E0B0E0BC01CD012BE0D1
:10117000660F771F881F991F2A95D1F72FE535E055
:1011800040E050E00E948910309301022093000259
:101190000895289A8AE2E8E1F2E0DF011D928A953B
:1011A000E9F781E080931802809144029091450212
:1011B000909331028093300280914802882331F06D
:1011C00010924802809142020E94F80B109246024F
:1011D00081E08093120208950E94C90810921802BB
:1011E0001092120208958091440290914502843633
:1011F00091051CF421E020931E0220911802211178
:101200000FC0883C910564F080911E02882341F054
:101210008091420290914302069711F00E94C90802
:10122000809118028823C1F180911E02882351F019
:1012300080911902882331F080911C028A3011F4C8
:101240000E94EC0880910C0290910D028A34910565
:1012500064F08091530290915402833391052CF0F5
:101260000A97909354028093530280913202909196
:1012700033029C01220F331F820F931F20913402EF
:1012800030913502820F931F959587959595879597
:1012900090933502809334020E94080780911902CE
:1012A000811135C0809142029091430286309105B0
:1012B00011F0039784F42091300230913102809133
:1012C000440290914502820F931F959587959093C4
:1012D0003102809330028091240290912502019680
:1012E000909325028093240260913C0270913D020C
:1012F00080913E0290913F0220E83CEF4AE050E0AE
:101300000E94671030932D0220932C020895809143
:101310001C028A3038F490911802992319F08F5FDB
:1013200080931C020895A0910A02B0910B0228EF4D
:1013300034E241E050E00E94CC1020E030EB40E08D
:1013400050E00E9489108091320290913302BC01DA
:10135000660F771F860F971F092E000CAA0BBB0B79
:10136000820F931FA41FB51FF2E0B595A79597951F
:101370008795FA95D1F79093330280933202A0912A
:101380000802B09109022FE535E00E94C510DC018A
:10139000CB012BE0B595A795979587952A95D1F721
:1013A0002091440230914502A901440F551F240F9A
:1013B000351FB901680F791F759567957595679504
:1013C000709345026093440283E00E946D0221E91C
:1013D00035E0DC010E94C510DC01CB01FCE0B595D5
:1013E000A79597958795FA95D1F7909341028093A9
:1013F000400280911802882309F4ADC02091320286
:1014000030913302A901032E000C660B770B8091FB
:101410003C0290913D02A0913E02B0913F02840FA8
:10142000951FA61FB71F80933C0290933D02A09387
:101430003E02B0933F0227303105CCF48091020286
:10144000909103021816190694F48091420290912B
:101450004302069761F080911F02811108C081E06C
:1014600020912402309125022D33310508F480E0CB
:1014700043E252E060E50E94440F882349F08091E6
:101480001902811103C086E08093190210921202A2
:1014900020913A0230913B02A0E0B0EB0E94B610DE
:1014A00028EF34E241E050E00E94891030930302BB
:1014B0002093020280911F02882309F44CC01092ED
:1014C000030210920202809132029091330203973C
:1014D0000CF041C0809144029091450290933102FA
:1014E000809330028431954044F480914002909181
:1014F0004102909331028093300240912802509132
:101500002902209130023091310280912E02909177
:101510002F020097D1F0B901681B790BEAE0E69F32
:10152000C001E79F900D1124840F951F97FD019630
:1015300095958795BC01641B750B70932B02609386
:101540002A02909329028093280230932F0220933D
:101550002E0210921F020895CF93DF93EC01862F85
:101560009A8191709A83662339F0911102C092E0BA
:101570009A839A81916006C0992311F095E09A832D
:101580009A819E7F9A83AE0164E10E94520F882364
:1015900019F08A8188608A83DF91CF910895FC01D8
:1015A000DA01509158025A7080819181552329F0B7
:1015B000AC01421B530B9A0106C050915B025A705A
:1015C00021F0280F391F3183208380819181861774
:1015D00097071CF4718360830895A817B90714F462
:1015E000B183A0830895CF93DF936CE370E00E94F2
:1015F00053109B01EC0143E062E0C9010E949C038F
:101600008AE30E94620343E062E0CE01DF91CF9162
:101610000C949C0325E0829FC0011124815A9E4FA7
:101620000C948203CF93DF938091420225E0829F46
:10163000C0011124815A9E4F0E948203809153025F
:1016400090915402CAE0D0E0BE010E945310CB0139
:1016500042E064E00E949C0384E191E00E948203E6
:1016600080914202909143028630910559F4809115
:10167000510290915202BE010E945310CB0141E0F1
:1016800063E026C08330910574F440E062E080910D
:101690005102909152020E949C038FE091E0DF91F1
:1016A000CF910C9482039C012350310922303105E3
:1016B00028F485E0DF91CF910C949103059779F49C
:1016C000809151029091520240E063E0880F991F8F
:1016D0000E949C0386E5DF91CF910C946203DF9119
:1016E000CF910895809142029091430286309105F6
:1016F00079F485E091E00E94820342E064E0809109
:101700005102909152020E949C0382E091E04EC0EF
:10171000833091051CF08530910581F58AEF90E0CA
:101720000E94820340E061E0809151029091520258
:101730000E949C0382E00E949103E0914202F0919A
:101740004302EE0FFF1FEA5FFE4F4091510250919E
:10175000520220813181429FC001439F900D529FD0
:10176000900D11246AE070E00E945310CB0141E01B
:1017700064E00E949C0386E50C9462030397029741
:10178000B8F482EF90E00E94820380915102909120
:10179000520242E064E02AE0FC012E9FC0012F9F2C
:1017A000900D11240E949C038CEE90E00C94820317
:1017B000089525E0829FC0011124BC016F5F7F4F17
:1017C00045E050E081E592E00E94FC1190915102C9
:1017D00080915302890F90915502891741F0109220
:1017E0005402109253021092520210925102089524
:1017F000CF93C82F682F84E290E00E941E12E1E58B
:10180000F2E092818081890F848385E0C89FB001D6
:1018100011246F5F7F4F45E050E0CF01CF910C94D2
:10182000141282EE90E00E9482038091420225E031
:10183000829FC0011124815A9E4F0E94820383E03F
:101840000C9491032091490130E0215031094CE082
:10185000429FC001439F900D1124895E9E4F0E94BC
:10186000820385E00C949103EF92FF921F93CF9334
:10187000DF9380915E0281FF07C081E09091460274
:10188000911180E08093460280914602882349F0BE
:1018900022E330E040E757E160E070E083E592E06A
:1018A00008C021E030E045E050E060E070E089E40D
:1018B00092E00E94CF0A80914202909149019111D9
:1018C0000AC090911902992339F090914702992307
:1018D00019F087E001C088E025E0829FC001112453
:1018E000815A9E4F0E94820342E064E08091300260
:1018F000909131020E949C0386E50E9462038091D0
:101900004602882329F0809153029091540214C01A
:1019100080914202909143020397029748F480918C
:101920003A0290913B026AE070E00E943F1008C0CA
:1019300080913402909135026AE070E00E94531069
:10194000CB0142E064E00E949C0380914602882320
:1019500031F080914702882311F080E201C081E4D8
:101960000E94620381E00E947B03809149018823E9
:1019700059F080914702882339F0DF91CF911F9170
:10198000FF90EF900C94220C8091490290914A02B2
:101990000097C9F480912402909125026CE370E0D5
:1019A0000E943F10CB010E94F30A83E00E94910342
:1019B00042E065E080912C0290912D020E949C03F0
:1019C0008FED90E020C08130910521F58AED90E007
:1019D0000E94820342E064E0809106029091070237
:1019E0000E949C0387ED90E00E94820340E062E049
:1019F00080910C0290910D020E949C038FED0E9439
:101A0000620384ED90E0DF91CF911F91FF90EF9002
:101A10000C9482038230910509F045C0A091080220
:101A2000B09109022FE535E00E94C510DC01CB0121
:101A30003BE0B595A795979587953A95D1F742E004
:101A400064E00E949C0386E50E946203A0910A0262
:101A5000B0910B0228EF34E241E050E00E94CC103C
:101A600020E030EB40E050E00E948910DA01C9012B
:101A700043E064E00E949C0381E40E946203809141
:101A800004029091050297FDCF9640E064E026E0C5
:101A9000959587952A95E1F7DF91CF911F91FF905A
:101AA000EF900C949C038330910501F580ED90E05C
:101AB0000E94820340E062E0809128029091290216
:101AC0000E949C038AEC90E00E94820340E062E066
:101AD00080912A0290912B020E949C0384E0DF9166
:101AE000CF911F91FF90EF900C949103843091055A
:101AF000C1F543E064E080912701909128010E94A4
:101B00009C0386E50E94620381E30E9462039BE2DC
:101B1000E92E91E0F92E10E0C0912701D091280123
:101B2000F701819191917F0120912A01121758F4B8
:101B3000C81BD90BD7FF09C08DE20E946203D19563
:101B4000C195D10905C0C0E0D0E08BE20E946203DC
:101B500040E062E0CE010E949C031F5F1330E1F67B
:101B600039C00597B9F543E064E080912701909171
:101B700028010E949C0386E50E94620384E30E9480
:101B8000620381E3E82E81E0F82E13E0C091270183
:101B9000D0912801F701819191917F0120912A0133
:101BA000121758F4C81BD90BD7FF09C08DE20E9449
:101BB0006203D195C195D10905C0C0E0D0E08BE2A8
:101BC0000E94620340E062E0CE010E949C031F5F1E
:101BD0001630E1F6DF91CF911F91FF90EF900895BD
:101BE000CF9380911C0280FF06C090911802992328
:101BF00011F0289A01C0289890914901992329F061
:101C0000803F18F48F5F80931C0266B1C1E065FBD2
:101C1000662760F96C2786E592E00E94AC0A69B1FC
:101C200062FB662760F96C278CE592E00E94AC0AA3
:101C300069B163FB662760F96C2789E592E00E9431
:101C4000AC0A80E00E947B0380915E0283FF12C099
:101C5000877F80935E0210925D0210925C02109268
:101C6000490180911802882319F00E94EC0802C0F3
:101C70000E94C90880914602882399F090915802E9
:101C800090FD04C090915B0290FF0BC091E0909397
:101C9000480220912402309125023093270220939C
:101CA000260290911802992319F0CF910C94340CCC
:101CB00081110AC021E030E043E050E060E070E0D4
:101CC0008BE492E00E94CF0A80915E0282FF1DC0E9
:101CD00080914B0290914C020097B9F020914602FE
:101CE000222361F0039751F480914802882331F058
:101CF000809142020E94D90B1092480281E090919B
:101D00004602911180E08093460280914B029091AF
:101D10004C02009719F40E94120B62C081309105A9
:101D200031F580914602882351F022E330E040E70C
:101D300057E160E070E083E592E00E94CF0A83EC17
:101D400090E00E94820380915302909154026AE0D5
:101D500070E00E945310CB0142E063E00E949C03BC
:101D600081E40E94620385E00E94910339C08230C1
:101D7000910521F5809146028823E9F08091420285
:101D8000909143028630910539F42AE030E044EC2A
:101D900059E06AE070E00BC0880F991FFC01EC5E0F
:101DA000FE4F4081518121E030E060E070E081E54C
:101DB00092E00E94CF0A0E94720B12C0039781F436
:101DC00080914602882351F021E030E046E050E067
:101DD00060E070E082E492E00E94CF0A0E94110C61
:101DE00081E00E947B0380914901882339F0809132
:101DF0004702882319F0CF910C94220C809146025F
:101E0000882319F082EB90E027C080914B029091DB
:101E10004C02892BA1F480910602909107026AE09E
:101E200070E00E945310CB0141E063E00E949C03EC
:101E30008FEA90E00E94820384EA90E002C087E982
:101E400090E00E94820380914B0290914C02019796
:101E5000029728F482E990E0CF910C94820384E009
:101E6000CF910C949103181619065CF021E030E034
:101E7000892B11F420E030E088279927821B930BEF
:101E8000089581E090E00895FA01811101C0108267
:101E90008081681718F4108281E008958F5F808335
:101EA00080E00895FA01811102C0118210828081C0
:101EB000918170E0681779072CF0019691838083F7
:101EC00080E0089581E00895CF93DF93CDB7DEB72A
:101ED000A8970FB6F894DEBF0FBECDBF14BEA8956D
:101EE0000FB6F894A8958091600088618093600097
:101EF000109260000FBE0E94E5009EE088E10FB6E0
:101F0000F894A895809360000FBE9093600010E055
:101F100080E2F82EA8950E94CC04882309F443C0DF
:101F20000E94B004082FBE016F5F7F4F0E945901CD
:101F3000892B01F1FE013996A9E2B1E08F2D0190C4
:101F40000D928A95E1F720912A01222399F0EBE284
:101F5000F1E080E090E060E0419151916F5F840F8B
:101F6000951F6213F9CF70E00E94531070932801FF
:101F700060932701809112028130A9F0111107C0EE
:101F8000053771F0005311E0023068F00BC00032E9
:101F900049F46CED75E080E090E00E94110402C00D
:101FA00011E001C010E08091F2019091F301A09145
:101FB000F401B091F50140914E0150914F016091B3
:101FC00050017091510184179507A607B707B8F023
:101FD0000E9493090E94F00D80914E0190914F0153
:101FE000A0915001B0915101C296A11DB11D8093E5
:101FF0004E0190934F01A0935001B09351018091F5
:102000004A0190914B01A0914C01B0914D0140913A
:10201000F2015091F3016091F4017091F5014817BC
:1020200059076A077B0708F475CF88519C4FAF4F5B
:10203000BF4F80934A0190934B01A0934C01B09302
:102040004D0181E090914702911180E08093470219
:1020500080911202813011F40E94E9010E94F3087C
:102060000E945C0657CF991B79E004C0991F961710
:1020700008F0961B881F7A95C9F780950895AA1BCA
:10208000BB1B51E107C0AA1FBB1FA617B70710F063
:10209000A61BB70B881F991F5A95A9F78095909595
:1020A000BC01CD01089597FB072E16F4009407D0CC
:1020B00077FD09D00E943F1007FC05D03EF49095B3
:1020C00081959F4F0895709561957F4F0895A1E286
:1020D0001A2EAA1BBB1BFD010DC0AA1FBB1FEE1FA2
:1020E000FF1FA217B307E407F50720F0A21BB30BED
:1020F000E40BF50B661F771F881F991F1A9469F769
:1021000060957095809590959B01AC01BD01CF01C4
:102110000895052E97FB1EF400940E94A01057FD11
:1021200007D00E94671007FC03D04EF40C94A01057
:1021300050954095309521953F4F4F4F5F4F0895F3
:1021400090958095709561957F4F8F4F9F4F089523
:10215000EE0FFF1F0590F491E02D09940E94B61038
:10216000332312F48A1B9B0B0C94C710A29FB0015F
:10217000B39FC001A39F700D811D1124911DB29FBB
:10218000700D811D1124911D08950E94B610B7FF96
:102190000895821B930B0895B7FF0C94D4100E94EE
:1021A000D410821B930B08950E94B610A59F900D2A
:1021B000B49F900DA49F800D911D11240895A0E05F
:1021C000B0E0E5EEF0E10C943C125C016B017A01A9
:1021D0006115710519F0FB0191838083E114F1040D
:1021E00029F0C7010297839708F0F1C0E501219615
:1021F000F5011081812F90E00E94F011892B11F0E0
:102200005E01F4CF1D3229F42196F501118101E020
:1022100007C01B3221F4E5012296F501118100E08F
:10222000E114F10459F1F0E1EF16F10461F4103317
:10223000E1F488818F7D883569F5198122960260E5
:1022400070E1E72EF12C88E0E816F10439F12CF466
:10225000F2E0EF16F104C9F12AC08AE0E816F104B1
:1022600079F0E0E1EE16F10411F550E1E52EF12CE4
:10227000812C912CA12C68E0B62E2CC01033C9F211
:102280003AE0E32EF12C4CEC842E982CA82C4CE058
:10229000B42E20C010E3E114F104A9F698E0E92E71
:1022A000F12C812C912CA12C20E1B22E13C060E0E6
:1022B00070E080E090E897010F2C000C440B550B68
:1022C0000E94671049015A0105C0812C912CA12C54
:1022D00080E4B82E60E020E030E0A90127010F2C57
:1022E000000C660877081E01E0EDE10FEA3060F0AF
:1022F0008FEB810F8A3110F4E9EC05C08FE9810F73
:102300008A3128F5E9EAE10F8E2F90E08E159F05BE
:10231000F4F467FD18C082169306A406B50690F083
:10232000C301B2010E942C129B01AC012E0F311D82
:10233000411D511D213031054105F0E85F0710F4C2
:1023400061E001C06FEF2196F1011081CCCF802FA9
:102350008170C114D10471F0662329F02197F60130
:10236000D183C08307C001FF19C02297F601D18332
:10237000C08314C067FF12C0811105C02FEF3FEF6B
:102380004FEF5FE704C020E030E040E050E882E239
:1023900090E09093600280935F0216C0882341F022
:1023A00050954095309521953F4F4F4F5F4F0CC052
:1023B00057FF0AC082E290E09093600280935F0230
:1023C0002FEF3FEF4FEF5FE7B901CA0104C060E0B4
:1023D00070E080E090E0CDB7DEB7E2E10C945812F7
:1023E00091110C94F911803219F089508550C8F779
:1023F0000895992788270895DC01CB01FC01F999FC
:10240000FECF06C0F2BDE1BDF89A319600B40D9240
:1024100041505040B8F70895F999FECF92BD81BD63
:10242000F89A992780B50895DC01CB0103C02D915E
:102430000E941F1241505040D0F70895262FF9995D
:10244000FECF1FBA92BD81BD20BD0FB6F894FA9A97
:10245000F99A0FBE01960895DB018F939F930E9416
:10246000D410BF91AF91A29F800D911DA39F900D9D
:10247000B29F900D112408952F923F924F925F9238
:102480006F927F928F929F92AF92BF92CF92DF9284
:10249000EF92FF920F931F93CF93DF93CDB7DEB7E9
:1024A000CA1BDB0B0FB6F894DEBF0FBECDBF09947D
:1024B0002A88398848885F846E847D848C849B84D4
:1024C000AA84B984C884DF80EE80FD800C811B81E2
:1024D000AA81B981CE0FD11D0FB6F894DEBF0FBE11
:0A24E000CDBFED010895F894FFCF81
:1024EA0018011801C800A401AE016801000000002B
:1024FA00F0000000060006000700AC26AC26060025
:02250A00C40902
:00000001FF
