:1000000099C0B3C0B2C0B1C0B0C0AFC0AEC0ADC087
:10001000ACC0ACC0AAC0A9C0A8C0A7C04FC2A5C0F0
:10002000A4C0A3C0A2C056657273696F6E3A002067
:1000300020204D41582D4C61646572202020200005
:100040004C69506F004C694665004E694D68004E22
:100050006943610050422020005549202000454E50
:1000600044450045525220002020202055696E2032
:100070002020200054656D706572617475722000D7
:10008000204C6164657A6569742020004B75727A32
:100090007363686C7573730020205A656C6C656EB1
:1000A00020202000202057616E646C6572202000A3
:1000B000202D3E2000203C2D20202045696E7374A9
:1000C0002E00537461727420202D3E200020202DBC
:1000D000202020204F4B202020202B202000537454
:1000E000726F6D3D0020647574743D006475743DDD
:1000F0000043200056200055696E3D0041680050C5
:10010000726F6772616D6D3D004168202020004D67
:1001100061782043203D005A656C6C656E3D005649
:1001200020005370616E6E756E673D005A656C6C91
:100130000041200011241FBECFE5D4E0DEBFCDBFBB
:1001400010E0A0E6B0E0ECE6FBE102C005900D9205
:10015000AC36B107D9F711E0ACE6B0E001C01D92B2
:10016000AB37B107E1F7C0D0FFCC4ACF1F920F9257
:100170000FB60F9211248F939F93AF93BF9385E097
:1001800082BF8091170190911801A0911901B0913F
:100190001A010496A11DB11D8093170190931801B7
:1001A000A0931901B0931A01BF91AF919F918F91C4
:1001B0000F900FBE0F901F90189580913E01909167
:1001C0003F0165E040E013D38091600190916101AF
:1001D00064E042E00CD3809152019091530164E0BD
:1001E00043E005D380914A0190914B0164E042E0E5
:1001F000FED2809146019091470160E040E0F7D245
:10020000809148019091490160E040E0F0D28091F6
:1002100021019091220164E042E0E9D2809127011E
:100220009091280163E040E0E2D280914E019091EC
:100230004F0164E042E0DBD28DE0D5D28AE0D3D238
:100240000895B89A8FEC89B910BC82E08BB988E028
:100250008AB918D210921701109218011092190140
:1002600010921A0185E082BF89B7816089BF84E05E
:1002700083BF17B88EED86B981EB8FBD89E08EBD47
:10028000C298BA9A7894AD9A929A939AADD7C09A36
:1002900080E004D28FE290E008D281E0FFD186E2D4
:1002A00090E003D28FE090E062E041E015D268EE8A
:1002B00073E080E090E07BD2C09868EE73E080E06D
:1002C00090E075D28EE190E031DC90E090935F0198
:1002D00080935E01069724F010925F0110925E01F8
:1002E00080915E011BDA0895CF93DF93AADF2EE0A1
:1002F00088E190E00FB6F894A89581BD0FBE21BDAE
:10030000C1E0D0E0A89520911701309118014091EB
:10031000190150911A018091730090917400A0917D
:100320007500B0917600281739074A075B0708F473
:100330006FC01ED4809133018130E1F4809152016D
:1003400090915301AA2797FDA095BA2F20912F01D4
:10035000309130014091310150913201820F931F51
:10036000A41FB51F80932F0190933001A0933101FA
:10037000B093320163B370E025E0769567952A95D6
:10038000E1F76C277D27617082E791E0D7DA60B3EF
:1003900070E076956795769567956C277D276170F7
:1003A00088E791E0CBDA60B370E083E076956795FB
:1003B0008A95E1F76C277D27617085E791E0BEDAC9
:1003C00090913A0190FF06C080913601882311F088
:1003D000C09A01C0C09880916E00882329F0903F98
:1003E00018F49F5F90933A01B6D980917300909171
:1003F0007400A0917500B0917600C296A11DB11D48
:100400008093730090937400A0937500B09376006E
:1004100020916F00309170004091710050917200F6
:100420008091170190911801A0911901B0911A01C2
:1004300082179307A407B50708F464CF28513C4FEF
:100440004F4F5F4F20936F003093700040937100C7
:100450005093720090E080916301882309F491E049
:100460009093630180913301813009F4A6DEC2D6F6
:100470002BD248CF90E025E0880F991F2A95E1F70D
:10048000FC01E958FF4F20E030E040E050E0BC01C3
:1004900069567F4F81919191A0E0B0E0280F391FFC
:1004A0004A1F5B1FE617F707A9F782E056954795A5
:1004B000379527958A95D1F7C90108951F920F9214
:1004C0000FB60F9211242F933F934F935F936F9327
:1004D0007F938F939F93AF93BF93EF93FF938091FD
:1004E0006D00A0916C0044B195B1E82FF0E054E0AC
:1004F000EE0FFF1F5A95E1F7EA0FF11DEE0FFF1FF8
:10050000E958FF4F392F20E050E0242B352B318361
:1005100020838F5F65E08ADA90936D0087B1807EDB
:10052000892B87B9369A992359F48A2F8F5F8F7058
:1005300080936C0090E083709070892B09F44ED208
:10054000FF91EF91BF91AF919F918F917F916F91AB
:100550005F914F913F912F910F900FBE0F901F9081
:100560001895BB9ABC9ABD9A81B38F7081BB82B338
:10057000806F82BB0895C39881B38F7081BB82B3B3
:10058000806F82BBC49AC59A000000000000000082
:1005900000000000000019C080E090E080FD02C073
:1005A000C59801C0C59A00000000000000000000CE
:1005B000000000000000000000000000000000003B
:1005C000000001968430910549F78799E5CFC598D9
:1005D00008950F931F93182F062FCDDF113011F4BC
:1005E000C39A01C0C398C498C59A81B3806F81BB78
:1005F00082B3902F907F8F70982B92BB00000000E9
:1006000000000000000000000000000000000000EA
:100610000000000000000000C5980000000000007D
:1006200000000000000000000000000000000000CA
:10063000000000000000C59A82B30295007F8F7011
:10064000802B82BB000000000000000000000000C2
:10065000000000000000000000000000000000009A
:10066000C59881B38F7081BB82B3806F82BB1F91AD
:100670000F910895682F81E0ACDF0895682F80E026
:10068000A8DF08956EDF88E2F9DF81E0F7DF86E01A
:10069000F5DF8CE0F3DF82E0F1DF08958295880FCB
:1006A000880F807C8068EADF0895CF93DF93EC01A8
:1006B00001C0E0DFFE01219684918823D1F7DF910C
:1006C000CF9108951F93182F03C080E2D3DF1150FC
:1006D0001123D9F71F910895DF92EF92FF920F93A4
:1006E0001F93CF93DF938C01F62ED42E97FD02C07B
:1006F000EE2407C0109501951F4F8DE2BBDFEE245D
:10070000E3942F2DC1E0D0E00BC0CE01880F991FDC
:1007100033E0CC0FDD1F3A95E1F7C80FD91F215008
:10072000223098F7DF1411F48EE2A4DFFA94C801A6
:10073000BE0188D9CB016AE070E084D9882331F406
:10074000DF1420F4EE2021F480E203C0EE24E394D1
:10075000805D90DFCE016AE070E074D9EB01611535
:10076000710501F7DF91CF911F910F91FF90EF90ED
:10077000DF9008959C018F3F910579F074F0BA9A4B
:10078000B99A8FEF8ABDC90121E0833B920714F02B
:1007900082EB91E08F5F88BD089518BC181619068A
:1007A0001CF0B9981ABC0895B99A8ABD08959B01A6
:1007B000AC018091170190911801A0911901B0919D
:1007C0001A01280F391F4A1F5B1F80911701909152
:1007D0001801A0911901B0911A01281739074A0789
:1007E0005B0798F708955D9BFECF8CB90895CF9372
:1007F000DF93EC0197FD02C0F0E004C0D095C195F5
:10080000DF4FF1E0662321F0562F21E030E023C0D6
:1008100021E030E0E1E00BC0C901880F991FA3E09F
:10082000220F331FAA95E1F7280F391FEF5FCE0182
:10083000B90108D96A30710588F0E53069F70EC052
:10084000C901880F991F73E0220F331F7A95E1F7D2
:10085000280F391F5150523098F7E62F5D9BFECF7D
:1008600080E28CB9FF2321F05D9BFECF8DE203C0B7
:100870005D9BFECF80E28CB9FEE24E1719F45D9BC2
:10088000FECFFCB95D9BFECFCE01B901DBD8CB0119
:100890006AE070E0D7D8805D8CB9C9016AE070E089
:1008A000D1D89B016115710511F0E150E6CFDF91C0
:1008B000CF91089503C05D9BFECF2CB9FC0101963A
:1008C00024912223C1F70895AF92BF92CF92DF9275
:1008D000EF92FF920F931F9384E0CCDD7C01F5949F
:1008E000E794F594E7940027F7FC0095102FC801D2
:1008F000B701A80197017BD828E437E040E050E039
:10090000EAD859016A01C801B70124E630E040E0A5
:1009100050E06DD826EE3EEF4FEF5FEFDCD8A20E31
:10092000B31E83E590E0A80EB91EB0922801A092F4
:10093000270180916E00882309F047C09BDD23E0EA
:10094000880F991F2A95E1F76CE070E08FD8CB01F2
:100950007093220160932101895E93408B5B9240EA
:1009600018F081E080936E0020E080912701909143
:100970002801853491050CF021E0822F6AE045E3DF
:1009800051E013D8882319F082E080936E008091A3
:100990002D0190912E0181509F4F8F5F914048F41F
:1009A00020E030E080911F01909120018054964317
:1009B00014F021E030E0822F6AE044E351E0F5D703
:1009C000882319F086E080936E001F910F91FF90AD
:1009D000EF90DF90CF90BF90AF900895EF92FF928D
:1009E0000F931F93CF93DF9382E044DD9093260112
:1009F0008093250181E03EDDEC01E0902501F0903F
:100A00002601C70167E87FEF31D8C60FD71FD09303
:100A10002401C093230110922E0110922D01809188
:100A20003301813009F07BC080916E00882309F08A
:100A300076C000911B0110911C010115110509F4EC
:100A40006EC0E0911D01F0911E01309709F467C05E
:100A50002CE8E2162EE0F20654F0C539D1053CF43C
:100A600084E080936E001092200110921F01CF014C
:100A700060E170E0FBD79B012F5F3F4FC90162E04F
:100A800070E0F4D76E0D7F1D6E177F0774F0C017EE
:100A9000D1075CF4EE19FF09C90164E070E0E6D704
:100AA000CF01861B970BB90111C098012C1B3D0B80
:100AB00030932E0120932D011216130664F4C80101
:100AC0006CEB72E0D3D76F5F7F4FC901CFD77093C4
:100AD0002E0160932D0120912D0130912E012134A2
:100AE00031053CF080911F0190912001805C9F4F67
:100AF00011C08FEF203C38073CF480911F0190918A
:100B000020018054904006C080911F0190912001E7
:100B1000820F931F9093200180931F0104C01092B5
:100B2000200110921F0180911F019091200126E366
:100B3000813492073CF080E496E390932001809307
:100B40001F0106C097FF04C01092200110921F01E0
:100B500080911F019091200160E270E087D7CB0166
:100B600009DEDF91CF911F910F91FF90EF900895D3
:100B70001F93CF93DF936091250170912601882701
:100B800077FD8095982F28EF34E241E050E02FD791
:100B900020E030EB40E050E09ED7309353012093AB
:100BA00052016091230170912401882777FD80957F
:100BB000982F2FE535E040E050E019D7FBE0959500
:100BC000879577956795FA95D1F770936101609352
:100BD000600183E04FDCAA2797FDA095BA2FBC01E6
:100BE000CD0121E935E040E050E001D7ECE09595FA
:100BF000879577956795EA95D1F770935D01609336
:100C00005C0180913601882309F4A5C080915201CE
:100C1000909153010797ECF480911D0190911E0172
:100C200018161906B4F480915E0190915F01059742
:100C300081F080913D01882361F420E080913E01A4
:100C400090913F010B9708F421E081E02827822F43
:100C500002C080E090E064E145E451E0A6D688233C
:100C600049F080913701882319F486E08093370199
:100C70001092330110913D01112359F080915E01D2
:100C800090915F0105972CF410921E0110921D01A6
:100C900017C060915A0170915B0180E090E020E004
:100CA00030EB40E050E0A3D628EF34E241E050E0E2
:100CB00012D730931E0120931D01112309F44BC05C
:100CC000809125019091260103970CF044C08091FA
:100CD00060019091610190934F0180934E01845186
:100CE000954044F480915C0190915D0190934F0197
:100CF00080934E01E0914601F0914701C0914E0171
:100D0000D0914F0180914C0190914D010097E9F0F5
:100D10009E01281B390BC90153E0880F991F5A9572
:100D2000E1F7220F331F820F931F8E0F9F1F62E088
:100D300070E09CD69B012E1B3F0B30934901209302
:100D40004801709347016093460110923D01D09392
:100D50004D01C0934C01DF91CF911F910895CF9326
:100D6000DF9380913601882309F4F5C180916E00EC
:100D7000882309F0F0C180913701882309F0BCC1B4
:100D8000E0913E01F0913F0120E7E038F20718F0D2
:100D900083E080936E00C0915E01D0915F01C53009
:100DA000D10569F480916D0190916E019093590184
:100DB0008093580180916F0190917001ABC1209791
:100DC000E9F5E053FA4218F084E08093370140914E
:100DD0006D0150916E0184EA91E0FC014E9FC001CB
:100DE0004F9F900D5E9F900D112490935901809319
:100DF0005801609160017091610188E191E09C016E
:100E0000429FC001439F900D529F900D112468177F
:100E100079077CF020E030E08EEA91E0FC014E9F03
:100E2000C0014F9F900D5E9F900D1124861797076C
:100E300014F421E030E0822F64E140C0C130D105DC
:100E400009F05DC0E053FA4218F084E08093370166
:100E500040916D0150916E0188E691E0FC014E9F3A
:100E6000C0014F9F900D5E9F900D112490935901EA
:100E700080935801609160017091610188EC90E06D
:100E80009C01429FC001439F900D529F900D1124E1
:100E9000681779077CF020E030E082E791E0FC0100
:100EA0004E9FC0014F9F900D5E9F900D112486179D
:100EB000970714F421E030E0822F60E543E451E02D
:100EC00074D5882319F085E080936E0080916F01BE
:100ED0009091700190935B0180935A0140E0E3E0B0
:100EE00095958795EA95E1F720915201309153014C
:100EF000821793070CF041E0842F64E6F1C0CE0125
:100F00000297029708F0C5C0CF016CE370E09AD554
:100F10000A9719F481E080933D018CE89AE0909360
:100F200059018093580140916D0150916E01CA01A1
:100F3000880F991F9A0163E0220F331F6A95E1F72A
:100F4000820F931F20914A0130914B0128173907D6
:100F500034F0141615061CF485E080933701EF3148
:100F6000F10500F5CF0123E0969587952A95E1F7E5
:100F7000019620916F0130917001AC01429FC00138
:100F8000439F900D529F900D1124969587959695AD
:100F9000879590935B0180935A01F0934101E09310
:100FA0004001DBC080916F019091700190935B01D3
:100FB00080935A018091400190914101E81BF90B07
:100FC000E53BF10508F4C9C0239789F42091460157
:100FD000309147015FEF253C3507A4F5809148012A
:100FE00090914901821793076CF182E029C020910A
:100FF0004601309147018FEF293D38075CF480911D
:10100000480190914901821793073CF082E0809358
:10101000370103C01216130654F0809148019091D5
:101020004901181619061CF081E090E002C080E02A
:1010300090E06EEF42E451E0B8D4882319F083E0E9
:1010400080933701E0916001F0916101209154019A
:1010500030915501E217F30764F0CF01821B930B27
:1010600064E070E003D5260F371F309355012093BD
:10107000540120E08091540190915501E81BF90B37
:10108000E95FFF4F0CF421E0822F65EB44E451E06F
:1010900029C0249771F520916D0130916E0180EF88
:1010A00090E0AC01249FC001259F900D349F900DCE
:1010B0001124909359018093580180916F01909170
:1010C000700190935B0180935A0120E0809152015E
:1010D00090915301883C91050CF421E0822F68EC3B
:1010E00042E451E062D48823C1F181E0809337016A
:1010F00034C01092360131C080913301882369F1E8
:1011000020915E0130915F01C9010297029738F486
:1011100081E290E090935B0180935A011EC02430DD
:101120003105C9F486E990E090935B0180935A0100
:1011300020916D0130916E0186EE90E0FC012E9FB2
:10114000C0012F9F900D3E9F900D11249093590147
:101150008093580102C01092330160915801709140
:10116000590180E090E0ABE0660F771F881F991F60
:10117000AA95D1F72FE535E040E050E0ACD43093AC
:101180001C0120931B01DF91CF910895C09A88E242
:10119000E6E3F1E0DF011D928A95E9F781E08093B3
:1011A000360110924D0110924C0180916001909196
:1011B000610190934F0180934E0110922F01109284
:1011C0003001109231011092320180916401882324
:1011D00029F01092640180915E0183D21092620125
:1011E00081E0809333010895D1DF1092360110928F
:1011F0003301089520916001309161012436310559
:101200001CF481E080933C0180913601882371F4C5
:10121000205931405CF080913C01882339F0809165
:101220005E0190915F01059709F0B0DF8091360172
:10123000882341F180913C01882349F08091370156
:10124000882329F080913A018A3009F4CDDF80911A
:101250002701909128018A34910564F080916F01F3
:1012600090917001833391052CF00A97909370014F
:1012700080936F018091520190915301909351019D
:10128000809350016CDD80913701882371F5809146
:101290005E0190915F018530910521F0009711F07A
:1012A000019741F4809160019091610190934F0109
:1012B00080934E0180913E0190913F010196909361
:1012C0003F0180933E0160912F0170913001809128
:1012D00031019091320120E83CEF4AE050E0D9D34F
:1012E00030934B0120934A01089590913A019A302E
:1012F00038F480913601882319F09F5F90933A016A
:101300000895FC01809174018A7029F08081918197
:10131000821B930B08C0809177018A7031F0808125
:101320009181820F931F91838083808191818617A1
:1013300097071CF47183608308954817590714F4C4
:1013400051834083089595E0899FC0011124805CFA
:101350009F4FABD908950F931F938C016CE370E0FE
:1013600085D3CB0162E043E0B7D98AE383D9C801D2
:101370006CE370E07BD362E043E0AED91F910F9144
:10138000089580916E002CE0829FC0011124845A40
:101390009F4F8BD985E096D9089580917A0181FF7E
:1013A00008C090E080916201882309F491E0909355
:1013B000620180916201882349F08FE691E060E04C
:1013C00070E040E757E122E330E008C085E691E0B5
:1013D00060E070E045E050E021E030E092DF909185
:1013E0005E0180916E00882311F097E008C0809123
:1013F0003701882321F080916301811196E0892FC4
:10140000A2DF80914E0190914F0164E042E064D9E7
:1014100086E530D980916201882329F080916F019F
:101420009091700113C080915E0190915F010297CD
:10143000029740F480915A0190915B016AE070E05C
:1014400001D307C080915001909151016AE070E092
:101450000DD3CB0164E042E03FD980916201882343
:1014600039F080916301882319F081E02BD902C003
:1014700081E400D981E012D980916E00882331F097
:1014800080916301882311F07CDF089580916501CC
:10149000909166010097A9F480913E0190913F01DF
:1014A0006CE370E0CFD2CB0156DF83E00BD98091A3
:1014B0004A0190914B0165E042E00ED98CEF90E03B
:1014C0001BC081309105D1F487EF90E0EED8809178
:1014D00021019091220164E042E0FED884EF90E087
:1014E000E4D8809127019091280162E040E0F4D88F
:1014F0008FEDC0D881EF90E0D8D808958230910563
:1015000009F040C06091230170912401882777FD84
:101510008095982F2FE535E040E050E068D2DC015F
:10152000CB012BE0B595A795979587952A95D1F78F
:1015300064E042E0D1D886E59DD8609125017091A4
:101540002601882777FD8095982F28EF34E241E027
:1015500050E04DD220E030EB40E050E0BCD2DA0168
:10156000C90164E043E0B8D881E484D880911F01C8
:101570009091200160E270E079D2CB0164E040E01C
:10158000ABD808950397A1F48CEE90E08ED88091AB
:1015900046019091470163E040E09ED885EE90E0DF
:1015A00084D8809148019091490163E040E094D84B
:1015B00008958FEF90E079D880915E01C4DE83E0DA
:1015C00081D8089580915E0190915F0185309105E9
:1015D00071F482E291E069D880916D0190916E0181
:1015E00064E042E079D88FE191E05FD808950097F8
:1015F00031F08430910519F08130910569F487E16B
:1016000091E053D880916D0190916E0161E040E0CE
:1016100063D888E057D8089502970297B8F48FE00E
:1016200091E043D880916D0190916E019C0153E04F
:10163000220F331F5A95E1F7880F991F820F931FCE
:1016400064E042E049D889E091E02FD80895809184
:101650005E0179DE80916F01909170016AE070E027
:1016600005D2CB0164E042E037D881E391E01DD898
:1016700020915E0130915F012530310571F4809138
:101680006D0190916E016AE070E0F0D1CB0163E0F2
:1016900041E022D886E5EED708952230310558F48E
:1016A00080916D0190916E0162E040E015D88CE26E
:1016B00091E0FBD70895C9010297029718F485E0DD
:1016C00001D808952430310559F480916D0190912D
:1016D0006E01880F991F63E040E0FED786E5CAD708
:1016E00008950F931F93082F8EE190E0602F2FD263
:1016F000EDE6F1E080916F019081890F8093710197
:1017000085E0089F8001112400501040CF01B801EE
:1017100045E050E013D21F910F91089595E0899F05
:10172000B0011124605070408DE691E045E050E03A
:10173000EDD180916D0190916F01890F90917101B0
:10174000891741F01092700110926F0110926E0192
:1017500010926D01089580E0A1D780917A0183FFF6
:1017600010C0877F80937A011092790110927801DE
:1017700010926E0080913601882311F035DD01C092
:1017800005DD20916201222399F08091740180FD92
:1017900004C08091770180FF0BC081E080936401D9
:1017A00080913E0190913F019093410180934001CF
:1017B00080913601882311F0F0DD0895222349F449
:1017C00087E691E060E070E043E050E021E030E047
:1017D00098DD80917A0182FF1FC0209167013091CE
:1017E000680121153105C1F080916201882361F003
:1017F0002330310549F480916401882329F08091D8
:101800005E018CDF1092640190E080916201882378
:1018100009F491E0909362018091670190916801D1
:10182000009711F414DF5BC08130910501F58091C0
:101830006201882349F08FE691E060E070E040E7C4
:1018400057E122E330E05DDD8EED90E02ED7809110
:101850006F01909170016AE070E008D1CB0163E004
:1018600042E03AD781E406D785E02CD738C08230F1
:10187000910529F5809162018823F9F0E0915E01DC
:10188000F0915F01E530F10559F440916A00509103
:101890006B008DE691E06AE070E02AE030E00CC079
:1018A000EE0FFF1FE05AFF4F408151818DE691E01E
:1018B00060E070E021E030E024DD84DE10C00397BA
:1018C00071F480916201882349F08EE591E060E037
:1018D00070E045E050E021E030E013DD6ADE81E0B9
:1018E000DDD680916E00882331F0809163018823DA
:1018F00011F047DD089580916201882319F08DEC85
:1019000090E017C08091670190916801892B29F4BC
:1019100086E0D8D682EC90E002C085EB90E0C5D698
:1019200080916701909168010197029720F480EB04
:1019300090E0BBD6089584E0C5D60895CF93DF9399
:10194000EC012A8121702A83822F90E0662349F0DE
:1019500081709070892B11F422602A838A818160C2
:1019600008C081709070892B11F085E08A838A818C
:101970008E7F8A83862F64E1AE0125D0882319F0FB
:101980008A8188608A83DF91CF910895181619069D
:101990001CF421E030E007C0892B19F420E030E08E
:1019A00002C02FEF3FEFC9010895FA01882309F41F
:1019B00010828081681718F4108281E008958F5F8B
:1019C000808380E00895FA01882311F41182108247
:1019D00020813181862F90E08217930714F481E0F3
:1019E00008952F5F3F4F3183208380E00895629FE9
:1019F000D001739FF001829FE00DF11D649FE00D07
:101A0000F11D929FF00D839FF00D749FF00D659F67
:101A1000F00D9927729FB00DE11DF91F639FB00D66
:101A2000E11DF91FBD01CF0111240895991B79E033
:101A300004C0991F961708F0961B881F7A95C9F75E
:101A400080950895AA1BBB1B51E107C0AA1FBB1FAD
:101A5000A617B70710F0A61BB70B881F991F5A953A
:101A6000A9F780959095BC01CD01089597FB092EAB
:101A700007260AD077FD04D0E5DF06D000201AF44F
:101A8000709561957F4F0895F6F7909581959F4FDA
:101A90000895A1E21A2EAA1BBB1BFD010DC0AA1FAF
:101AA000BB1FEE1FFF1FA217B307E407F50720F0C7
:101AB000A21BB30BE40BF50B661F771F881F991F42
:101AC0001A9469F760957095809590959B01AC018B
:101AD000BD01CF01089597FB092E05260ED057FDB5
:101AE00004D0D7DF0AD0001C38F4509540953095CB
:101AF00021953F4F4F4F5F4F0895F6F79095809592
:101B0000709561957F4F8F4F9F4F0895DC01CB01FA
:101B1000FC01E199FECF06C0FFBBEEBBE09A319617
:101B20000DB20D9241505040B8F70895E199FECFA3
:101B30009FBB8EBBE09A99278DB30895DC01CB0142
:101B400002C02D9105D041505040D8F70895262F5E
:101B5000E199FECF9FBB8EBB2DBB0FB6F894E29AE6
:0C1B6000E19A0FBE01960895F894FFCFA3
:0C1B6C0006000700AC26AC260600C409E9
:00000001FF
