:100000009DC0B7C0B6C0B5C0B4C0B3C0B2C0B1C067
:10001000B0C055C1AEC0ADC0ACC0ABC098C1A9C0E6
:10002000A8C0A7C0A6C056657273696F6E3A00205B
:1000300020204D41582D4C61646572202020200005
:10004000202D3E2000203C2D20202045696E737419
:100050002E00537461727420202D3E200056200023
:1000600020202D202020204F4B202020202B20201E
:10007000005374726F6D3D0020647574743D0064AC
:1000800075743D0043200056200055696E3D0041C7
:10009000680050726F6772616D6D3D00416820208D
:1000A00020004D61782043203D005A656C6C656EE0
:1000B0003D005620005370616E6E756E673D005AAC
:1000C000656C6C004120002020202055696E2020A6
:1000D00020200054656D7065726174757220002077
:1000E0004C6164657A6569742020004B75727A737F
:1000F00063686C7573730020205A656C6C656E20A4
:10010000202000202057616E646C65722020004C16
:1001100069506F004C694876004C694665004E692D
:100120004D68004E6943610050422020005549202F
:100130002000454E444500455252200011241FBE68
:10014000CFE5D4E0DEBFCDBF10E0A0E6B0E0EAE945
:10015000FBE102C005900D92A238B107D9F721E06A
:10016000A2E8B0E001C01D92A239B207E1F799DB25
:1001700012CD46CFB89A8FEC89B910BC82E08BB90A
:1001800088E08AB9B3D110922D0110922E011092FD
:100190002F011092300185E082BF89B7816089BF4D
:1001A00084E083BF17B88EED86B981EB8FBD89E0FF
:1001B0008EBDC298BA9A7894AD9A929A939A73D651
:1001C000C09A80E09ED18FE290E0A1D181E099D1E8
:1001D00086E290E09CD141E062E082E190E0AFD124
:1001E00068EE73E080E090E013D2C09868EE73E0B0
:1001F00080E090E00DD284E290E0AFDC90E08730C8
:1002000091052CF4909376018093750104C01092AF
:1002100076011092750180917501C7C840E065E0D4
:10022000809155019091560117D242E064E080918F
:1002300077019091780110D243E064E080916901E8
:1002400090916A0109D242E064E08091610190914D
:10025000620102D240E060E080915D0190915E0118
:10026000FBD140E060E080915F0190916001F4D1AA
:10027000809135019091360197FDCF9640E060E086
:1002800026E0959587952A95E1F7E6D142E064E06E
:100290008091370190913801DFD140E060E080919A
:1002A0003D0190913E01D8D142E064E0809165012A
:1002B00090916601D1D18DE0CBD18AE0C9C11F9266
:1002C0000F920FB60F9211248F939F93AF93BF930A
:1002D00085E082BF80912D0190912E01A0912F0188
:1002E000B09130010496A11DB11D80932D01909312
:1002F0002E01A0932F01B0933001BF91AF919F9138
:100300008F910F900FBE0F901F90189590E2899FCC
:10031000B001112420E030E080E090E0DC01F90140
:10032000E60FF71FE357FF4F40815181840F951F60
:10033000A11DB11D2E5F3F4F2032310581F722E014
:10034000B695A795979587952A95D1F708951F9209
:100350000F920FB60F9211242F933F934F935F93F9
:100360006F937F938F939F93AF93BF93EF93FF937D
:100370008091820024B195B13091830040E1849F47
:10038000F0011124E30FF11DEE0FFF1FE357FF4FA4
:1003900030E0392B318320838F5F65E035DB90932C
:1003A000820087B1807E982B97B9369A809182001F
:1003B00081110AC0809183008F5F982F9F70909366
:1003C0008300837009F4B7D1FF91EF91BF91AF9192
:1003D0009F918F917F916F915F914F913F912F915D
:1003E0000F900FBE0F901F901895BB9ABC9ABD9AA4
:1003F00081B38F7081BB82B3806F82BB0895C39835
:1004000081B38F7081BB82B3806F82BBC49AC59A5F
:100410000000000000000000000000000000879BBA
:1004200016C080E080FD15C0C598000000000000E7
:1004300000000000000000000000000000000000BC
:100440000000000000008F5F843061F7E8CFC5989E
:100450000895C59AEACFCF93DF9300D0CDB7DEB72A
:100460006A838983CCDF89816A81813011F4C39AE0
:1004700001C0C398C498C59A81B3806F81BB82B311
:10048000962F907F8F70892B82BB000000000000A8
:100490000000000000000000C598000000000000FF
:1004A0000000000000000000C59A82B390E1699F3F
:1004B000B00111248F70682B62BB000000000000A7
:1004C0000000000000000000C59881B38F7081BB60
:1004D00082B3806F82BB0F900F90DF91CF91089510
:1004E000682F81E0B8CF682F80E0B5CF7EDF88E24B
:1004F000FADF81E0F8DF86E0F6DF8CE0F4DF82E00F
:10050000F2CF8295880F880F807C8068ECCFCF93E4
:10051000DF93FC018491EF012196882319F0E0DF3D
:10052000FE01F8CFDF91CF910895CF93C82FCC2350
:1005300021F080E2D5DFC150FACFCF910895BF926C
:10054000CF92DF92EF92FF920F931F93CF93DF939F
:100550007C01162FB42E97FF07C0F194E194F108A7
:100560008DE2BEDF01E001C000E0812FC1E0D0E0FC
:100570009AE0823040F09E01929FE001939FD00D5F
:1005800011248150F6CF8AE0C82ED12CB11202C0BE
:100590008EE2A6DF1150C701BE0142DACB01B601DF
:1005A0003FDA009739F4B11628F4011103C080E254
:1005B00097DF03C0805D94DF01E0CE01B60130DA41
:1005C000EB01209719F7DF91CF911F910F91FF90C9
:1005D000EF90DF90CF90BF9008958F3F910571F01D
:1005E0006CF0BA9AB99A2FEF2ABD833B21E09207AB
:1005F00014F082EB91E08F5F88BD089518BC181647
:1006000019061CF0B9981ABC0895B99A8ABD0895C4
:100610000F931F9300912D0110912E0120912F0116
:1006200030913001DC01CB01800F911FA21FB31F5D
:1006300000912D0110912E0120912F013091300158
:1006400080179107A207B30798F71F910F9108959C
:100650005D9BFECF8CB90895BF92CF92DF92EF924F
:10066000FF920F931F93CF93DF937C01162FB42E2D
:1006700097FF05C0F194E194F10801E001C000E0AA
:10068000112329F0812FC1E0D0E09AE014C011E0DD
:10069000C1E0D0E02AE0C701BE01C2D96A307105CD
:1006A000A0F0153091F0CE01289FE001299FD00DD8
:1006B00011241F5FF0CF813041F09E01929FE00135
:1006C000939FD00D11248150F6CF80E2C1DF00232B
:1006D00011F08DE201C080E2BBDF8AE0C82ED12C90
:1006E000B11202C08EE2B4DF1150C701BE0198D929
:1006F000CB01B60195D9805DABDFCE01B60190D9B3
:10070000EB01209769F7DF91CF911F910F91FF9037
:10071000EF90DF90CF90BF900895CF93DF93FC01CF
:100720008491EF012196882319F092DFFE01F8CF22
:10073000DF91CF910895CF93DF9382E0E7DD90932F
:100740003C0180933B0181E0E1DD9C01C0913B01D4
:10075000D0913C01CE0167E87FEF76D9620F731F1D
:1007600070933A01609339011092400110923F0159
:1007700080914701813009F0DBC0809184008111B4
:10078000D7C0E0913101F09132011E161F060CF026
:10079000CFC04091330150913401141615060CF06E
:1007A000C7C0CC382EE0D20754F0653971053CF44F
:1007B00084E0809384001092360110923501CA01C2
:1007C000A4E095958795AA95E1F701968C0F9D1F5A
:1007D0009F01261B370B84179507A4F090914801C1
:1007E000953080F49F5F90934801953059F481E0F3
:1007F00080934901E617F707ACF4909148019111F5
:1008000005C00BC0E617F707C4F307C091509093DB
:100810004801911102C01092490180914901882339
:1008200009F441C04C1B5D0B37FF04C0220F331F7E
:10083000420F531F5093400140933F0180913F016D
:10084000909140019C0197FF02C0215C3F4F76E0F0
:10085000359527957A95E1F740913501509136010C
:10086000420F531F405C5F4F413C5C4650F4409147
:10087000410150914201240F351F309342012093D2
:10088000410197FD4F9665E0959587956A95E1F74B
:100890002091410130914201820F931F90933601C4
:1008A000809335014DC03093400120933F01C90131
:1008B00037FD0F9654E0959587955A95E1F740914D
:1008C000350150913601480F591F405C5F4F413C44
:1008D0005C4650F44091410150914201840F951FB4
:1008E000909342018093410161507109E617F70727
:1008F00064F48091410190914201181619062CF47C
:100900000197909342018093410137FF02C02D5F10
:100910003F4F3595279535952795809141019091C9
:100920004201280F391F309336012093350108C04A
:10093000109236011092350110924201109241013D
:10094000809135019091360181382CE692073CF078
:1009500080E89CE6909336018093350106C097FFAE
:1009600004C01092360110923501809135019091AA
:10097000360197FDCF9626E0959587952A95E1F764
:10098000DF91CF912ACECF92DF92EF92FF92CF9359
:10099000DF9384E0BBDCEC01D595C795D595C79571
:1009A0009E01DE01A2D828E437E040E050E081D883
:1009B00069017A0124E630E0DE01A9D826EE3EEF97
:1009C0004FEF5FEF76D8C601820F931F9C012D5A1F
:1009D0003F4F30933E0120933D018091840081116F
:1009E00067C094DC23E0880F991F2A95E1F76CE03B
:1009F00070E02AD87093380160933701675B7340C9
:100A000081E06D3E724008F480E04BE451E065E027
:100A100028D7882319F081E08093840081E0209119
:100A20003D0130913E01253431050CF480E04CE469
:100A300051E06AE016D7882319F082E080938400A1
:100A400080913F019091400181509E4F8F3F934094
:100A500000F5809135019091360180389C46CCF4A8
:100A600040913B0150913C01052E000C660B770B29
:100A70008091330190913401092E000CAA0BBB0B1D
:100A8000845D9E4FAF4FBF4F84179507A607B707EA
:100A90002CF481E090914701913009F080E04AE424
:100AA00051E06AE0DED6882319F086E08093840066
:100AB000DF91CF91FF90EF90DF90CF9008958091DC
:100AC0004D01882321F080918400882319F0109231
:100AD0004701A5C180914E01811175C1E091550179
:100AE000F0915601E03820E7F20718F083E0809398
:100AF000840020917501309176012630310569F42A
:100B000080918401909185019093700180936F0191
:100B1000809186019091870166C1233031050CF0E8
:100B20006AC0E034F84318F084E080934E014091AD
:100B3000840150918501220F331FF901EA59FF4FBB
:100B400080819181489FF001499FF00D589FF00DE1
:100B50001124F0937001E0936F016091770170911F
:100B60007801D901A05ABF4F2D913C91429FC001FD
:100B7000439F900D529F900D1124681779077CF0C8
:100B80002AE0249FC001259F900D11249F01280F6A
:100B9000391F81E0261737071CF080E001C081E093
:100BA0004AE551E064E15DD6882319F085E0809341
:100BB00084008091860190918701909372018093C7
:100BC00071019C01B3E035952795BA95E1F781E075
:100BD0004091690150916A01241735070CF480E0B7
:100BE00049E551E064E63DD6882309F418C181E067
:100BF00080934E0114C1C9010397029708F0BAC04F
:100C0000CF016CE370E00CD70A9719F481E0809370
:100C100054018CE89AE09093700180936F01809169
:100C20008401909185016AE0689FA001699F500D41
:100C3000112460916101709162016417750734F0AD
:100C4000181619061CF485E080934E014091860128
:100C500050918701EF31F105E0F49F0173E0369583
:100C600027957A95E1F72F5F3F4F249FC001259F7D
:100C7000900D349F900D11249695879596958795A4
:100C80009093720180937101F0935801E0935701A2
:100C9000C6C05093720140937101809157019091A9
:100CA0005801AF01481B590B453B510508F4B7C02B
:100CB00080915D0190915E012430310569F4853C9D
:100CC0005FEF950774F520915F013091600128175F
:100CD00039073CF182E023C0893D2FEF92075CF495
:100CE00020915F0130916001281739074CF082E0B4
:100CF00080934E0105C01816190614F480E008C050
:100D000080915F019091600118161906BCF381E093
:100D100049E551E06EEFA5D5882319F083E0809373
:100D20004E01209177013091780140916B015091F3
:100D30006C01241735077CF0C901841B950B97FDC6
:100D400003969595879595958795840F951F909314
:100D50006C0180936B0180916B0190916C01281B59
:100D6000390B81E0293F3F4F0CF080E04BE551E02B
:100D700065EB39CF2530310519F52091840130918B
:100D8000850140EF429FC001439F900D1124909335
:100D9000700180936F0180918601909187019093FB
:100DA00072018093710181E02091690130916A01A3
:100DB000283C31050CF080E049E551E068EC13CFA8
:100DC00010924D012CC080914701882341F1809100
:100DD0007501909176019C01235031092230310533
:100DE00038F481E290E0909372018093710117C012
:100DF000059709F06CCE86E990E09093720180939C
:100E00007101209184013091850146EE429FC0011D
:100E1000439F900D11249093700180936F01609116
:100E20006F0170917001CB01A0E0B0E0BC01CD0179
:100E30002BE0660F771F881F991F2A95D1F72FE5A2
:100E400035E040E050E035D6309332012093310157
:100E50000895C09A88E2EDE4F1E0DF011D928A95E1
:100E6000E9F781E080934D018091770190917801BD
:100E700090936601809365011092430110924401A2
:100E8000109245011092460180917B01882329F040
:100E900010927B0180917501A6D21092790181E0B8
:100EA000809347010895D5DF10924D0110924701BC
:100EB00008958091770190917801843691051CF412
:100EC00021E02093530120914D0121110EC0803962
:100ED00091405CF080915301882339F08091750135
:100EE00090917601069709F0B4DF80914D01882337
:100EF000C9F180915301882349F080914E018823E4
:100F000029F0809151018A3009F4CDDF80913D01B3
:100F100090913E018A34910564F080918601909110
:100F20008701833391052CF00A9790938701809372
:100F300086018091690190916A019C01220F331F03
:100F4000820F931F2091670130916801820F931FD8
:100F500097FD03969595879595958795909368014C
:100F600080936701ACDD80914E0181112CC080918E
:100F70007501909176018630910511F0039744F444
:100F8000809177019091780190936601809365013B
:100F9000809155019091560101969093560180934E
:100FA00055016091430170914401809145019091F8
:100FB000460120E83CEF4AE050E059D53093620109
:100FC000209361010895809151018A3038F4909105
:100FD0004D01992319F08F5F809351010895CF93AC
:100FE000A0913B01B0913C0128EF34E241E050E098
:100FF00094D520E030EB40E050E05BD58091690172
:1010000090916A01BC01660F771F860F971F092E0A
:10101000000CAA0BBB0BBC01CD01620F731F841F18
:10102000951F24E030E040E050E043D530936A0162
:1010300020936901A0913901B0913A012FE535E083
:1010400066D5DC01CB01FBE0B595A7959795879513
:10105000FA95D1F7909378018093770183E056D980
:1010600021E935E0DC0153D5DC01CB01CCE0B595BD
:10107000A79597958795CA95D1F79093740180931A
:10108000730180914D01882309F499C08091690111
:1010900090916A010797CCF48091330190913401CB
:1010A0001816190694F480917501909176010697AF
:1010B00061F080915401811108C081E020915501B7
:1010C000309156012531310508F480E04CE551E0BE
:1010D00068E2C7D3882349F080914E01811103C093
:1010E00086E080934E0110924701C0915401CC23B9
:1010F00059F0809175019091760106972CF4109229
:1011000034011092330113C02091710130917201AA
:10111000A0E0B0EBF0D428EF34E241E050E0C9D4D5
:101120003093340120933301CC2309F448C08091DB
:101130003B0190913C0103970CF041C080917701F5
:101140009091780190936601809365018431954078
:1011500044F480917301909174019093660180939F
:10116000650140915D0150915E01209165013091D2
:10117000660180916301909164010097D1F0B901FB
:10118000681B790BEAE0E69FC001E79F900D1124F0
:10119000840F951F97FD019695958795BC01641B5B
:1011A000750B7093600160935F0190935E01809373
:1011B0005D01109254013093640120936301CF913B
:1011C0000895CF93DF93EC01862F9A8191709A83D3
:1011D000662339F0911102C092E09A839A8191605E
:1011E00006C0992311F095E09A839A819E7F9A8395
:1011F000AE0164E144D3882319F08A8188608A8330
:10120000DF91CF910895FC01DA0150918B015A7062
:1012100080819181552329F0AC01421B530B9A0127
:1012200006C050918E015A7021F0280F391F31836A
:10123000208380819181861797071CF471836083D6
:101240000895A817B90714F4B183A0830895CF9324
:10125000DF936CE370E0F8D39B01EC0143E062E0C4
:10126000C9016DD98AE33CD943E062E0CE01DF9148
:10127000CF9165C925E0829FC0011124815F9E4FF7
:1012800046C9CF93DF938091750125E0829FC0010D
:101290001124815F9E4F3BD98091860190918701F7
:1012A000CAE0D0E0BE01D0D3CB0142E064E047D930
:1012B00084EC90E02CD98091750190917601863074
:1012C000910551F48091840190918501BE01BCD3B8
:1012D000CB0141E063E023C08330910564F440E03A
:1012E00062E0809184019091850129D98FEB90E093
:1012F000DF91CF910CC99C01235031092230310577
:1013000020F485E0DF91CF9110C9059769F48091B1
:1013100084019091850140E063E0880F991F0FD907
:1013200086E5DF91CF91DCC8DF91CF910895809160
:101330007501909176018630910569F485EB90E016
:10134000E6D842E064E08091840190918501F7D86D
:1013500082EB90E028C0833091051CF08530910528
:1013600061F48AEA90E0D3D840E061E080918401A2
:1013700090918501E4D886E0D8C803970297A0F43D
:1013800082EA90E0C4D8809184019091850142E086
:1013900064E02AE0FC012E9FC0012F9F900D1124D4
:1013A000CED88CE990E0B3C8089525E0829FC001B3
:1013B0001124BC016F5F7F4F45E050E084E891E06D
:1013C000BCD39091840180918601890F909188010E
:1013D000891741F0109287011092860110928501C1
:1013E000109284010895CF93C82F682F84E290E073
:1013F000C5D3E4E8F1E092818081890F848385E0A0
:10140000C89FB00111246F5F7F4F45E050E0CF01CE
:10141000CF91ABC382E990E07AD88091750125E045
:10142000829FC0011124815F9E4F71D883E07DC8E7
:101430002091840030E0215031094CE0429FC001EE
:10144000439F900D112489539F4F61D885E06DC84B
:101450008091910181FF07C081E090917901911104
:1014600080E08093790180917901882349F022E31B
:1014700030E040E757E160E070E086E891E008C0C6
:1014800021E030E045E050E060E070E08CE791E082
:10149000BADE809175019091840091110AC09091FB
:1014A0004E01992339F090917A01992319F087E040
:1014B00001C088E025E0829FC0011124815F9E4F1A
:1014C00026D842E064E0809165019091660137D8AA
:1014D00086E506D880917901882329F080918601DC
:1014E0009091870113C080917501909176010397C7
:1014F000029740F480917101909172016AE070E06E
:101500008FD207C080916701909168016AE070E016
:101510009BD2CB0142E064E012D88091790188230C
:1015200039F080917A01882319F081E0FED702C05A
:1015300081E4D6D781E0E5D780918400882321F02B
:1015400080917A01811174CF80917C0190917D010D
:101550000097A9F480915501909156016CE370E0D9
:101560005FD2CB0174DE83E0E0D742E065E080919A
:10157000610190916201E3D78FE890E01BC0813058
:101580009105C9F48AE890E0C2D742E064E0809116
:10159000370190913801D3D787E890E0B8D740E081
:1015A00062E080913D0190913E01C9D78FED98D7BF
:1015B00084E890E0ACC782309105C1F5A091390173
:1015C000B0913A012FE535E0A2D2DC01CB013BE03E
:1015D000B595A795979587953A95D1F742E064E040
:1015E000AED786E57DD7A0913B01B0913C0128EFB5
:1015F00034E241E050E091D220E030EB40E050E0B6
:1016000058D2DA01C90143E064E099D781E468D790
:10161000809135019091360197FDCF9640E064E0CE
:1016200026E0959587952A95E1F715C00397A1F4D3
:101630008FE790E06CD740E063E080915D0190918E
:101640005E017DD788E790E062D740E063E080915B
:101650005F019091600173C7089580E052D7809137
:10166000910183FF10C0877F8093910110929001B8
:1016700010928F011092840080914D01882311F007
:1016800012DC01C0E6DB80917901882399F090910A
:101690008B0190FD04C090918E0190FF0BC091E0F2
:1016A00090937B0120915501309156013093580160
:1016B0002093570190914D019111CACE811109C01B
:1016C00021E030E043E050E060E070E08EE791E040
:1016D0009ADD8091910182FF1CC080917E019091E2
:1016E0007F010097B1F020917901222359F00397EF
:1016F00049F480917B01882329F08091750155DEA2
:1017000010927B0181E090917901911180E08093AA
:10171000790180917E0190917F01009711F4B1DDF4
:1017200058C08130910501F580917901882349F0F5
:1017300022E330E040E757E160E070E086E891E0C6
:1017400062DD81E790E0E3D6809186019091870188
:101750006AE070E079D1CB0142E063E0F0D681E449
:10176000BFD685E0E2D635C08230910511F5809173
:1017700079018823E1F0809175019091760186309E
:10178000910539F42AE030E044EC59E06AE070E079
:101790000BC0880F991FFC01EC58FF4F408151810D
:1017A00021E030E060E070E084E891E02CDDBFDD16
:1017B00010C0039771F480917901882349F021E0EA
:1017C00030E046E050E060E070E085E791E01BDD4E
:1017D00021DE81E096D680918400882321F08091DB
:1017E0007A01811125CE80917901882319F080E654
:1017F00090E023C080917E0190917F01892B89F434
:1018000080913701909138016AE070E01DD1CB01E1
:1018100041E063E094D68DE590E079D682E590E0F2
:1018200002C085E490E073D680917E0190917F01A3
:101830000197029718F480E490E069C684E075C6C9
:10184000181619065CF021E030E0892B11F420E035
:1018500030E088279927821B930B089581E090E060
:101860000895FA01811101C010828081681718F46F
:10187000108281E008958F5F808380E00895FA01EF
:10188000811102C0118210828081918170E06817FD
:1018900079072CF001969183808380E0089581E0A0
:1018A000089568D49EE088E10FB6F894A89581BDAC
:1018B0000FBE91BDC1E0A89580912D0190912E01A0
:1018C000A0912F01B09130014091890050918A0080
:1018D00060918B0070918C0084179507A607B7075D
:1018E00008F461C07CDB809147018130E1F4809194
:1018F000690190916A01092E000CAA0BBB0B409163
:101900004301509144016091450170914601840F5B
:10191000951FA61FB71F8093430190934401A09386
:101920004501B093460163B365FB662760F96C27F8
:1019300089E891E046DC60B362FB662760F96C27BA
:101940008FE891E03EDC60B363FB662760F96C27AB
:101950008CE891E036DC8091510180FF06C09091C7
:101960004D01992311F0C09A01C0C0989091840054
:10197000992329F0803F18F48F5F809351016DDE29
:101980008091890090918A00A0918B00B0918C0089
:10199000C296A11DB11D8093890090938A00A093E7
:1019A0008B00B0938C008091850090918600A0916F
:1019B0008700B091880040912D0150912E016091D7
:1019C0002F0170913001481759076A077B0708F407
:1019D00072CF88519C4FAF4FBF4F8093850090933B
:1019E0008600A0938700B093880081E090917A01EF
:1019F000911180E080937A0180914701813009F450
:101A00000DD457DAC0D757CF991B79E004C0991F7E
:101A1000961708F0961B881F7A95C9F78095089548
:101A2000AA1BBB1B51E107C0AA1FBB1FA617B70704
:101A300010F0A61BB70B881F991F5A95A9F7809520
:101A40009095BC01CD01089597FB072E16F40094E4
:101A500006D077FD08D0E4DF07FC05D03EF4909572
:101A600081959F4F0895709561957F4F0895A1E2EC
:101A70001A2EAA1BBB1BFD010DC0AA1FBB1FEE1F08
:101A8000FF1FA217B307E407F50720F0A21BB30B53
:101A9000E40BF50B661F771F881F991F1A9469F7CF
:101AA00060957095809590959B01AC01BD01CF012B
:101AB0000895052E97FB16F400940FD057FD05D01E
:101AC000D6DF07FC02D046F408C05095409530950B
:101AD00021953F4F4F4F5F4F08959095809570959A
:101AE00061957F4F8F4F9F4F089505D0332312F498
:101AF0008A1B9B0B0DC0A29FB001B39FC001A39F87
:101B000001D0B29F700D811D1124911D0895F3DF46
:101B1000B7FF0895821B930B0895B7FF04C003D04D
:101B2000821B930B0895E7DFA59F900DB49F900D46
:101B3000A49F800D911D11240895DC01CB01FC01AF
:101B4000E199FECF06C0FFBBEEBBE09A31960DB225
:101B50000D9241505040B8F70895E199FECF9FBBD8
:101B60008EBBE09A99278DB30895DC01CB0102C0AA
:101B70002D9105D041505040D8F70895262FE19976
:101B8000FECF9FBB8EBB2DBB0FB6F894E29AE19AB5
:0A1B90000FBE01960895F894FFCFF0
:101B9A0018011801C800A401AE0168010000000084
:101BAA00F0000000060006000700AC26AC2606007E
:021BBA00C4095C
:00000001FF
